:020000040000FA
:0600000002010702213F8E
:03002B0002257536
:03003B0002259A01
:0300430002254D46
:030053000221B2D5
:10008300021FABE5C754F84401F5C779012200000C
:100093000080FB120086B900030200F1E4792178A5
:1000A30008B800028004F709D8FCE479297802B87B
:1000B30000028004F709D8FCE49002817835790BBB
:1000C3008002F0A3D8FCD9FA7AB57B0C900137787B
:1000D300F979038015E493A3AD82AE838A828B837F
:1000E300F0A3AA82AB838D828E83D8E9D9E7758288
:1000F3008E7583FF740112011975829175830074E3
:100103000012011975D00075813F751881751902A8
:10011300759F00020096C09FF59FE473D09F22D085
:1001230083D082C09FE493C0E0740193C0E0740263
:1001330093F59F22080964422E44657673051208DD
:10014300000800020A000201061106000000000078
:10015300000000000010DDDBFF10F564422E446553
:1001630076730000000000000000000000000000A3
:10017300410400004704FF0000B4000028002800E9
:10018300283075A000A000A000A00000080008E02F
:1001930001F00010001000100010001000100050BB
:1001A300005000500010001000D0070000000000B5
:1001B300000F0001000500307507001000010081E9
:1001C300FF00000000FF570675065D06FF020202EE
:1001D30008025000A0000000E80302C681010000ED
:1001E300A98102CA810100004E0D02D081010000E5
:1001F300B80202CA810100004F0D02D28101000042
:10020300CE0202CA81010000500D02D48101000018
:10021300D00202CA81010000510D02D681080000FC
:10022300D10202CA81010000520D02D881010000EF
:10023300530DFF0100FF2002C681010000B28102BD
:10024300CA81010000B70D02DA810000000000023C
:10025300CE810300001E033F0C3F0C3F0C3F0C3FBD
:100263000C3F0C3F0C3F0C3F0C3F0C3F0C3F0C3F33
:100273000CC10ED90EBB0EFFFF02020202020202E4
:100283000202010D000000100102C681010000B549
:100293008102CA81010000FA0D02E08101000062BF
:1002A3000702CA81010000FB0D02DE810100003E4E
:1002B3008102CA81010000FC0D02DC8101000030D3
:1002C3008102CA81010000FD0D02C481010000BC4E
:1002D3008002CA81010000FE0D02C081010000AA54
:1002E3008002CA81010000FF0D02BE81010000CE21
:1002F3008002CA81010000000E02BC81010000E0FF
:100303008002CA81010000010E02BA8101000022AD
:100313008102CA81010000020E02B88101000003BC
:100323000E01053F100AFF000130750302010600AC
:1003330000000000000000000000000000000000BA
:100343000000000000000000000000FFFF06008026
:100353000CE80302023078464630310002436861FC
:100363007261637465726973746963203200084350
:1003730068617261637465726973746963203300C1
:100383001043686172616374657269737469632091
:1003930034000243686172616374657269737469DE
:1003A3006320350002C681010000AF8102CA8101CA
:1003B3000000D50E02E681010000800C02CC810111
:1003C3000000D60E02CA81010000DD0E02E88101A1
:1003D3000000940C02CC81010000DE0E02CA8101F0
:1003E3000000EF0E02EA81020000950C02CC8101AD
:1003F3000000F00E02CA81010000010F02EC81002F
:100403000000A90C02CE81030000AA0C02CC8101DA
:100413000000020F02CA81010000130F02EE8104E3
:100423000000B00C02CC81010000140F1201225F06
:10043300F5021201223EF702120122C4F802120150
:1004430022C7F802120122FFF8021201224BF9021D
:10045300120122E2FA0212012221B603120122380A
:10046300B60312012269B603120122A4B6031201D4
:1004730022CEB603120122F8B6031201220FB703EC
:1004830012012226B7031201223DB703120122668D
:10049300B70312012279B7031201228FB7031201A6
:1004A30022A2B703120122C9B70312012266BE02B8
:1004B3001201226ABF02120122A2BF02120122C547
:1004C300BF02120122D0BF02120122F3BF021201A6
:1004D3002202C102120122D7C10212012252C20218
:1004E300120122DAC20212012215C3021201224CA6
:1004F300C302120122DAC302120122B3C40212019F
:100503002213C5021201221EC5021201229DC50239
:10051300120122A0C502120122A3C5021201223236
:10052300C60212012235C60212012265C602120159
:10053300228FC6021201227DC7021201222FC80296
:100543001201221090031201223890031201226635
:1005530090031201229D9003120122FB90031201CA
:1005630022469103120122919103120122D1910398
:100573001201221792031201224592031201220251
:1005830093031201220C9303120122199303120104
:10059300224C930312012218940312012224940380
:1005A3001201223C940312012246940312012250A9
:1005B300BE031201225EBE0312012276BE031201A4
:1005C300228EBE03120122CEDB011201227ADC014C
:1005D300120122F5DC0112012216DE011201225260
:1005E300DE01120122FBDE01120122E2DF01120110
:1005F3002246E1011201229DE1011201221EE201C4
:100603001201220EE3011201225BE301120122E136
:10061300E30112012213E40112012227E601120170
:100623002269E60112012287E6011201220AE7018B
:10063300120122DEE701120122A6E8011201221BA8
:10064300E802120122EEE80212012297E9021201E6
:1006530022EAE9021201229AEA0212012226EB029D
:1006630012012212EC0212012241EC021201225465
:10067300ED021201229CED0212012271EE0212011F
:1006830022ADEE02120122C9EE021201226D7F0099
:100693001201221A990312012230990312012256E0
:1006A3009903120122729A031201227C9A03120106
:1006B30022B19B03120122A99C03120122D68503B6
:1006C30012012206870312012239870312012283B2
:1006D30087031201224A8903120122DFCB0112018F
:1006E3002249CC01120122A8CD01120122B8CD0169
:1006F300120122E5CD011201223CCE01120122E5B5
:10070300CE01120122ECCF01120122B6D001120157
:100713002216D20112012259D201120122FED20164
:100723001201224BD30112012271D3011201227F44
:10073300D50112012284D50112012289D7011201A8
:1007430022D6D70112012249D8011201227CD801F5
:100753001201221ED901120122C7D901120122FF5F
:10076300D90112012202DA011201224ADA0112012D
:10077300228ADA01120122E1DA0112012228AC03F2
:1007830012012240AC0312012288AC031201229E03
:10079300AC03120122E5AC03120122F9AD031201ED
:1007A3002286AE03120122D1AE03120122202600BB
:1007B3001201225B2600120122A0260012012260F0
:1007C3002700120122E627001201224B2800120102
:1007D30022772800120122B02800120122EE2A00FB
:1007E300120122D22C00120122B82E00120122FB88
:1007F3002F001201224932001201225B3300120141
:1008030022A63400120122B63500120122D335008C
:100813001201220E360012012230360012012293F9
:100823003600120122543B00120122E93B0012015F
:10083300223A3C00120122613C00120122B33C0027
:10084300120122D13C001201222B3D00120122147D
:100853003E001201228A3F001201220E40001201C3
:1008630022FD8A03120122078B031201224A8B0302
:10087300120122658B03120122F58B031201221D43
:100883008C031201225A8C03120122918C03120150
:1008930022BA8C031201222F8D03120122448D03ED
:1008A300120122598D031201228A8D031201229E05
:1008B3008D03120122C38D03120122FD8D03120148
:1008C30022298E03120122618E03120122148F0347
:1008D3001201223F8F031201224A8F031201229336
:1008E3008F03120122BD8F03120122E88F0312012D
:1008F3002237BD03120122039C02120122319C0202
:100903001201227F9D021201225F9E021201227EAA
:100913009E02120122FB9E021201223E9F0212013D
:100923002294A00212012255A102120122DCA30289
:100933001201227DA40212012273A5021201227068
:10094300A602120122CAA70212012255A80212010D
:100953002280B903120122E9B9031201223DBA032D
:1009630012012264BA0312012295BA031201225D15
:10097300FB02120122CAFB0212012211FC02120124
:100983002229FD0212012225FE0212012208FF0282
:10099300120122A0C802120122E2C802120122B4EB
:1009A300C9021201228DCA0212012287CB0212014F
:1009B3002269CC02120122D2CC0212012288CD027A
:1009C300120122FCCD0212012268CE0212012291F1
:1009D300CE021201220BCF02120122A4CF02120176
:1009E3002209D0021201221ED00212012264D00277
:1009F3001201227DD002120122E2D002120122E56D
:100A0300D00212012256A6031201227EA60312016E
:100A130022BCA6031201227AA703120122E1A70333
:100A2300120122FDA70312012225A8031201225558
:100A3300A80312012264A803120122E1A8031201F0
:100A43002207A9031201227ABB0112012258BD0118
:100A53001201228ABF01120122C6BF01120122F331
:100A6300BF01120122DDC00112012228C1011201BE
:100A73002273C10112012285C101120122C5C101E4
:100A8300120122FAC10112012248C2011201227786
:100A9300C2011201229AC201120122E7C20112010C
:100AA300226CC30112012286C501120122C5C701AE
:100AB30012012206C801120122A8C901120122E96A
:100AC300C9011201225CCA01120122ADCA0112013D
:100AD3002288CB01120122B3CB01120122587200EA
:100AE300120122567300120122EF79001201221023
:100AF3007C00120122DB7D00120122437F001201E0
:100B030022595A00120122085B001201224E5B0097
:100B1300120122845C00120122B25C0012012248FD
:100B23005E00120122C25E00120122DD5E0012018C
:100B330022585F00120122B26000120122126200E9
:100B43001201221863001201227964001201229219
:100B53006400120122F06400120122DE650012011A
:100B630022116600120122816600120122FB660037
:100B73001201224567001201220F6800120122E4CC
:100B83006800120122C369001201224E6A00120199
:100B930022BC6A00120122306B001201225B6B003F
:100BA3001201221A6C001201227F6D001201229C95
:100BB3006D00120122BB6D00120122AC6E00120106
:100BC30022D16E00120122FB6E00120122766F0009
:100BD300120122D06F00120122397100120122E7A3
:100BE30071001201222872001201222F8E021201BB
:100BF300227D8E02120122898E02120122678F0248
:100C0300120122988F02120122C98F021201224976
:100C13009002120122819002120122D3900212014A
:100C2300221091021201222D9302120122539502E6
:100C33001201223E97021201222899021201221563
:100C4300260012012201970112012231970112019C
:100C5300220A9E011201228F9F011201228CA501FB
:100C630012012274A601120122B1A601120122D49B
:100C7300A60112012205A7011201220EA7011201EA
:100C83002218A70112012206A801120122FCA801C1
:100C9300120122F28101120122F18501120122F7D0
:100CA3008501120122328D011201224B92011201A0
:100CB3002208A00312012202A10312012276A1033A
:100CC300120122B4A10312012228A203120122A1BC
:100CD300A203120122AAA203120122B6A203120145
:100CE30022CBA20312012209A3031201221FA30391
:100CF300120122CD9403120122DA9403120122F489
:100D030094031201223395031201227195031201F8
:100D130022D69503120122EB9503120122F69503C5
:100D23001201220396031201221A960312012228AA
:100D330096031201223396031201223F96031201F6
:100D4300224E96031201225996031201227C960326
:100D53001201222397031201223397031201224D1A
:100D630097031201226A9703120122869703120145
:100D730022AB9703120122B69703120122CB9703EA
:100D8300120122DF97031201224098031201224627
:100D930098031201224C9803120122529803120164
:100DA300226A98031201229D9803120122058002F0
:100DB3001201228980021201223881021201229734
:100DC3008202120122B88402120122A485021201B6
:100DD30022D98502120122FB8502120122AA860270
:100DE300120122A28802120122CB88021201225D83
:100DF30089021201228F89021201229C89021201A7
:100E030022F38902120122198A02120122868C021C
:100E1300120122898D02120122E18D02120122BFE9
:100E2300EA01120122C9EB01120122B0EC01120105
:100E330022BAEC01120122DCEC01120122E8EC01DE
:100E430012012281EE01120122B0EE01120122CC25
:100E5300EF0112012225F0011201228BF10112018F
:100E6300226AF201120122C6F20112012233F301B6
:100E73001201226EF301120122ADF3011201226667
:100E8300F60112012280F6011201220CF701120170
:100E9300221AF70112012273F70112012281F701CD
:100EA300120122F4F70112012258F801120122A2C1
:100EB300F801120122D6A802120122F8A802120197
:100EC300221EAB0212012233AE021201224BAF02E9
:100ED300120122FEAF02120122E0B002120122DB54
:100EE300B70312012200B80312012272B8031201E0
:100EF30022A1E002120122AAE002120122B3E002BF
:100F03001201228AE1021201223BE3021201227141
:100F1300E302120122ABE302120122E1E302120116
:100F2300221BE4021201224FE4021201227BE4029B
:100F3300120122C4E402120122FEE402120122473A
:100F4300E5021201229FE502120122D4E5021201F9
:100F5300222FE60212012269E602120122BAE602F8
:100F6300120122F0E6021201222AE702120122589C
:100F7300E7021201227BE702120122D8BF0312010A
:100F83002204C0031201225FC00312012269C003BD
:100F930012012279C00312012212D902120122275F
:100FA300D90212012283D902120122EED9021201BF
:100FB3002236DA02120122A0DA02120122CFDA0269
:100FC300120122DDDA021201223FDB021201227D2D
:100FD300DB0212012298DB0212012233DC0212012E
:100FE30022D8DC021201225BDD0212012294DD020F
:100FF3001201221FDE0212012276DE02120122D525
:10100300DE02120122E7DE021201220DDF021201CB
:101013002216DF021201226AE00212012283C003B8
:10102300120122DBBA03120122B9BB03120122A966
:10103300B103120122EEB10312012234B2031201F1
:1010430022FDB30312012274C2031201228FC203D1
:101053001201229FC20312012209D1021201222985
:10106300D1021201229FD202120122EDD2021201F9
:10107300220DD30212012275D302120122F7D302E9
:101083001201223DD402120122C9D40212012215F7
:10109300BC0312012246BC0312012270BC031201DD
:1010A30022CEBC03120122008003120122258003F9
:1010B300120122D4C103120122754000120122271A
:1010C3004200120122CB42001201226E43001201A0
:1010D30022254400120122E348001201227A49002A
:1010E300120122B64A001201221E4B00120122D223
:1010F3004B00120122884E00120122C24E0012013F
:10110300222C4F001201228A4F00120122E84F00C5
:101113001201224550001201223451001201227A99
:101123005100120122BF5100120122E251001201AB
:101133002225530012012239530012012242540086
:10114300120122815400120122AD5400120122FC2B
:1011530054001201221D55001201225B5500120199
:1011630022A25700120122E35700120122815800E4
:10117300120122EC5800120122255A0012012233D7
:10118300C3031201224FA9031201221AAC03120155
:1011930022F6C20312012227BF0312012237BF0323
:1011A3001201224EBF03120122CABF031201224FB2
:1011B300A303120122F9A3031201223BA603120186
:1011C30022F17F00120122E3FF011201222BF90118
:1011D30012012228FB01120122AEFB01120122B5EA
:1011E300FC0112012279FD01120122F7FD01120116
:1011F30022DAFE01120122DDFE01120122EBFE01C1
:1012030012012208FF0112012231FF011201225AA9
:10121300FF0112012268FF0112012280FF01120166
:10122300222CC103120122A5C103120122C4C1034E
:1012330012012241B403120122A8B4031201225362
:10124300B503120122C9B503120122B39C03120193
:1012530022E69C03120122EC9D03120122419F030B
:1012630012012204B402120122E0B4021201222765
:10127300B50212012264B502120122D2B502120193
:10128300222CB6021201229CB60212012274B7026A
:1012930012012267B802120122EBB8021201228E58
:1012A300BA0212012219BB02120122A9BB021201C6
:1012B3002242BC0212012259BC0212012294BD0235
:1012C300120122EABD0212012214AB01120122B85B
:1012D300AF01120122E1AF011201220AB001120192
:1012E30022BCB0011201229AB201120122ECB30115
:1012F30012012233B9011201226CB901120122B089
:10130300B901120122BCBA01120122FBAE03120180
:101313002213AF0312012264AF0312012267AF034A
:1013230012012252B003120122AAB0031201225069
:10133300B10312012272B1031201223EEF02120124
:10134300228EEF02120122ABEF02120122CBF00236
:1013530012012289F1021201220EF302120122224A
:10136300F502120122CAFF0212012215C303E0662D
:10137300701008A3E066700A08A3E066700408A36F
:10138300E06622C3E7960809E7960809E796080985
:10139300E79622C3E09608A3E09608A3E09608A385
:1013A300E09622C008C3E096F50808A3E096420839
:1013B30008A3E096420808A3E09645087001D3D03D
:1013C3000822080808EAC0E0EBC0E086F0E7A4FAC8
:1013D300180986F0E7A42AFA180986F0E7A42AFA7E
:1013E300180986F0E7A42AFA1986F0E7A4FBE5F0CA
:1013F3002AFA190886F0E7A42BFBE5F03AFA190854
:1014030086F0E7A42BFBE5F03AFA18180986F0E713
:10141300A4C5F02BFBE43AFA1908E7C5F0C6A426E5
:10142300F6E5F03BFBE43AFA1886F0E7A4F6E5F0BC
:101433000826F6E43B08F6E43A08F6D0E0FBD0E0F1
:10144300FA226016080808C6C313C618C613C618BE
:10145300C613C618C613C6D5E0EA227009080808E1
:10146300226016181818C6C333C608C633C608C682
:1014730033C608C633C6D5E0EA22E627F60809E6EE
:1014830037F60809E637F60809E637F622E026F6C6
:1014930008A3E036F608A3E036F608A3E036F62202
:1014A300E026F008A3E036F008A3E036F008A3E056
:1014B30036F022C3E697F60809E697F60809E69799
:1014C300F60809E697F622C3E096F008A3E096F043
:1014D30008A3E096F008A3E096F022E657F6080981
:1014E300E657F60809E657F60809E657F622E056E6
:1014F300F608A3E056F608A3E056F608A3E056F66E
:1015030022E056F008A3E056F008A3E056F008A343
:10151300E056F022E0F608A3E0F608A3E0F608A3FD
:10152300E0F622E6F008A3E6F008A3E6F008A3E657
:10153300F022E0FAA3E0FBA3E0FCA3E0FD22EAF043
:10154300A3EBF0A3ECF0A3EDF022E0F8A3E0F9A302
:10155300E0FAA3E0FB22E8F0A3E9F0A3EAF0A3EBAF
:10156300F022CAC0E0E6F0A308DAFAD0E0FA22CA11
:10157300C0E0E0A3C582CCC582C583CDC583F0A3FB
:10158300C582CCC582C583CDC583DAE6D0E0CA2245
:10159300C3E498F8E499F91215D48026C3E49AFABF
:1015A300E49BFBE920E7E91215D4E498F8E499F900
:1015B30022C3E498F8E499F91215D4E498F8E4996D
:1015C300F9C3E49AFAE49BFB22EB20E7CFE920E797
:1015D300E0B90010BB0008E88AF084F8AAF022E41E
:1015E300FBC8FA22EB70227B10C833C8C933C93356
:1015F3005007C39AC3DBF280069A50012ADBEAC87C
:1016030033F4C8C933F4C9FA2275F008E4C833C8FF
:10161300C933C933C99AC99B5004C92AC93BD5F0F8
:10162300ECFBC833F4C8E4C9FA22600D08C6A2E78C
:1016330013C618C613C6D5E0F322600C08C6C3133D
:10164300C618C613C6D5E0F422700422600D18C66E
:10165300C333C608C633C6D5E0F41822251810AF25
:1016630008F518400C15198008F51840021519D211
:10167300AF2200C0D0251810AF08F518500C05197B
:101683008008F51850020519D2AFD0D0222518F5DD
:101693008210AF08F518400C15198008F5184002A0
:1016A3001519D2AF851983222518F582E43519F56A
:1016B30083222518F8E43519F9222518FAE4351997
:1016C300FB222518FCE43519FD22E4732518C58295
:1016D300C0E0E51934FFC583C0E0E518C395822453
:1016E300F810AF08858319858218800885831985CA
:1016F3008218D2AFCEF0A3E520F0A37808E608F075
:10170300A3DEFAEFF0A3E58124FAF8E608F0A3E6F6
:1017130008F0A3E608F0A30808E608F0A3E608F03B
:10172300A315811581D0E0FED0E0F8158115811550
:1017330081E8C0E0EEC0E0222518C582C0E0E519CB
:1017430034FFC583C0E0E518C3958224F910AF08C0
:101753008583198582188008858319858218D2AFFD
:10176300CEF0A3E520F0A37808E608F0A3DEFAEFB5
:10177300F0A3E58124FBF8E608F0A3E608F0A3084C
:1017830008E608F0A3E608F0A315811581D0E0FE72
:10179300D0E0F815811581E8C0E0EEC0E02285199C
:1017A30083851882E0A3FEE0A3F5207808E0A3F682
:1017B30008DFFAE0A3FFE0A3C0E0E0A3C0E0E0A3FA
:1017C300C0E0E0A3C0E0E0A3C0E010AF088582184A
:1017D3008583198008858218858319D2AFD083D079
:1017E3008202011F851983851882E0A3FEE0A3F519
:1017F300207808E0A3F608DFFAE0A3FFE0A3C0E047
:10180300E0A3C0E0E0A3C0E0E0A3C0E010AF088520
:1018130082188583198008858218858319D2AFD0F1
:1018230083D08222C0D02518C582C0E0E51934FFD9
:10183300C583C0E0E518C3958224F310AF08858300
:10184300198582188008858319858218D2AFC8F05C
:10185300A3E9F0A3EAF0A3EBF0A37908E709F0A367
:10186300D8FAECF0A3EDF0A3EEF0A3EFF0A3D0E0F1
:10187300F0A3D0E0F0A3D0E0F0A3E520F0A3E5F0DF
:10188300F0A322851983851882E0C0E0A3E0F9A3C1
:10189300E0FAA3E0FBA37808E0F608A3DFFAE0FC94
:1018A300A3E0FDA3E0FEA3E0FFA3E0C0E0A3E0C04C
:1018B300E0A3E0F5D0A3E0F520A3E0A3F5F010AF9B
:1018C300088583198582188008858319858218D233
:1018D300AFD082D083D0E0F8D0E0327404800674B5
:1018E3000280027401C0E0F404121690D0E01215D5
:1018F30065227404800474028000CCC0E0EDC0E073
:10190300E518C39CCCAD1950011D10AF068C188D82
:101913001980068C188D19D2AF121572D0E0FDD044
:10192300E0FC22D083D082E9C0E0E493A3C386F035
:10193300C5F095F0F908E493A386F0C5F095F0702F
:101943000BE493A3C3994005E9048002A3E475F073
:1019530002A42582F582E5F03583F583D0E0F9E42E
:1019630093A3C0E0E493C0E022D083D082ECC0E034
:10197300EDC0E0E493A3FCE493A3FDED4C600D12F2
:1019830019B8EC24FFFCED34FFFD80EFE493A3FCD6
:10199300E493A3FDED4C600D1219F7EC24FFFCED6D
:1019A30034FFFD80EFD0E0FDD0E0FCE493A3C0E082
:1019B300E493C0E022C0E0C3E493960874019396D5
:1019C30018400FE49366700808740193661870005A
:1019D3007019A3A3C3E49396087401939618A3A361
:1019E300400DD0E0D0E0D0E00219A8A3A3A3A3A3A5
:1019F300A3D0E022C0E0C0F088F0E493667008084A
:101A030074019366187000A8F0A3A3700BD0F0D0F4
:0F1A1300E0D0E0D0E00219A8A3A3D0F0D0E022E9
:101A240074F512173BEAFEEBFFEE2434F8EF3400B2
:101A3400F988088909EE2435F582EF3400F583E04E
:101A4400F8EE2437F582EF3400F583E0F50AEC85EF
:101A54000AF0A4FCAAF0850AF0EDA42AFDE82CF80B
:101A6400E43DF97A257B001215D4EA8508828509BC
:101A740083F0F8740758F97401B900028004C33381
:101A8400D9FCFAE8131313541FF8EE28F8EF3400C6
:101A9400F9E8245DF582E93400F583E05A6008EE44
:101AA4002434F582EF802CEE2434F582EF3400F5F3
:101AB40083E0C0E0EE2436F582EF3400F583E0F5F0
:101AC400F0D0E084A8F0EE28F8EF3400F9E82438E8
:101AD400F582E93400F583E0F97F040217E774F531
:101AE40012173BEAFEEBFFEE2434F582EF3400F5E7
:101AF40083E0C0E0EE2435F582EF3400F583D0E0D6
:101B0400F08E828F83A3A3A3A3A3A3A3C082C083C5
:101B14008E828F83A3A3A3A3A3E0F8A3E0F9D083C9
:101B2400D082E0C398F508A3E099F509EE247FF587
:101B340082EF3400F583E064017069EE2480F5825D
:101B4400EF3400F583E0F8A3E0F98E828F83A3A33A
:101B5400A3A3A3A3A3E0FCA3E0FD8E828F83A3A38E
:101B6400A3A3A3E0FAA3E0FBC3EA9CEB9D5010C33C
:101B7400EC98ED99402EC3EA98EB995027800EC358
:101B8400EA98EB994007C3EC98ED9940177CE17D06
:101B940004EEFAEFFB120B9DEE247FF582EF340086
:101BA400F583E4F0EE2434F8EF3400F9E8FCE9FDC1
:101BB400EE2435F582EF3400F583E0F8EE2437F5B2
:101BC40082EF3400F583E0F50AE508850AF0A4F510
:101BD40008AAF0850AF0E509A42AF509E82508F819
:101BE400E43509F97A257B001215D4EA8C828D83B9
:101BF400F0F8740758F97401B900028004C333D9AA
:101C0400FCFAE8131313541FF8EE28F8EF3400F924
:101C1400E8245DF582E93400F583E05A6008EE2497
:101C240034F582EF802CEE2434F582EF3400F58312
:101C3400E0C0E0EE2436F582EF3400F583E0F5F001
:101C4400D0E084A8F0EE28F8EF3400F9E82438F561
:101C540082E93400F583E0F9122539021ADDC082E5
:101C6400C083851882851983E0F8A3E0F9C3EA9C50
:101C7400EB9D5010C3EC98ED99401BC3EA98EB9987
:101C84005014800EC3EA98EB994007C3EC98ED9981
:101C94004004790180027900D083D08222EAC39C77
:101CA400FAEB9DFB2274EF12173B9003A7E0640844
:101CB4006005E06407702A9061C8E060249003D551
:101CC400E0F4601DE0F875F003A4C8AAF02AF974E2
:101CD400D728FE740339FF8E828F83A3A3A3E070F9
:101CE40003021DD9906060E0C0E0EE2468F582EF45
:101CF4003400F583D0E0F0750C4A750D05750800C5
:101D0400750900E5D914F50AE5D95403F50E6017F1
:101D14007403650E605CE50A6010EE2467F582EFDB
:101D24003400F583E07003021DBE900545E06401B4
:101D3400602AEE2482F582EF3400F583E0600478B3
:101D44000480027800850A08E508C398FA95E0FB48
:101D5400120A598A088B09EA45097005120D8F8009
:101D640074EE2482F582EF3400F583E070048A0C6B
:101D74008B0DE50A6012850C82850D83F50BE5D980
:101D8400F0A3150BE50B70F6EE2482F582EF340018
:101D9400F583E0604474FC250AF50A780C1218E215
:101DA400AC0AA90EEEFAEFFB120C39740212167586
:101DB400E97026AA08AB09121239793D8E828F8305
:101DC400A3A3A3A3E0FA7B0012092DEEFAEFFB1202
:101DD4000BB5120C4B790080747403650E60568544
:101DE4000A1075110078101218E2AC0CAD0DAA0897
:101DF400AB09120C157402121675EE2468F582EF05
:101E04003400F583E064807004747F8001E0F50C95
:101E1400780C1218E6E50EF50C780C1218E6A90AEF
:101E2400AC08AD099003D5E0FA7B001208F1740206
:101E340012167580139003A7E06408600BAC0CAD18
:101E44000DEEFAEFFB120CA5120D9B79017F0A022D
:101E540017E774F512173B74FC12165FEAFEEBFFEA
:101E64008908A2AFE433F509C2AF806AEE2463F8AF
:101E7400EF3400F97A007B00A2AFE433F50AC2AF75
:101E840088828983E0FCA3E0FDEC4D603A88828976
:101E940083E0FAA3E0FB8A828B83E0FCA3E0FD8865
:101EA400828983ECF0A3EDF08A828B83E4F0A3F0C3
:101EB40088828983E0FCA3E0FDEC4D700A88828966
:101EC40083A3A3E4F0A3F0E50AA2E092AF121239CF
:101ED4009004E8E004F0EE2463F582EF3400F58327
:101EE400E0F8A3E0F9E849603DEE2463F582EF34BD
:101EF40000F583E02402FAA3E03400FBEA2402F5AF
:101F04000AEB3400F50B780A1218E28A828B83E01C
:101F1400FCA3E0F9EEFAEFFB120BD974021216756A
:101F2400E97003021E709004E8E060639004E9E045
:101F3400F89004E8E0C398500C740265087050905F
:101F440004EAE0604A8E828F83A3A3A3A3E08518EA
:101F540082851983F0A3E4F09004E8E0F874021297
:101F640016ABE8F0A3E4F09004E8E0F89004E7E0AE
:101F740028F074021216ABAC82AD838518828519E1
:101F840083AA82AB8379011208FD9004E8E4F0E5AA
:101F940009A2E092AF7404121675021ADD00000063
:101FA4008521878522C622C0E0C0D0E8C0E0E9C010
:101FB400E0EAC0E0EBC0E0ECC0E0EDC0E0EEC0E081
:101FC400C008C009C00AC00BC082C083C0F0A2AF61
:101FD400E433FEC2AF759B00906182E0A2E0501230
:101FE400E591A2E0500C7591FE7401652170031215
:101FF4001CA9E0A2E55051E591A2E5504B7591DF93
:102004009003A7E064076005E06408702374016529
:1020140021703579019003D5E0FA75F003A4CAA8BC
:10202400F028FB74D72AFA74033BFB121E5680185F
:10203400E0640D70139003C9E004F064287002E4B6
:10204400F07A00E0F9120DA1906182E0A2E640036B
:102054000220F2E591A2E640030220F27591BF90BE
:1020640003A7E064057008120CCF120CDB80031286
:102074000CD5752100120D2FE99003A8F0790012F8
:102084000D23120B0D7A017B009003A6E0F9120FC9
:10209400F3907803E064427055900549E014F070C1
:1020A4004DC2AF1220AA00782AD0E0F618D0E0F68C
:1020B400E59F540770057509FF800375097FC4C047
:1020C400E07829E6F50808E65509F509740B78085F
:1020D40012163DD0E02508F8906270E0A2E740F8BF
:1020E400E8C333906272F0906270E0D2E0F09061E5
:1020F40081E0A2E35009E5E9A2E3500375E9F7A3FF
:10210400E0A2E75009E591A2E7500375917FEEA2A2
:10211400E092AFD0F0D083D082D00BD00AD009D0D7
:1021240008D0E0FED0E0FDD0E0FCD0E0FBD0E0FA47
:10213400D0E0F9D0E0F8D0D0D0E032C0E0C0D0C0D8
:1021440082C083906183E0A2E05009E5BFA2E05021
:102154000375BFFEE0A2E15009E5BFA2E15003759B
:10216400BFFDE0A2E25009E5BFA2E2500375BFFB48
:10217400E0A2E35009E5BFA2E3500375BFF7E0A274
:10218400E45009E5BFA2E4500375BFEFE0A2E550B7
:1021940009E5BFA2E5500375BFDFE0A2E65009E5FB
:1021A400BFA2E6500375BFBFD083D0828088C0E051
:1021B400C0D0E8C0E0E9C0E0EAC0E0EBC0E0ECC0B9
:1021C400E0EDC0E0C0F0E5A7A2E6500FE5A1A2E66D
:1021D400500953A7BF75A1BF122217E5A7A2E55066
:1021E4000CE5A1A2E5500653A7DF75A1DFE5A7A280
:1021F400E15009E5A1A2E1500375A1FDE5A7A2E222
:10220400500CE5A1A2E2500653A7FB75A1FBD0F048
:1022140002212874F812173B7521019003A7E0648A
:10222400067015120C698A828B83A3A3A3A3A3A3AC
:10223400E0FAA3E0FB120CBDA2AFE433FED2AF90F0
:1022440003ADE0640170187A207B009003A6E0F9E6
:1022540012107D7A207B009003A6E0F9120FF9900A
:102264006182E0D2E6F0900546E0602185C62280D6
:10227400169003ACE064017008E5C654F84405F513
:10228400C653BEFC121FA47401652160E4EEA2E0F3
:1022940092AF7F010217E7008E238F248582288561
:1022A4008327851882851983E0CEA3E0CF85288211
:1022B400852783EBC9EAC8EDCBECCA75F010C3E8F7
:1022C40033C8E933C9EA33CAEB33CBC3EA9EF526F4
:1022D400EB9FF525B35004AB25AA26EC33CCED33A4
:1022E400CDD5F0DAAE23AF242274ED12173B8A0861
:1022F4008B098C0A8D0B74131216AB780C121517FC
:102304007808790C1213867510017511C8751200BE
:1023140075130050127808790C1214B678107908E5
:1023240012138650168010780C79081214B678109F
:10233400790C12138640047901800279007F0C0223
:1023440017E774ED12173B8A088B098C0A8D0B74FE
:10235400131216AB780C121517780C790812138621
:1023640040117808790C1214B6AA08AB09AC0AAD6E
:102374000B80227510007511007512007513017819
:1023840010790C1214B67810790812147DAA10ABC7
:1023940011AC12AD1380A68A828B837508FF750970
:1023A400FF750AFF750B0078081215047F040217E5
:1023B400E774F512173B8C828D8378081215178AFF
:1023C400828B8378081214CAEA2404F8EB3400F9E7
:1023D4008C828D83A3A3A3A3E0FCA3E0FD88828960
:1023E40083C3E09CF0A3E09DF088828983C3E094DA
:1023F40020A3E0944E40268A828B837508FF7509DA
:10240400FF750AFF750BFF78081214A38A828B8369
:10241400A3A3A3A3E02420F0A3E0344EF002239B63
:1024240074F512173BE9FE9004FCE0FAA3E0FBEE1E
:10243400C333F8E433F9741228F582748139F583CF
:10244400E02AF508A3E03BF50978081218E27A407F
:102454007B427C0F7D0012229C74021216758A083E
:102464008B098C0A8D0B74107808121445AA08ABDA
:10247400097F040217E774F112173B8A0C8B0D8C49
:102484000E8D0F740F1216ABE0FAA3E0FB74111259
:1024940016ABE0F508A3E0F50978081218E2EA247F
:1024A40001F508EB3400F509E4F50AF50B780C792D
:1024B400081213C5750871750902780C790812138E
:1024C400C5AA0CAB0DAC0EAD0F12229C74021216F1
:1024D400758B09EA450960047A0180027A00EC2AC6
:1024E400FCED3400FD74131216ABE0F8A3E0F9E838
:1024F400FEE9FFECF8EDF97A717B021215D4880835
:1025040089098E828F837808121526ECF8EDF97A02
:10251400717B021215D48A088B0974057808121687
:102524004C8E828F83A3A3A3A3E508F0A3E509F04F
:102534007F080217E7C082C083E9906000F0D0836F
:10254400D08222C2AF02000022C0E074F212182727
:10255400A2AFE433FED2AFC2C0E5D1A2E450065329
:10256400D1EF12121BEEF8EEA2E092AF7F01021837
:1025740086C0E0C0D0E8C0E0E9C0E0A2AFE433F830
:10258400D2AFC2C7E8F9E8A2E092AFD0E0F9D0E058
:10259400F8D0D0D0E032C0E0C0D0E8C0E0E9C0E07C
:1025A400C008C009C082C083A2AFE433F9D2AF909F
:1025B40009D1E0F89009D2E068700B539AFB9009B6
:1025C400D37401F08031C2E99009D1E0F5087401B7
:1025D40025089009D1F075090074512508F5827415
:1025E400093509F583E0F5C19009D1E0C394804031
:1025F400069009D17400F0E9F8E9A2E092AFD08323
:10260400D082D009D008D0E0F9D0E0F8D0D0D0E022
:102614003202011FFFFFFFFFFFFFFFFF74F71216D7
:10262400CFE99002E6F07C1E7D037AFF7BFF12085F
:10263400379002E774FFF0A3F0A3E4F0A3F0790568
:102644001207BF9002E6E0F91206E77A557B0812FA
:102654000A0B7F010217A174F41216CF8A088B09A2
:10266400EB548060309002E6E0F9120FDB8A0A8BAB
:102674000BAE0AAF0BEE4F60138E828F83E064B013
:1026840070031207D7EEFAEFFB120FC9AA08E50987
:102694006480FB80047A007B0002287274F21216B4
:1026A400CF74FC12165FEAFEEBFFEE4F6038740243
:1026B4001216ABEEF0A3EF122AD7ECF0A3ED122A18
:1026C400D7AA82AB831206E1E9F50870737412127B
:1026D40016AB12368BE50A450B60658E828F83122A
:1026E400274EEE4F700575080280557A067B00125E
:1026F400103B8A0C8B0DA80CA90DE84970057508D0
:1027040013803D88828983E4122758A3A3EEF0A3A3
:10271400EF123B24E50AF0A3E50BF09002EC12273C
:10272400E09002EC6017E0FCA3E08003EAFCEBFD20
:102734008C828D831227E070F38C828D831235B0E6
:10274400A9087404121675023D26A3A3A3A3E0FEF0
:10275400A3E0FF22F0A3F0888289832274F2121688
:10276400CF890AE975F017A4FEAFF09002EBE4F00C
:102774009002E91227E0600A1210419002E9E4F0A5
:10278400A3F0EEFAEFFB12103B8A088B09EA450925
:10279400602FEEFCEFFD7900120FB79002E9E50817
:1027A400F0A3E509F07B0080081227CAE4F0A3F047
:1027B4000BEBC3950A40F2E50A9002EBF079008036
:1027C400027913023D26EB75F017A4F8A9F09002E4
:1027D400E9E028FAA3E0398A82F58322123346EA33
:1027E4004B2274F41216CF750800750900740C128C
:1027F40016AB123AF8FEE9FF800CE5082401F5084F
:10280400E5093400F509C3E5089CE5099D503285C6
:10281400080A85090B7403780A12164CEA250AF88B
:10282400EB350BF988828983A3A3A3A3A3A3123650
:102834008BEE650A7003EF650B70BFE8FAE9FB8065
:10284400047A007B00802774F41216CF7900EAA280
:10285400E0501B75085A75098178081218E27C0447
:102864007D007AB87B0D1207B974021216757F04C5
:102874000217A1C082C0839002EC1228AA601C88AF
:10288400828983A3A3E06A7003A3E06B88828983AF
:1028940070E8A3A3A3A312334280047A007B00D080
:1028A40083D08202011F123DF9E8492274EE121608
:1028B400CF74FC12165FEAFEEBFF8518828519833C
:1028C400E4F0A3F0EE2402123594EE2405122AC596
:1028D400EE2404F50EEF122EAAE024FE603924FC47
:1028E400604624FE605224FE605E24FE70030229CA
:1028F400CA24FE7003022A4224FE7003022A5124D1
:10290400FE7003022A6024FC7003022A6F24FE7006
:1029140003022A7E022ABB9003057417F0A3E41273
:102924002ADF12045F022ABB851882851983AC82D0
:10293400AD831207DD022A8B851882851983AC8248
:10294400AD831207E3022A8B850C08850D097402F6
:102954001216ABAC82AD838508828509831233429B
:102964001207058A0C8B0DAC0CAD0DEC4D6042E4E6
:10297400F50CF50D780C1218E2750C05750D03783D
:102984000C1218E2750C06750D03780C1218E2741B
:10299400081216AB1218F9791612333C12081F7478
:1029A40008121675E9F50C700B123338120477808F
:1029B4000F750C01850882850983122ACD1235B062
:1029C400850C08022A8E74021216ABAC82AD838584
:1029D4000C82850D831233421207058A108B11ACC9
:1029E40010AD11EC4D6043850C82850D83A3A312B9
:1029F40018F975100575110378101218E275100690
:102A040075110378101218E274081216AB1218F933
:102A1400791612333C12081F7408121675E9F50969
:102A2400700B12333812047D800F750901850C82F6
:102A3400850D83122ACD1235B0850908804C85187E
:102A440082851983AC82AD831207E9803A851882A6
:102A5400851983AC82AD831207EF802B851882859C
:102A64001983AC82AD831207F5801C851882851901
:102A740083AC82AD831207FB800D85188285198390
:102A8400AC82AD83120801E9F508E50860298E825D
:102A94008F83A3E06414601F850E82850F83E0900A
:102AA4000305122AD7123DF59003061235B0E50846
:102AB400A3122ADF120459EEFAEFFB120783023441
:102AC4009CF50CEF3400F50D22123DF98518828532
:102AD400198322F085188285198322F07C057D03F1
:102AE400850A82850B831233462274EE1216CF7444
:102AF400FC12165F8A0A8B0B8C0E8D0FEA2405F5E7
:102B040008EB3400F5097C157D0079007A057B0318
:102B1400120FB7E5082402F50CE509122AC8851836
:102B24008285198385821085831178101218E285B5
:102B34000882850983A3A3A3A3122FF21218E2E546
:102B4400082405F510E5093400F51178101218E28F
:102B5400850C82850D8312334C1206FF74061216FF
:102B6400758A108B11AE10AF11E50A2402F50AE53F
:102B74000B123597EE4F7003022CB48017740212B7
:102B840016AB12334288828983EAF0A3EBF09003F8
:102B940005E004F0900305E0C394054003022CB45F
:102BA400E4F510F51178101218E27510EE751102A3
:102BB40078101218E27510EF75110278101218E2ED
:102BC40074061216AB1218F97910EEFCEFFD1233ED
:102BD4003C12081F7408121675E9705E8508828518
:102BE4000983A3A3A3A3A3A3A3E0F89002EEE06840
:102BF4007048122FF21218E27CEF7D02E5082408D7
:102C0400FAE5093400FB120FB17402121675E9607B
:102C1400298E828F83A3A3A3A3123342900305E0DA
:102C2400F5107402781012164C74062510F582748F
:102C3400033511F583EAF0A3EBF074021216AB85A9
:102C4400821085831178101218E274021216AB12E6
:102C540018F9850C82850D83123E0A12070B740441
:102C64001216758A108B11AE10AF11900305E0F5A2
:102C7400107511007402781012164C74052510F8A2
:102C840074033511F988828983A31227E070030243
:102C94002B78E82403F8E93400F9EE4F6003022BA3
:102CA400818882898374FFF0A3F0900305E004F027
:102CB400900305E0600A12333812046B7900800B2C
:102CC4008508828509831235A7790A02349C74EA3F
:102CD4001216CF74FE12165F8C128D13EA2405F5BA
:102CE4000CEB123F74122752750800750900EA2490
:102CF40002F510EB3400F51185188285198385825D
:102D04000A85830B780A1218E2850C82850D83A349
:102D1400A3A3A3122EB41218E2E50C2405F50AE5C8
:102D24000D123597780A1218E2850C82850D8312EC
:102D34003E081206FF74061216758A0A8B0BEA45C2
:102D44000B7003022E65EA2404F50EEB122EAA1270
:102D540027528A828B83A3A3A3E0F985108285116D
:102D6400831233421206EDE9F5096003022E65E48D
:102D7400F514F51578141218E27514EE7515027829
:102D8400141218E27514EF75150278141218E2740F
:102D9400061216AB1218F97913AC0AAD0B85108222
:102DA40085118312334212081F7408121675E9F54F
:102DB400096003022E659002EEE0F8E5087009E070
:102DC4002402900306F08017900306E0FCE8240236
:102DD400FAE43400FBEA6C7001EB6003022E6985AF
:102DE4000882AA82122FE99414122FE15073850EDF
:102DF40082850F83E0C0E074072A122EA1D0E0F090
:102E04000508850E82850F83A3E0C0E085080A7457
:102E140007250A122EA1D0E0F005089002EE122E2A
:102E2400B41218E27CEF7D0285080A7407250AFAB9
:102E340074033400FB120F9F74021216759002EE95
:102E4400E02508F50874FF6E700374FF6F6012EEDE
:102E540024010EEF3400FFE508C394145003022C40
:102E6400FCE508601312322D85108285118312331C
:102E74004212047179008014E509700375090A850A
:102E84001282851383EEF0A3EFF0A90974021216DF
:102E9400757F0E0217A185080C7407250CF5827442
:102EA400033400F583223400F50F850E82F5832266
:102EB400123B372274EE1216CF74FE12165F8C0E7C
:102EC4008D0FEA2405F50CEB122AC8750B0090034C
:102ED40005E4F0F50AEA2402F508EB3400F509806C
:102EE40049900305E0FA9002EEE0F8122FE99417F6
:102EF400122FE1400D900305E0F87416C398900278
:102F0400EEF0122FF21218E27CEF7D0274062AFA18
:102F140074033400FB120F9F74021216759002EEB4
:102F2400E0F8900305E028F0050AE50C2416F58284
:102F3400E50D122EA5E0F8E50AC3984003022FCA56
:102F4400900305E0C39416507DE50AC333F8E433D7
:102F5400F9E50C28FEE50D39FF851882851983AC47
:102F640082AD838E828F831233421207058A108BBF
:102F740011AC10AD11EC4D7005750B018043E4F5F7
:102F840010F51178101218E27510EE751102781010
:102F94001218E27510EF75110278101218E2740617
:102FA4001216AB1218F97916850882850983123333
:102FB4004212081F7408121675E9F50B7003022EED
:102FC400E51235A380107C057D038508828509837D
:102FD400123342120483A90B740202349EE9940052
:102FE400C365D03322EA28F8E43400F9E822E0F596
:102FF4001075110078102274EA1216CF74FC1216A0
:103004005F8A0C8B0D8C128D13EA2405F50AEB12E2
:103014003597750800750900E50A2402F510E50BDB
:103024003400F51174021216AB85820E85830F7875
:103034000E1218E2850A82850B83A3A3A3A3123A76
:10304400E31218E2E50A2405F50EE50B3400F50F4A
:10305400780E1218E285108285118312359D123381
:103064003C1206FF74061216758A0E8B0FAE0EAF55
:103074000FE50C2402F50EE50D3400F50F804088B1
:1030840082898374FFF00508122E9A74FFF00508F4
:103094009002EEE0F50C750D00780C1218E27CEF4E
:1030A4007D0285080C7407250CFA74033400FB12A6
:1030B4000F9F74021216759002EEE02508F508EED3
:1030C4004F60718E828F83A3A3A3E0F9850E82855E
:1030D4000F831233421206EDE9F509EE2404122A95
:1030E400C5E97044E4F514F51578141218E2751462
:1030F400EE75150278141218E27514EF751502783E
:10310400141218E274081216AB1218F97911EEFCB5
:10311400EFFD850E82850F8312334212081F740857
:10312400121675E9F5096027850C82850D83123224
:10313400231235B0E508700302320912322D850ED0
:1031440082850F83123342120489790002321E856C
:103154000882AA82EA9002EE7009E0240490030631
:10316400F08022E0F8900306E0F514E82404FCE47F
:103174003400FDEC65147001ED70C0122FE9941257
:10318400122FE150B6850C82850D83E0C0E07407F0
:103194002A122EA1D0E0F00508850C82850D83A3A8
:1031A400E0C0E0122E9AD0E012323F85820C858373
:1031B4000D780C1218E274041216AB1218F985106B
:1031C40082851183123E0A12070B74041216758A43
:1031D4000C8B0DAE0CAF0D85080C7407250CF87420
:1031E400033400F9EE4F7003023083851882851989
:1031F40083E08882898312323FA3E0C0E0122E9AD2
:10320400D0E0023091E509700375090A850A8285C8
:103214000B831232231235B0A9097404022E9212C0
:103224003DF985128285138322900306E0F5F0E5CB
:103234000884900305F07C057D0322F005088518B9
:10324400828519832274EC1216CF74FE12165F8ADB
:10325400088B098C0E8D0FEA2405FEEB3400FF85E4
:103264001882851983AC82AD838E828F8312334298
:103274001207058A0A8B0BEE2418122AC5EA450B9D
:1032840070030233131234855032851882851983F2
:103294001233421208138A108B11EA4511606B79BC
:1032A40012AC0AAD0B85088285098312334285105E
:1032B400828511831216CDE9F50A7058E4F50AF5F2
:1032C4000B780A1218E28E828F83A3A3E0F50A78A2
:1032D4000A1218E2EE2403123594780A1218E28EC8
:1032E400828F8312334C1208257406121675E9F581
:1032F4000A7021850C82850D83E0701F8508828504
:10330400098312334212048F8011750A0E800975E5
:103314000A018004E50A60031235A3850C82850D39
:1033240083E0600479008002A90A74021216757F92
:103334000C0217A17C057D03850A82850B83123359
:103344004622E0FAA3E0FB22E0FCA3E0FD8508822C
:103354008509831233462274EE1216CF74FE1216B8
:103364005F8A088B098C0C8D0DEA2405FEEB340072
:10337400FF750E00851882851983AC82AD838E8219
:103384008F831233421207058A0A8B0BEA450B70AE
:1033940003023471123485503585188285198312DD
:1033A40033421208138A0E8B0FEA450F605E7912BE
:1033B400AC0AAD0B850882850983123342850E82DF
:1033C400850F831216CDE9F50E6003023474850867
:1033D4008285098312368BAA0AFB1208078A108B8E
:1033E40011A810A911E849701E7AFF7BFF12080783
:1033F4008A108B11A810A911E849606C888289830E
:10340400E50AF0A3E50BF0750A008007750E0E803F
:103414005F050A9002EBE0FAE50AC39A504AE50A0E
:1034240075F017A4FAABF088828983A3A3E02AFA83
:10343400A3E03BFB8A828B8312359DEC4D70D275E1
:103444000A17750B00780A1218E2EEFCEFFD120F52
:103454009F7402121675EEFCEFFD850882850983C0
:103464001233421204958014750E098003750E01FF
:10347400123DF1850C82850D831235B0A90E022F01
:10348400DCE5082402F508E5093400F5098A828B95
:1034940083A3A3A3E0A2E52274041216757F0A0293
:1034A40017A174EC1216CF8C108D11EA2405F50CBB
:1034B400EB122AC8750F00EA2402F50AEB123597BD
:1034C400850A82F5831233421208078A088B09EAB7
:1034D40045097003023589750E008071850C82855B
:1034E4000D83E06401704F8E828F83A3A31218F9B9
:1034F4008E828F83A3A3A3A3E0F512751300781221
:103504001218E2EE2405F512EF3400F513781212C6
:1035140018E212333C1208257406121675E9F50FE9
:103524006014850C82850D83E4F0123DF1851082D0
:103534008511831235B07C177D007900EEFAEFFB1C
:10354400120FB78E828F83E4F0A3F0050E9002EB86
:10355400E0F8E50EC398501EE50E75F017A4F8A91F
:10356400F0850882850983A3A3123F7E12359DEC62
:103574004D60030234E085088285098374FFF0A35B
:10358400F0E50F700612333C12049BA90F0233338B
:10359400F50AEF3400F50B22A3E0FCA3E0FD228E34
:1035A400828F83123DF9850E82850F83E8F0A3E9AB
:1035B400F022C082C0839002E7E06A7003A3E06B4C
:1035C40070067AE77B0280047A007B000228A3C09D
:1035D40082C08378008C828D83E06A7003A3E06BE1
:1035E4007010E875F003A4F8A9F0EC28FAED39FBA3
:1035F4008015088C828D83A3A3A3E06A7003A3E0E3
:103604006B60DF7A007B000228A374F61216CF12D7
:1036140007D18A828B83E582458370067A007B001A
:103624008007A3A3A3A3123342023CA274F212168E
:10363400CFE9FE740E1216AB12368B74101216AB51
:10364400123B038C828D83E064027036A3123DFF2B
:10365400F50CA3E0F9A80C7402687003742969706E
:1036640021750C02750D00780C1218E278081218F6
:10367400E2780A1218E2EEF9120849740612167575
:1036840080027901023D26E0F50AA3E0F50B2274DD
:10369400E81216CF74FB12165FE985188285198328
:1036A400F08A168B17ECFEEDFF751000741D1216D0
:1036B400AB123DF5741D1216AB1235B08E828F839A
:1036C400A3A3A3E0A2E4502D741D1216AB1233423F
:1036D4001208138A828B83E58245837003023AD4ED
:1036E400790AEEFCEFFDAA16AB171216CDE9F51018
:1036F4006003023AD7741F1216AB123B03742112F3
:1037040016AB12368B74231216ABE0F50EA3E0F55C
:103714000F8E828F83E064026003023A82A3123D1B
:10372400F5850882850983A3858212858313EE2497
:1037340006122AC588828983E0FAA3E0F9EA240004
:10374400F514E439F515781412196C0100002801F8
:10375400287737070002283C380328A93700297343
:103764003901299E3902293F390329733904291D56
:103774003A823AE50E450F6003023A7D850C828554
:103784000D83123AF8FAE9FB8A828B83E0850A8278
:10379400850B83123B2E1218E28A828B83A3E0FCF2
:1037A400A3E0023A07E50E450F6003023A7D850A5D
:1037B40082850B837401F0123B0B85088285098393
:1037C400F07C007D008E828F83A3A3A3A3E0240159
:1037D400FAA3E03400FB120705EA4B60418A828BAE
:1037E40083E02402F8850A82850B83E028F0EA242A
:1037F40004F8EB3400F988828983E085128285130A
:1038040083123B40123B2E1218E28A828B831235BC
:103814009CE5082403FAE5093400FB023A0C850A06
:1038240082850B83E02404F07C047D007900AA12D5
:10383400AB13120FB7023AD7E50E450F6003023AF5
:103844007D123B0BFEA3E0FF850A82850B83740483
:10385400F0EE850882850983F0EF85128285138353
:10386400F074031216ABAC82AD83EEFAEFFB1207D1
:10387400058A0C8B0DEA450D70030239208A828B70
:1038840083A3A312274E74011216AB85820E85837F
:103894000F780E1218E274051216AB1218F97CFF99
:1038A4007DFF12070B74041216758B0FEA450F7017
:1038B40033850C82850D83123AE31218E2850C825B
:1038C400850D83A31218F97C027D007AC87B8112CE
:1038D40005377404121675E9700A74011216AB7474
:1038E400FFF0A3F08E828F83E064027039750C02BE
:1038F400750D00780C1218E28E828F8312359CE5C8
:10390400082404FAE5093400FB120F9F740212160E
:1039140075850A82850B83E02402800974011216DE
:10392400ABEEF0A3EFF074011216AB123AF4F0749C
:10393400011216ABA3123AEC023A77E50E450F607A
:1039440003023A7D850C82850D8312359DAA16AB40
:103954001712083D850A82850B837402F0EA8508F4
:1039640082850983F0851282851383EB023A7AE516
:103974000E450F6003023A7D123B0BF8A3E0F98574
:103984000A82850B837402F0E8850882850983F036
:10399400E9851282851383023A7A850C82850D8328
:1039A400123342120F99EAFC8C82A882C3950EE46A
:1039B400950F405FE8650E7002E50F70047C00808F
:1039C40022851882851983E0FAE50E2AFAE50F3478
:1039D40000FBC3EA98EB94005003E08005E50ECCAD
:1039E400C39CFCEC850A82850B83F08C0A750B0062
:1039F400780A1218E2850C82850D83E0250EFCA35B
:103A0400E0350FFDAA08AB09120F9F740212167558
:103A1400023AD7751007023AD7E50E450F705A855A
:103A24000C82850D83123DF5850A82850B8374070C
:103A340012275A123AEC12275AA3E08512828513F0
:103A440083F0E82402FAE93400FB8A828B83123A79
:103A5400EC123B1B123AF4A3123B24123AFDF0E899
:103A64002405F8E93400F988828983123AFDA31207
:103A74003B40A3A3A3A3F0805A75100B8055741D7B
:103A84001216AB1233421207D18A828B83E5824528
:103A940083603D123DF5880C890DE8450D60317851
:103AA4000E1218E2780A1218E278081218E2740664
:103AB4001216ABE0F9EEFCEFFDAA16AB17850C82EB
:103AC400850D831216CD7406121675E9F510800360
:103AD40075100EA91074051216757F100217A1E057
:103AE400F50E750F00780E22E08508828509832281
:103AF400123B4A22123DF9E822123B4AA3A322E0D8
:103B0400F508A3E0F50922850C82850D83E0F8A36E
:103B1400E0F5838882E022A3A3F08A828B83A32228
:103B2400F088828983A3A3A3A322F08A828B8312C1
:103B34003B3722E0F50A750B00780A22F088828967
:103B440083A3123B4A22E0850882850983A3A3222A
:103B540074EE1216CF74FE12165F8A0A8B0BECFAFF
:103B6400EDFB74141216ABE0F510A3E0F511741616
:103B74001216ABE0FE74181216ABE0F50EA3E0F5D6
:103B84000F851882851983AC82AD831207058A0CD0
:103B94008B0DEA450D6049851882851983123342DD
:103BA4001207D18A828B83E5824583602FA3A312F7
:103BB4003B03E50845096024780E1218E2781012D8
:103BC40018E2EEF9AC0CAD0DAA0AAB0B85088285A0
:103BD40009831216CD74041216758006790E8002BC
:103BE4007901022FDC74F61216CF74FE12165F747C
:103BF4000C1216AB123AF8851882851983F07401F9
:103C04001216ABE9F0E4F508F50978081218E27524
:103C1400080278081218E274041216AB858208852B
:103C2400830978081218E2120825740612167574AE
:103C340002121675806874F71216CFEAFEEBFF893C
:103C4400087C1E7D0312083DEA5402600BA908EEAD
:103C5400FAEFFB1206F98002790102265674F61275
:103C640016CF74FF6A700374FF6B70168C828D8399
:103C7400123CA7E4F08C828D83A3A3A3123CA7A3D8
:103C8400801812080D8A088B09A808A909E8496058
:103C94000D8882898374FF122758A3A3E4F07F025E
:103CA4000217A174FFF0A3F08C828D83A3A3227466
:103CB400F61216CF12080D8A828B83E58245836043
:103CC40006A3A3E0FA80027A007B0080D174F2128A
:103CD40016CF8A088B09ECFEEDFF740E1216ABE0CA
:103CE400F50A12080D8A0C8B0DA80CA90DE8497071
:103CF40026EEFCEFFD7AFF7BFF12080D8A0C8B0D7C
:103D0400A80CA90DE849700479118016888289836A
:103D1400E508F0A3E509F088828983A3A3E50AF006
:103D240079007F060217A174EE1216CFEAFEEBFFAC
:103D34008C088D09890C74141216AB123DF5741697
:103D44001216AB123342750D00E8496003023DE9D7
:103D54007402650C6003023DE474121216AB123D4A
:103D6400FFFCA3E0F9EC2400F50EE439F50FEAF4C6
:103D7400F8EBF4F9EC58F8E50F59F9E849705CE50B
:103D8400082406F8ED3400F9880A890B8882F58343
:103D9400123E0A12083D8A108B11E50E651070045C
:103DA400E50F65116042780E1218E2850A82850BD0
:103DB40083123E0A1208437402121675E9F50D7057
:103DC40027780E1218E2850882850983A3A3123E80
:103DD4000812085B7402121675800D750D80800838
:103DE400750D0D8003750D0BA90D0234A18E828F04
:103DF40083123DF922E0F8A3E0F922123DF988820A
:103E04008983E022A3A3E0FCA3E0FDEEFAEFFB220A
:103E140074E81216CF74E712165F85188285198329
:103E2400EAF0A3EBF08C168D17890E75080075095E
:103E34000074311216ABE0F512A3E0F513743312DB
:103E440016ABE0F514A3E0F51574351216ABE0F5E6
:103E54000FE50975F003A4F8A9F085188285198384
:103E6400123F7EE0F47003A3E0F47003023F61EEBE
:103E74002402F50CEF123F74E07003023F618516D3
:103E84000A85170B780A1218E2AC14AD15AA12AB06
:103E9400131207C574021216758A0A8B0BEA450BB6
:103EA4007003023F61E4F510F51178101218E27402
:103EB400061216AB85821085831178101218E274ED
:103EC400091216AB85821085831178101218E285C9
:103ED4001282851383A3A3A3A31218F97914AC0A3D
:103EE400AD0B8E828F8312334212081F7408121690
:103EF40075E97069850A82850B83A3A3A3A3123D88
:103F0400F574021216AB1235B0850C82850D83E070
:103F1400A2E05018A90E74021216ABAC82AD838EC7
:103F2400828F8312334212071DE94208850C828571
:103F34000D83E0A2E15026E50FF50A780A1218E68F
:103F4400A90E74031216ABAC82AD838E828F8312DA
:103F540033421207177401121675E942080509E580
:103F640009C394025003023E55A9087419023ADBAE
:103F74003400F50D850C82F58322E028FEA3E03998
:103F8400FF8E828F832274F21216CFEAFEEBFF8932
:103F94000B7401650B600E7402650B706A79011273
:103FA4000A29E97062EEFAEFFB1208078A088B0906
:103FB400EA45096047750A00800B7C177D0079008B
:103FC400120FB7050A9002EBE0F8E50AC3985021F6
:103FD400E50A75F017A4F8A9F0850882850983A37A
:103FE400A3E028FAA3E039FB8A828B831228AA7003
:103FF400C985088285098374FFF0A3F07C1E7D03C4
:10400400EEFAEFFB120837023D2674F21216CF8A3D
:10401400088B09ECFEEDFF740E1216AB12368B9072
:104024000DB6E0F4603D7A097B00120FC3EA4B60E1
:10403400328A828B8374B1F0A3E4123B1DA3123B3A
:104044001BA3E508F0A3E50912406AEEF0A3EF1202
:10405400406AA3A3E50AF0A3E50BF0900DB6E0F9DE
:10406400120FCF023D26F08A828B83A3A3A3A3A3BE
:104074002274F01216CF74D712165FE9C0E08518C7
:1040840082851983D0E0F074011216ABEAF0A3EB39
:10409400F08C0E8D0F90816074031216C574061295
:1040A400157274031216C574011216ABE0FAA3E07C
:1040B400FB851882851983E0F91210BFE9FEEEC36F
:1040C400940A4003024202EEF91210F5E9FF900E41
:1040D400A2E064027004740180027400F508780898
:1040E4001218E6743A1216ABE0FDEFFCEEF9AA0ED4
:1040F400AB0F12116774011216757C147D007900E0
:1041040074151216BD120FB78A088B0985080A8523
:10411400090B74151216C57A1075F006EEA4242442
:10412400F91212BDE9703B7C1079FF74151216BDAB
:10413400121017E9702C74251216ABAC82AD837A79
:104144000475F006EEA42425F91212BDE9F50874ED
:10415400151216C5EFA2E0E433F9AA0EAB0F12054F
:10416400CDE974091216C57A0C74702EF91212BDB9
:10417400E9707974091216BD1210E9750800E50892
:10418400C394045067E508F87900E875F003A4C8FF
:10419400AAF075F000A42AFA75F003E9A42AF974C8
:1041A400091216ABE58228F50CE58339F50D850C6B
:1041B40082850D83E0F8A3E0F9E849602B850C8241
:1041C400850D83A3A3E0F50A750B00780A1218E2A3
:1041D400850C82850D83E0FCA3E0FDAA0EAB0F12D3
:1041E400082B7402121675E905088092EFA2E150BB
:1041F4000D90076AE0F9AA0EAB0F120831E9743981
:104204001216ABE06404700F900EA2E06402700713
:10421400AA0EAB0F121161790074291216757F086A
:104224000217A174F21216CF890B8A088B09ECFECF
:10423400EDFF750A0AE50B600B1460081460411465
:10424400605F807CAA08AB09121107E9F50AE50A48
:10425400C3940A506BEE4F6067750C06750D0078B9
:104264000C1218E2AC08AD09EEFAEFFB120F9F74C2
:10427400021216758A0C8B0D850C82850D83804085
:10428400AA08AB09121101E9F50AE50AC3940A5018
:104294002FEE4F602BEEFAEFFBA90A1210FBE98018
:1042A4001FAA08AB0912110DE9F50AE50AC3940A1D
:1042B400500EEE4F600AEEFAEFFBA90A1210FBE96A
:1042C400A90A7F060217A174F21216CF8A0C8B0D6D
:1042D400E9FF7E1574FF650C700474FF650D702A88
:1042E400750800E508C3940A5014EFFC7A027B00B9
:1042F400A9081210D7E960027E00050880E5EF6086
:10430400627A4F7B11120A3B8059AA0CAB0D120A38
:104314001D8A088B0985080A85090BE50A450B6087
:10432400407C007D00E50A2405FAE4350BFB850A90
:1043340082850B83A3A3A3A3E0F91210BFE9F508B8
:10434400E508C3940A500EEFFC7A027B00A9081218
:1043540010D7E97E00EF600BAA0AAB0B12114F8055
:10436400027E14EEF97F060217A174F01216CF74C0
:10437400FE12165F851882851983EAF0A3EBF08C90
:104384000A8D0B74121216ABE0F50EA3E0F50F7E46
:1043940015851882851983E064FF7004A3E064FF27
:1043A400701D7F00EFC3940A506BAC0EAD0FAA0AC8
:1043B400AB0BEFF91210DDE960027E000F80E5859A
:1043C4001882851983E0FAA3E0FB120A1D8A0C8B7C
:1043D4000D850C08850D09E508450960367C007DCE
:1043E40000E5082405FAE43509FB8508828509837C
:1043F400A3A3A3A3E0F91210BFE9FFEFC3940A50EB
:1044040014AC0EAD0FAA0AAB0BEFF91210DDE97E66
:104414000080027E14EEF974021216757F080217EA
:10442400A174F21216CF74EC12165F8A0A8B0B85F4
:104434000A82850B83A3A3E024FA7003024869244B
:10444400FD70030246E11470030245151460102444
:10445400FD70030246891470030247240248D7AE54
:104464000AAF0B900784E0F8A3E0F9E8496066908E
:104474000784E0F8A3E0F5838882E0F8A3E0F9E894
:10448400496052EE240CF582E43FF583E0F50878A8
:10449400081218E6EE240BF582E43FF583E0F98E6A
:1044A400828F83A3A3A3A3A3A3A3A3A3E0FCA3E05A
:1044B400FDEE2403FAE43FFB900784E0F8A3E0F563
:1044C400838882E0F8A3E0F58388821216CD740114
:1044D40012167580398E828F83A3A3A3A3A3A3A3EB
:1044E400A3A31218F99007801215351205DF740280
:1044F400121675E9601879018E828F83A3A3A3A392
:10450400A3A3A3A3A3E0FAA3E0FB1205D9E90248FD
:10451400D7AE0AAF0B8E828F83A3E06003024637C7
:104524008E828F83A3A3A3A3A3E0A2E04003024649
:104534003790081EE0F8A3E0F9E849600302463723
:104544007C0E7D007900AA18AB19120FB78A088B6C
:1045540009AA08AB09EE240CF582E43FF583E0F8E0
:10456400A3E0F9E849603675080675090078081271
:1045740018E2EE240CF582E43FF583E02410FCA35A
:10458400E03400FD74021216BD120F9F740212165D
:10459400758A088B09850882850983804F8E828FEE
:1045A40083A3A3A3E0FAA3E0FB120A1D8A0C8B0DDC
:1045B400850C08850D09E5084509602D750C0675FF
:1045C4000D00780C1218E2E5082405FCE43509FD19
:1045D40074021216BD120F9F74021216758A0C8B88
:1045E4000D850C82850D8380030248D78E828F83CC
:1045F400A3A3A3A3A3E0A2E25004D2F08002C2F0DA
:10460400A2F0E433F87900740C1216ABE048F0A37E
:10461400E049F0EEFCEFFDAA18AB191210EFE970B7
:10462400127A027B0090076AE0F9120FF3E979002D
:104634000248D9900784E0F8A3E0F9E84960439080
:104644000784E0F8A3E0F5838882A3A3E0F8A3E05D
:10465400F9E849602D8E828F83A3E0FC79018E8274
:104664008F83A3A3A3E0FAA3E0FB900784E0F8A35D
:10467400E0F5838882A3A3E0F8A3E0F5838882129F
:1046840016CD0248D7AE0AAF0B900784E0F8A3E03A
:10469400F9E8496045900784E0F8A3E0F58388824F
:1046A400A3A3E0F8A3E0F9E849602F850A82850B0B
:1046B40083A3E0FC79028E828F83A3A3A3E0FAA3F1
:1046C400E0FB900784E0F8A3E0F5838882A3A3E0ED
:1046D400F8A3E0F58388821216CD0248D7850A082C
:1046E400850B097C007D00E5082404FAE43509FB08
:1046F400850882850983A3A3A3E0F91210BFE9FE0C
:10470400EEC3940A5017E508240AFCE43509FD7A3F
:104714000475F006EEA42425F91212B7E90248D76D
:10472400AE0AAF0B90077FE06018900EA3E0F98EFD
:10473400828F83A3A3A3E0FAA3E0FB1205D9E902C5
:1047440048D7900EA2E0701579058E828F83A3A3BB
:10475400A3E0FAA3E0FB1205D9E90248D78E828FC1
:1047640083A3A3A3E0FAA3E0FB120A1D8A0C8B0D1A
:10477400850C08850D098E828F83A3A3A3A3A3A30D
:10478400A3E0A2E05071E5084509606885088285C8
:104794000983A3A3A3A3E0605E8E828F83A3A3A354
:1047A400A3A3A3A3A3A3E0F8A3E0F9E8C4540FF8D8
:1047B4007900E85401F8E95400F9E8A2E0403874BB
:1047C4000E1216C5E5082405FAE43509FB850882AE
:1047D400850983A3A3A3A3E0F91210BFE970187994
:1047E400038E828F83A3A3A3E0FAA3E0FB1205D96F
:1047F400E90248D70248D7EE2405FCE43FFD8508CA
:1048040082850983A3A3A3A3E0F98E828F83A3A344
:10481400A3E0FAA3E0FB12115B900784E0F8A3E0A5
:10482400F9E849603E900784E0F8A3E0F5838882C4
:10483400A3A3E0F8A3E0F9E84960287C0079008E9E
:10484400828F83A3A3A3E0FAA3E0FB900784E0F89C
:10485400A3E0F5838882A3A3E0F8A3E0F58388822C
:104864001216CD806E1206A5E97068900813E064F4
:1048740001701A121125E9FE9008137400F07C0AE5
:104884007D0079007A147B08120FB7803C7E00EE1D
:10489400C3940A50348E0875090074142508F582EF
:1048A40074083509F583E06401701BEEF912112BCD
:1048B400E9F88E0875090074142508F58274083522
:1048C40009F5837400F00E80C679501212C3E9FE14
:1048D400121113790174141216757F060217A1744C
:1048E400F31216CF74F212165F8908EAFEEBFF8CFE
:1048F40009AC18AD197A0E75F006E508A42420F960
:104904001212BDE970647C0679FFAA18AB19121063
:1049140017E97056740C1216ABE0F8A3E0F9E8F549
:104924000CE5096005EE420C8004EEF4520C850C93
:104934000A750B00740C1216ABE0650A7004A3E050
:10494400650B6022E50CF87900740C1216ABE8F0E4
:10495400A3E9F0AC18AD197A0E75F006E508A424A5
:1049640020F91212B7E9790180027900740E121647
:10497400757F050217A174F01216CF74E612165F44
:1049840089098A0E8B0FECFEEDFF740C1216C57AA2
:104994000E75F006E509A42420F91212BDE960039E
:1049A400024AAA7C0679FF740C1216BD121017E98C
:1049B4006003024AAAAC18AD197A0C74702509F97F
:1049C4001212BDE96003024AA6750800AA18AB19C1
:1049D4001210E9E50E450F702E7C0C7900AA18AB75
:1049E40019121017E96003024A8C7C0C7D007900CF
:1049F400AA18AB19120FB78A0A8B0B850A82850B8A
:104A040083750801024A8CAC18AD19AA0EAB0F12BB
:104A140010E38A0C8B0D850C0A850D0BE50A450BFA
:104A24007030EE4F601BAC18AD197A007B00121089
:104A3400E38A0C8B0DA80CA90D880A890BE8497030
:104A44000479008063850A82850B83E50EF0A3E573
:104A54000FF0850A82850B83A3A3E0F87900EE6842
:104A64007002EF696022EEC0E0850A82850B83A3A1
:104A7400A3D0E0F0EE4F700D850A82850B8374009D
:104A8400F0A37400F0750801E5086016AA18AB19C4
:104A94001210E9AC18AD197A0C74702509F91212C8
:104AA400B7E9790180027900741A1216757F080239
:104AB40017A174F71216CFEAFEEBFF7B00EBC39449
:104AC40004504EEBF87900E875F003A4C8AAF07519
:104AD400F000A42AFA75F003E9A42AF9EC28F58277
:104AE400ED39F583E06E7003A3E06F7021EBF87984
:104AF40000E875F003A4C8AAF075F000A42AFA75BA
:104B0400F003E9A42AF9EC28FAED39FB80070B80BD
:104B1400AC7A007B007F010217A174F71216CF7FD5
:104B240000EFC394044003024BCDEFF87900E8751D
:104B3400F003A4C8ACF075F000A42CFC75F003E9F4
:104B4400A42CF9EA28F582EB39F583E0F4FCA3E020
:104B5400F4FDEFF87900E875F003A4C8AEF075F041
:104B640000A42EFE75F003E9A42EF9EA28F582EBE1
:104B740039F583ECF0A3EDF0EFF87900E875F00374
:104B8400A4C8ACF075F000A42CFC75F003E9A42CC7
:104B9400F9EA28F582EB39F583A3A3E0F4C0E0EF4A
:104BA400F87900E875F003A4C8ACF075F000A42C03
:104BB400FC75F003E9A42CF9EA28F582EB39F583B6
:104BC400A3A3D0E0F00F024B257F010217A174F0DC
:104BD4001216CF74F412165FEAFEEBFF8C088D09EF
:104BE40090081EE0F8A3E0F9E849702CEE4F600647
:104BF400E508450970057901024E7EEEFAEFFB12D5
:104C04001107E9900EA6F0900EA6E0C3940A40089E
:104C1400121119E9900EA6F0900EA6E0C3940A4072
:104C240003024E7C90081EE0F8A3E0F9E849600313
:104C3400024CC8EEFCEFFD7A0E75F006900EA6E06D
:104C4400A42420F91212B7E9F50B7C0C7D0079FF3E
:104C5400AA18AB19120FB78A0C8B0D850C0E850D93
:104C64000FAC18AD197A0C900EA6E02470F912124C
:104C7400B7E9F50A750C0E750D00780C1218E2EE02
:104C8400FCEFFD900EA6E0F87900E875F00EA4C8DC
:104C9400AAF075F000A42AFA75F00EE9A42AF974B2
:104CA4008628FA740739FB120F9F74021216758A4C
:104CB4000C8B0DA80CA90D90081EE508F0A3E509BE
:104CC400F0024E7890081EE0F8A3E0C82406F582AE
:104CD400C83400F583E0F8A3E0F9E849604390089C
:104CE4001EE0F8A3E0C82406F582C83400F583E08A
:104CF400FCA3E0FD7A1B75F006900EA6E0A4242127
:104D0400F91212B7E9F890081EE0F9A3E0C92406E5
:104D1400F582C93400F5837400F0A37400F0024EE8
:104D24007890081EE0F8A3E0C8240AF582C834008D
:104D3400F583E0F8A3E0F9E849604390081EE0F841
:104D4400A3E0C8240AF582C83400F583E0FCA3E09C
:104D5400FD7A1B75F006900EA6E0A42422F9121227
:104D6400B7E9F890081EE0F9A3E0C9240AF582C95E
:104D74003400F5837400F0A37400F0024E789008B8
:104D84001EE0F8A3E0C8240CF582C83400F583E0E3
:104D9400F8A3E0F9E849604390081EE0F8A3E0C8EE
:104DA400240CF582C83400F583E0FCA3E0FD7A10FE
:104DB40075F006900EA6E0A42423F91212B7E9F8C0
:104DC40090081EE0F9A3E0C9240CF582C93400F56B
:104DD400837400F0A37400F0024E7890081EE0F88B
:104DE400A3E0C82408F582C83400F583E0F8A3E002
:104DF400F9E849606F90081EE0F8A3E0C82408F5BC
:104E040082C83400F583E0FCA3E0FD7A1075F00657
:104E1400900EA6E0A42424F91212B7E9F50A90082A
:104E24001EE0F8A3E0C82408F582C83400F583E046
:104E34002410FCA3E03400FD7A0475F006900EA65D
:104E4400E0A42425F91212B7E9F890081EE0F9A3AA
:104E5400E0C92408F582C93400F5837400F0A37412
:104E640000F08010900812E0600312116D121155C9
:104E740079018006790080027901740C1216757F1D
:104E8400080217A174F71216CF74F212165FE9FE26
:104E9400AC18AD197A0E75F006EEA42420F912129E
:104EA400BDE9700E740C1216ABE0F8A3E0F9E8F952
:104EB40080027900740E1216757F010217A174F432
:104EC4001216CF74F212165F8909EAFEEBFFE509A8
:104ED400C3940A5004EE4F700479028041AC18ADBB
:104EE400197A0E75F006E509A42420F91212BDE919
:104EF400F508E5087026750A06750B00780A12187D
:104F0400E274021216C5EEFAEFFB120F9F7402123E
:104F140016758A0A8B0B850A82850B83A908740E81
:104F24001216757F040217A174F41216CFEAFEEB71
:104F3400FF750800E508C3940A5044750A06750B0A
:104F440000780A1218E2EEFCEFFDE508F87900E8B3
:104F540075F00EA4C8AAF075F000A42AFA75F00E34
:104F6400E9A42AF9748C28FA740739FB120FB17476
:104F740002121675E96004A9088006050880B5794F
:104F84000A7F040217A174F41216CFEAFEEBFF7530
:104F94000800E508C3940A5044750A06750B0078A6
:104FA4000A1218E2EEFCEFFDE508F87900E875F066
:104FB4000EA4C8AAF075F000A42AFA75F00EE9A4AC
:104FC4002AF9748628FA740739FB120FB174021295
:104FD4001675E96004A9088006050880B5790A7F7A
:104FE400040217A174F71216CF74F012165FEAFECA
:104FF400EBFF750800E508C3940A5039AC18AD19E5
:105004007A1075F006E508A42423F91212BDE9709C
:10501400207C1079FFAA18AB19121017E97012EE50
:10502400FCEFFDAA18AB191205AFE97004A90880BA
:1050340006050880C0790A74101216757F010217DC
:10504400A174F41216CF750800E508C3940A40034E
:10505400025123E508F87900E875F00EA4C8AAF017
:1050640075F000A42AFA75F00EE9A42AF9748628CA
:10507400FC740739FD7A0E75F006E508A42420F9BE
:105084001212BDE9700302511E7C067D0079FFE512
:1050940008FA7B00EA75F00EA4CAA8F075F000A423
:1050A40028F875F00EEBA428FB74862AFA74073BE3
:1050B400FB120FB78A0A8B0BAE0AAF0B7C067D007E
:1050C40079FFE508FA7B00EA75F00EA4CAA8F0752A
:1050D400F000A428F875F00EEBA428FB748C2AFACF
:1050E40074073BFB120FB78A0A8B0BAC0AAD0BE5B6
:1050F40008F87900E875F00EA4C8AAF075F000A4C9
:105104002AFA75F00EE9A42AF9749228F582740734
:1051140039F5837400F0A37400F0050802504D9033
:105124000812E0600312116D1211557F040217A1D9
:1051340074F71216CF7E00EEC3940A50327C0679BF
:10514400FFEEFA7B00EA75F00EA4CAA8F075F00031
:10515400A428F875F00EEBA428FB74862AFA7407C9
:105164003BFB121017E96004EEF980050E80C87944
:105174000A7F010217A174F71216CF7E007F00EF99
:10518400C3940A502F7C0679FFEFFA7B00EA75F08E
:105194000EA4CAA8F075F000A428F875F00EEBA4CC
:1051A40028FB74862AFA74073BFB121017E9700176
:1051B4000E0F80CBEEF97F010217A174F71216CF00
:1051C4007E007F00EFC3940A500DEE700AEFF912CF
:1051D400112BE9FE0F80EDEEF97F010217A174F0A7
:1051E4001216CF74C912165FE9FE900EA6E06E7017
:1051F4001D7A017B0090076AE0F9120FF9E97A023F
:105204007B0090076AE0F9120FF9E9121179742909
:105214001216C57A0E75F006EEA42420F91212BDFA
:10522400E960030253167C0679FF74291216BD1235
:105234001017E960030253167C0E7D0079FF742970
:105244001216BD120FB7851882851983EAF0A3EBF5
:10525400F07C1B7D0079FF740E1216BD120FB78A05
:105264000A8B0B850A0E850B0F7C0C7D0079FF746D
:10527400021216BD120FB78A0C8B0D850C0A850D10
:105284000B74291216C57A0E75F006EEA42420F9C3
:105294001212B7E9F508740E1216C57A1B75F006DA
:1052A400EEA42421F91212B7E94208740E1216C5AD
:1052B4007A1B75F006EEA42422F91212B7E942080B
:1052C400740E1216C57A1075F006EEA42423F91292
:1052D40012B7E94208740E1216C57A1075F006EE7C
:1052E400A42424F91212B7E94208740E1216C57ADE
:1052F4000475F006EEA42425F91212B7E9420874E5
:10530400021216C57A0C74702EF91212B7E942080B
:105314008003750800A90874371216757F080217F0
:10532400A174F71216CFE9FEEE90076AF01211137A
:105334007F010217A174F21216CF890AEAFEEBFF6D
:10534400EE5400F8EF5480F9E849603590076AE0BC
:10535400F9120FDB8A0C8B0DA80CA90D880889099A
:10536400E8496012AA08AB0912113DE96008AA08CD
:10537400AB09120FC9E9EE6400FAEF6480FB025432
:105384003DEE5402602D7C007D007A007B001210FB
:10539400EFE960187A017B0090076AE0F9120FF3D5
:1053A400E9EE6402FAEF6400FB02543D7A027B00EA
:1053B40002543DEEA2E0507D90081EE0F8A3E0F513
:1053C400838882A3A3A3E0FAA3E0FB121173E9602C
:1053D4005E900784E0F8A3E0F9E84960459007840B
:1053E400E0F8A3E0F5838882A3A3E0F8A3E0F9E85A
:1053F40049602F7C00790190081EE0F8A3E0F58352
:105404008882A3A3A3E0FAA3E0FB900784E0F8A3B7
:10541400E0F5838882A3A3E0F8A3E0F583888212F1
:1054240016CD121179EE6401FAEF6400FB800A7A5A
:10543400017B0080047A007B007F060217A174F7C9
:105444001216CFEAFEEBFF7508018E828F83E024EB
:1054540050601314601924E1701CEEFAEFFB121073
:10546400D1E9F5088010EEFAEFFB1211438007EE44
:10547400FAEFFB121149A9087F010217A174F71270
:1054840016CFEAFEEBFF8E828F83A3A3A3A3E0646F
:105494001E701179008E828F83A3A3E0FAA3E0FB30
:1054A4001210C5E97F010217A174F61216CF8A08FB
:1054B4008B09850882850983A3A3A3A3E07034AE76
:1054C40008AF098E828F83A3A3A3A3A3A3A3121857
:1054D400F98E828F83A3A3A3A3A3E0FCA3E0FD8E94
:1054E400828F83A3A3E0FAA3E0FB1210CB74021211
:1054F4001675E97F020217A174F71216CFEAFEEBC4
:10550400FF90076AE0F98E828F83A3E0FAA3E0FBA1
:10551400120831E97F010217A1C082C08374FF120F
:10552400165F12111FE9C39402400B851882851976
:10553400837402F08009851882851983740AF0AC9B
:1055440018AD197A0179051206BDE97401121675B0
:10555400D083D08202011F74F21216CF74E812169F
:105564005F8A088B09E9FE8C0A8D0B7C187D007913
:1055740000AA18AB19120FB78A0C8B0DAC0CAD0D29
:10558400851882851983E508F0A3E509F090076C76
:10559400E0C0E074021216ABD0E0F090076DE0C0FA
:1055A400E074031216ABD0E0F0900EA5E0C0E074F6
:1055B400171216ABD0E0F074151216ABE054FEF8D7
:1055C400A3E054FFF9900EA4E0A2E0E433FA7B00D8
:1055D400E84AF8E94BF974151216ABE8F0A3E9F0C0
:1055E400900EA4E0A2E15004D2F08002C2F074153F
:1055F4001216ABE054FDFAA3E054FFFBA2F0E4332F
:10560400F87900E828F8E933F9EA48F8EB49F9743D
:10561400151216ABE8F0A3E9F0900EA4E0A2E35053
:1056240004D2F08002C2F074151216ABE054F7FAFB
:10563400A3E054FFFBA2F0E433F50C750D007403F2
:10564400780C12164CEA450CF8EB450DF97415125A
:1056540016ABE8F0A3E9F0900EA4E0A2E45004D263
:10566400F08002C2F074151216ABE054EFFAA3E016
:1056740054FFFBA2F0E433F50C750D007404780CB0
:1056840012164CEA450CF8EB450DF974151216ABDD
:10569400E8F0A3E9F0900EA4E0A2E55004D2F08073
:1056A40002C2F074151216ABE054DFFAA3E054FF03
:1056B400FBA2F0E433F50C750D007405780C12169A
:1056C4004CEA450CF8EB450DF974151216ABE8F0ED
:1056D400A3E9F0900EA4E0A2E25004D2F08002C24A
:1056E400F074151216ABE054FBFAA3E054FFFBA2CE
:1056F400F0E433F50C750D007402780C12164CEAC4
:10570400450CF8EB450DF974151216ABE8F0A3E956
:10571400F090076DE0602A750C10750D00780C127E
:1057240018E27C6E7D0774061216ABAA82AB831254
:105734000F9F74021216758A0C8B0D850C82850DD1
:105744008390077EE06011EE600E74151216ABE0D4
:105754004402F0A3E04400F090077EE06006780184
:10576400790080047800790074141216ABE048F0D4
:1057740090076BE060067804790080047800790073
:1057840074141216ABE048F0AC0AAD0BAA18AB19AE
:105794001205D3E974181216757F060217A174F75F
:1057A4001216CFEAFEEBFF75080090077EE0600654
:1057B40078017900800478007900E8420890076B4A
:1057C400E0600678047900800478007900E84208F3
:1057D400A908EEFAEFFB12068DE97F010217A17406
:1057E400F21216CF74E312165F8A0C8B0DE9FF8C4C
:1057F4000A8D09742B1216ABE0F50874086509705C
:105804000A75F006EFA42422FE800875F006EFA4C2
:105814002421FE7C1B7D00790074021216BD120F38
:10582400B7851882851983EAF0A3EBF07402121687
:10583400C57A1BEEF91212BDE97038741C1216AB4E
:10584400E0C39407402D741C1216ABE0C3941150AE
:1058540022E508F50B780B1218E674031216C5E559
:105864000AA2E0E433F9AA0CAB0D1205E5740112A7
:105874001675E9741D1216757F060217A174F712C6
:1058840016CF1208A9E97E00EEC3940A50557C068F
:1058940079FFEEFA7B00EA75F00EA4CAA8F075F061
:1058A40000A428F875F00EEBA428FB74862AFA7479
:1058B400073BFB121017E97027EEF87900E875F042
:1058C4000EA4C8AAF075F000A42AFA75F00EE9A493
:1058D4002AF9748628FA740739FB79001208AFE9AB
:1058E4000E80A57F010217A174F61216CF74FD1263
:1058F400165FEAFEEBFF900820E0F8A3E0F9E84920
:10590400703975082275090878081218E2750802BA
:1059140075090078081218E27508CE7509817808AF
:105924001218E27CFF7DFF7A017B001206FF7406E9
:10593400121675900820EAF0A3EBF0900820E0F826
:10594400A3E0F9E8497003025A09E4F508F5097877
:10595400081218E274041216B58808890978081226
:1059640018E274041216B58808890978081218E236
:105974009008221218F97902900820E0FCA3E0FDB7
:10598400EEFAEFFB12081F7408121675E9704A85C7
:105994001882851983E0FA7B0074011216ABE0F8D3
:1059A4007900E4C8F9EA28F508EB39F509E5084572
:1059B40009602678081218E2900820E0F8A3E0F5C0
:1059C400838882A3A3A3A3E0FCA3E0FDEEFAEFFB8C
:1059D4001210CB7402121675E9E4F508F50978087B
:1059E4001218E29008221218F97CFF7DFF9008201B
:1059F400E0FAA3E0FB12070B74041216759008205A
:105A0400EAF0A3EBF0900820E0F8A3E0F9E849708D
:105A14000479018002790074031216757F0202175B
:105A2400A1C082C08390081EE0F8A3E0F9E84960B1
:105A34001790081EE0FAA3E0FB120FC9E9F89008DA
:105A44001E7400F0A37400F0900EA6740AF0D083C4
:105A5400D08202011FC082C0839061907404F0A3BD
:105A64007448F0A37402F09061807440F09061BCBB
:105A74007403F09061877419F0906265741BF09060
:105A84006249E0C3941390619C400A7409F09060E9
:105A94006674018007740DF0906066E4F090619A7A
:105AA4007433F0A37455F09061A0743AF0900544F7
:105AB400E064017009C2919003AB746780059003A0
:105AC400AB7461F090261EE493906186F0902618E2
:105AD400E493F46027E493540FF8906185E06860E0
:105AE40012E5C654804449F5C6E59E547F64497066
:105AF400F8E8F053C680E59E547F70FA7905120DDC
:105B040083025CABC082C083E5A8F853A87E906191
:105B140081E4F0A3F0A3F0C2BA539AFEC289759B44
:105B240000C2C275E90075910075BF0075A91175B1
:105B3400B905906181F0A374C0F0A3E4F0D2BA4334
