:020000040000FA
:0600000002010702212BA2
:03002B000225614A
:03003B0002258615
:030043000225395A
:0300530002219EE9
:10008300021F97E5C754F84401F5C7790122000020
:100093000080FB120086B900030200F1E4792178A5
:1000A30008B800028004F709D8FCE479297802B87B
:1000B30000028004F709D8FCE49002817835790BBB
:1000C3008002F0A3D8FCD9FA7AB57B0C900137787B
:1000D300E779038015E493A3AD82AE838A828B8391
:1000E300F0A3AA82AB838D828E83D8E9D9E7758288
:1000F3008E7583FF740112011975829175830074E3
:100103000012011975D00075813F751881751902A8
:10011300759F00020096C09FF59FE473D09F22D085
:1001230083D082C09FE493C0E0740193C0E0740263
:1001330093F59F22080964422E44657673051208DD
:10014300000800020A0002010664422E4465767329
:1001530000000000000000000000000000002F0469
:1001630000003504FF0000B40000280028002830F8
:1001730075A000A000A000A00000080008E001F0A6
:10018300001000100010001000100010005000506C
:1001930000500010001000D0070000000000000F06
:1001A3000001000500307507001000010081FF0009
:1001B300000000FF450663064B06FF020202080229
:1001C3005000A0000000E80302C681010000A981DD
:1001D30002CA810100003C0D02D081010000B80277
:1001E30002CA810100003D0D02D281010000CE024E
:1001F30002CA810100003E0D02D481010000D00239
:1002030002CA810100003F0D02D681080000D1021D
:1002130002CA81010000400D02D881010000410D96
:10022300FF0100FF2002C681010000B28102CA81E2
:10023300010000A50D02DA81000000000002CE815A
:100243000300001E032D0C2D0C2D0C2D0C2D0C2D3D
:100253000C2D0C2D0C2D0C2D0C2D0C2D0C2D0CAF51
:100263000EC70EA90EFFFF020202020202020202E1
:10027300010D000000100102C681010000B58102DA
:10028300CA81010000E80D02E0810100006207025B
:10029300CA81010000E90D02DE810100003E8102F6
:1002A300CA81010000EA0D02DC81010000308102F5
:1002B300CA81010000EB0D02C481010000BC800271
:1002C300CA81010000EC0D02C081010000AA800276
:1002D300CA81010000ED0D02BE81010000CE800243
:1002E300CA81010000EE0D02BC81010000E0800222
:1002F300CA81010000EF0D02BA81010000228102D0
:10030300CA81010000F00D02B881010000F10D0166
:10031300053F100AFF0001307503020106000000CB
:1003230000000000000000000000000000000000CA
:10033300000000000000000000FFFF0600800CE842
:10034300030202307846463031000243686172612D
:10035300637465726973746963203200084368616A
:100363007261637465726973746963203300104347
:1003730068617261637465726973746963203400C0
:10038300024368617261637465726973746963209F
:10039300350002C681010000AF8102CA810100005D
:1003A300C30E02E681010000800C02CC8101000033
:1003B300C40E02CA81010000CB0E02E881010000D5
:1003C300940C02CC81010000CC0E02CA8101000012
:1003D300DD0E02EA81020000950C02CC81010000CF
:1003E300DE0E02CA81010000EF0E02EC8100000064
:1003F300A90C02CE81030000AA0C02CC81010000EB
:10040300F00E02CA81010000010F02EE8104000018
:10041300B00C02CC81010000020F1201225FF50231
:100423001201223EF702120122C4F802120122C76E
:10043300F802120122FFF8021201224BF902120103
:1004430022E2FA0212012221B60312012238B60374
:1004530012012269B603120122A4B603120122CEAD
:10046300B603120122F8B6031201220FB7031201D9
:100473002226B7031201223DB70312012266B703F6
:1004830012012279B7031201228FB703120122A2AC
:10049300B703120122C9B70312012266BE02120179
:1004A300226ABF02120122A2BF02120122C5BF02A9
:1004B300120122D0BF02120122F3BF021201220253
:1004C300C102120122D7C10212012252C202120139
:1004D30022DAC20212012215C3021201224CC30204
:1004E300120122DAC302120122B3C402120122133F
:1004F300C5021201221EC5021201229DC50212016C
:1005030022A0C502120122A3C50212012232C60291
:1005130012012235C60212012265C6021201228F80
:10052300C6021201227DC7021201222FC802120144
:1005330022109003120122389003120122669003C5
:100543001201229D9003120122FB90031201224605
:100553009103120122919103120122D191031201FD
:1005630022179203120122459203120122029303DE
:100573001201220C93031201221993031201224C3C
:1005830093031201221894031201222494031201EB
:10059300223C940312012246940312012250BE030B
:1005A3001201225EBE0312012276BE031201228EC5
:1005B300BE03120122CEDB011201227ADC011201F9
:1005C30022F5DC0112012216DE0112012252DE01A4
:1005D300120122FBDE01120122E2DF011201224697
:1005E300E1011201229DE1011201221EE201120129
:1005F300220EE3011201225BE301120122E1E30176
:1006030012012213E40112012227E60112012269D9
:10061300E60112012287E6011201220AE701120113
:1006230022DEE701120122A6E8011201221BE802E1
:10063300120122EEE80212012297E902120122EAD4
:10064300E9021201229AEA0212012226EB021201A6
:100653002212EC0212012241EC0212012254ED0299
:100663001201229CED0212012271EE02120122AD4F
:10067300EE02120122C9EE02120122D4C1031201B9
:10068300221A990312012230990312012256990367
:10069300120122729A031201227C9A03120122B1DF
:1006A3009B03120122A99C03120122D68503120186
:1006B300220687031201223987031201228387034B
:1006C3001201224A8903120122DFCB0112012249BE
:1006D300CC01120122A8CD01120122B8CD011201D1
:1006E30022E5CD011201223CCE01120122E5CE0109
:1006F300120122ECCF01120122B6D00112012216FF
:10070300D20112012259D201120122FED201120199
:10071300224BD30112012271D3011201227FD50191
:1007230012012284D50112012289D701120122D696
:10073300D70112012249D8011201227CD8011201EA
:10074300221ED901120122C7D901120122FFD901A8
:1007530012012202DA011201224ADA011201228A6B
:10076300DA01120122E1DA0112012228AC0312019B
:100773002240AC0312012288AC031201229EAC0377
:10078300120122E5AC03120122F9AD031201228604
:10079300AE03120122D1AE031201220C2600120174
:1007A300224726001201228C26001201224C270028
:1007B300120122D2270012012237280012012263DC
:1007C30028001201229C2800120122DA2A001201B9
:1007D30022BE2C00120122A42E00120122E72F00B8
:1007E30012012235320012012247330012012292F4
:1007F3003400120122A23500120122BF350012017A
:1008030022FA35001201221C36001201227F360023
:10081300120122403B00120122D53B001201222685
:100823003C001201224D3C001201229F3C001201A8
:1008330022BD3C00120122173D00120122003E009E
:10084300120122763F00120122FA3F00120122FD1B
:100853008A03120122078B031201224A8B0312011E
:1008630022658B03120122F58B031201221D8C03D7
:100873001201225A8C03120122918C03120122BA13
:100883008C031201222F8D03120122448D031201C6
:1008930022598D031201228A8D031201229E8D0398
:1008A300120122C38D03120122FD8D03120122299D
:1008B3008E03120122618E03120122148F0312018F
:1008C300223F8F031201224A8F03120122938F03C7
:1008D300120122BD8F03120122E88F031201223776
:1008E300BD03120122039C02120122319C02120158
:1008F300227F9D021201225F9E021201227E9E022E
:10090300120122FB9E021201223E9F021201229437
:10091300A00212012255A102120122DCA30212013C
:10092300227DA40212012273A50212012270A602E3
:10093300120122CAA70212012255A8021201228023
:10094300B903120122E9B9031201223DBA031201CC
:100953002264BA0312012295BA031201225DFB023B
:10096300120122CAFB0212012211FC0212012229E6
:10097300FD0212012225FE0212012208FF021201CA
:1009830022A0C802120122E2C802120122B4C90243
:100993001201228DCA0212012287CB02120122699F
:1009A300CC02120122D2CC0212012288CD02120102
:1009B30022FCCD0212012268CE0212012291CE0244
:1009C3001201220BCF02120122A4CF02120122092B
:1009D300D0021201221ED00212012264D00212019F
:1009E300227DD002120122E2D002120122E5D002BE
:1009F30012012256A6031201227EA603120122BC73
:100A0300A6031201227AA703120122E1A70312010E
:100A130022FDA70312012225A80312012255A803D0
:100A230012012264A803120122E1A8031201220782
:100A3300A9031201227ABB0112012258BD0112013E
:100A4300228ABF01120122C6BF01120122F3BF0194
:100A5300120122DDC00112012228C10112012273F9
:100A6300C10112012285C101120122C5C101120176
:100A730022FAC10112012248C20112012277C201E6
:100A83001201229AC201120122E7C2011201226C51
:100A9300C30112012286C501120122C5C701120139
:100AA3002206C801120122A8C901120122E9C901C3
:100AB3001201225CCA01120122ADCA01120122886D
:100AC300CB01120122B3CB011201224472001201A5
:100AD30022427300120122DB7900120122FC7B0007
:100AE300120122C77D001201222F7F00120122452D
:100AF3005A00120122F45A001201223A5B00120139
:100B030022705C001201229E5C00120122345E00FE
:100B1300120122AE5E00120122C95E0012012244BC
:100B23005F001201229E6000120122FE6100120189
:100B3300220463001201226564001201227E640014
:100B4300120122DC6400120122CA6500120122FD97
:100B530065001201226D6600120122E76600120190
:100B630022316700120122FB6700120122D06800C4
:100B7300120122AF69001201223A6A00120122A86F
:100B83006A001201221C6B00120122476B00120142
:100B930022066C001201226B6D00120122886D0087
:100BA300120122A76D00120122986E00120122BDCC
:100BB3006E00120122E76E00120122626F00120121
:100BC30022BC6F00120122257100120122D3710091
:100BD3001201221472001201222F8E021201227DB1
:100BE3008E02120122898E02120122678F021201E4
:100BF30022988F02120122C98F0212012249900208
:100C0300120122819002120122D3900212012210BA
:100C130091021201222D9302120122539502120115
:100C2300223E970212012228990212012201260074
:100C33001201220197011201223197011201220AA6
:100C43009E011201228F9F011201228CA501120124
:100C53002274A601120122B1A601120122D4A60117
:100C630012012205A7011201220EA7011201221867
:100C7300A70112012206A801120122FCA8011201F8
:100C830022F28101120122F18501120122F785016D
:100C9300120122328D011201224B9201120122080C
:100CA300A00312012202A10312012276A103120161
:100CB30022B4A10312012228A203120122A1A2033A
:100CC300120122AAA203120122B6A203120122CB0D
:100CD300A20312012209A3031201221FA30312017B
:100CE30022CD9403120122DA9403120122F4940315
:100CF300120122339503120122719503120122D6A8
:100D03009503120122EB9503120122F695031201BA
:100D1300220396031201221A960312012228960334
:100D23001201223396031201223F96031201224E2F
:100D330096031201225996031201227C9603120193
:100D4300222397031201223397031201224D9703A3
:100D53001201226A9703120122869703120122AB22
:100D63009703120122B69703120122CB97031201B4
:100D730022DF9703120122409803120122469803AF
:100D83001201224C98031201225298031201226A83
:100D930098031201229D9803120122058002120179
:100DA30022898002120122388102120122978202D3
:100DB300120122B88402120122A48502120122D94F
:100DC3008502120122FB8502120122AA8602120168
:100DD30022A28802120122CB88021201225D89021B
:100DE3001201228F89021201229C8902120122F32D
:100DF3008902120122198A02120122868C0212012F
:100E030022898D02120122E18D02120122BFEA0121
:100E1300120122C9EB01120122B0EC01120122BA24
:100E2300EC01120122DCEC01120122E8EC011201B7
:100E33002281EE01120122B0EE01120122CCEF0158
:100E430012012225F0011201228BF1011201226A03
:100E5300F201120122C6F20112012233F30112013F
:100E6300226EF301120122ADF30112012266F60193
:100E730012012280F6011201220CF7011201221A3B
:100E8300F70112012273F70112012281F701120106
:100E930022F4F70112012258F801120122A2F801EB
:100EA300120122D6A802120122F8A8021201221E60
:100EB300AB0212012233AE021201224BAF02120126
:100EC30022FEAF02120122E0B002120122DBB703BD
:100ED30012012200B80312012272B803120122A1E7
:100EE300E002120122AAE002120122B3E00212017F
:100EF300228AE1021201223BE30212012271E30280
:100F0300120122ABE302120122E1E3021201221BCE
:100F1300E4021201224FE4021201227BE4021201D5
:100F230022C4E402120122FEE40212012247E50276
:100F33001201229FE502120122D4E5021201222F9F
:100F4300E60212012269E602120122BAE602120146
:100F530022F0E6021201222AE70212012258E702D6
:100F63001201227BE702120122D8BF0312012204DD
:100F7300C0031201225FC00312012269C0031201E0
:100F83002279C00312012212D90212012227D902A7
:100F930012012283D902120122EED9021201223652
:100FA300DA02120122A0DA02120122CFDA021201BE
:100FB30022DDDA021201223FDB021201227DDB0273
:100FC30012012298DB0212012233DC02120122D821
:100FD300DC021201225BDD0212012294DD02120106
:100FE300221FDE0212012276DE02120122D5DE0268
:100FF300120122E7DE021201220DDF021201221684
:10100300DF021201226AE00212012283C0031201ED
:1010130022DBBA03120122B9BB03120122A9B103D5
:10102300120122EEB10312012234B203120122FD96
:10103300B30312012258C20312012273C203120125
:101043002283C20312012209D10212012229D102F1
:101053001201229FD202120122EDD2021201220DAD
:10106300D30212012275D302120122F7D302120115
:10107300223DD402120122C9D40212012215BC035B
:1010830012012246BC0312012270BC03120122CEBC
:10109300BC031201220080031201222580031201E6
:1010A30022597F00120122614000120122134200E3
:1010B300120122B742001201225A430012012211E7
:1010C3004400120122CF4800120122664900120196
:1010D30022A24A001201220A4B00120122BE4B0037
:1010E300120122744E00120122AE4E001201221888
:1010F3004F00120122764F00120122D44F00120139
:1011030022315000120122205100120122665100A7
:10111300120122AB5100120122CE51001201221101
:1011230053001201222553001201222E54001201F2
:10113300226D5400120122995400120122E8540036
:101143001201220955001201224755001201228E75
:101153005700120122CF57001201226D58001201CD
:1011630022D85800120122115A0012012217C30378
:101173001201224FA9031201221AAC03120122DA2F
:10118300C20312012227BF0312012237BF03120138
:10119300224EBF03120122CABF031201224FA3032F
:1011A300120122F9A3031201223BA603120122F921
:1011B3007F00120122E3FF011201222BF901120128
:1011C3002228FB01120122AEFB01120122B5FC0110
:1011D30012012279FD01120122F7FD01120122DA27
:1011E300FE01120122DDFE01120122EBFE011201BA
:1011F3002208FF0112012231FF011201225AFF01CD
:1012030012012268FF0112012280FF011201222C28
:10121300C103120122A5C103120122C4C103120199
:101223002241B403120122A8B40312012253B503CD
:10123300120122C9B503120122B39C03120122E653
:101243009C03120122EC9D03120122419F03120110
:101253002204B402120122E0B40212012227B502D1
:1012630012012264B502120122D2B5021201222C0C
:10127300B6021201229CB60212012274B7021201B5
:101283002267B802120122EBB8021201228EBA02BF
:1012930012012219BB02120122A9BB02120122422E
:1012A300BC0212012259BC0212012294BD02120196
:1012B30022EABD0212012214AB01120122B8AF01CE
:1012C300120122E1AF011201220AB001120122BC74
:1012D300B0011201229AB201120122ECB3011201F0
:1012E3002233B9011201226CB901120122B0B901F2
:1012F300120122BCBA01120122FBAE031201221316
:10130300AF0312012264AF0312012267AF0312017C
:101313002252B003120122AAB00312012250B103D8
:1013230012012272B1031201223EEF021201228E38
:10133300EF02120122ABEF02120122CBF0021201E3
:101343002289F1021201220EF30212012222F50276
:10135300120122CAFF02120122F9C203E0667010D1
:1013630008A3E066700A08A3E066700408A3E066B9
:1013730022C3E7960809E7960809E7960809E7965E
:1013830022C3E09608A3E09608A3E09608A3E0969C
:1013930022C008C3E096F50808A3E096420808A314
:1013A300E096420808A3E09645087001D3D00822CE
:1013B300080808EAC0E0EBC0E086F0E7A4FA1809E1
:1013C30086F0E7A42AFA180986F0E7A42AFA18098E
:1013D30086F0E7A42AFA1986F0E7A4FBE5F02AFAD7
:1013E300190886F0E7A42BFBE5F03AFA190886F012
:1013F300E7A42BFBE5F03AFA18180986F0E7A4C531
:10140300F02BFBE43AFA1908E7C5F0C6A426F6E583
:10141300F03BFBE43AFA1886F0E7A4F6E5F0082679
:10142300F6E43B08F6E43A08F6D0E0FBD0E0FA2213
:101433006016080808C6C313C618C613C618C61311
:10144300C618C613C6D5E0EA227009080808226048
:1014530016181818C6C333C608C633C608C633C61B
:1014630008C633C6D5E0EA22E627F60809E637F6CA
:101473000809E637F60809E637F622E026F608A358
:10148300E036F608A3E036F608A3E036F622E026B7
:10149300F008A3E036F008A3E036F008A3E036F046
:1014A30022C3E697F60809E697F60809E697F608D1
:1014B30009E697F622C3E096F008A3E096F008A3A6
:1014C300E096F008A3E096F022E657F60809E657FF
:1014D300F60809E657F60809E657F622E056F60835
:1014E300A3E056F608A3E056F608A3E056F622E07A
:1014F30056F008A3E056F008A3E056F008A3E05620
:10150300F022E0F608A3E0F608A3E0F608A3E0F66D
:1015130022E6F008A3E6F008A3E6F008A3E6F0222B
:10152300E0FAA3E0FBA3E0FCA3E0FD22EAF0A3EBD7
:10153300F0A3ECF0A3EDF022E0F8A3E0F9A3E0FAC6
:10154300A3E0FB22E8F0A3E9F0A3EAF0A3EBF02287
:10155300CAC0E0E6F0A308DAFAD0E0FA22CAC0E093
:10156300E0A3C582CCC582C583CDC583F0A3C58264
:10157300CCC582C583CDC583DAE6D0E0CA22C3E4F5
:1015830098F8E499F91215C28026C3E49AFAE49B09
:10159300FBE920E7E91215C2E498F8E499F922C3BC
:1015A300E498F8E499F91215C2E498F8E499F9C3B8
:1015B300E49AFAE49BFB22EB20E7CFE920E7E0B9CA
:1015C3000010BB0008E88AF084F8AAF022E4FBC804
:1015D300FA22EB70227B10C833C8C933C9335007D2
:1015E300C39AC3DBF280069A50012ADBEAC833F4BC
:1015F300C8C933F4C9FA2275F008E4C833C8C9333B
:10160300C933C99AC99B5004C92AC93BD5F0ECFB1D
:10161300C833F4C8E4C9FA22600D08C6A2E713C6AA
:1016230018C613C6D5E0F322600C08C6C313C61848
:10163300C613C6D5E0F422700422600D18C6C33366
:10164300C608C633C6D5E0F41822251810AF08F52E
:1016530018400C15198008F51840021519D2AF224D
:1016630000C0D0251810AF08F518500C05198008D4
:10167300F51850020519D2AFD0D0222518F58210E3
:10168300AF08F518400C15198008F5184002151914
:10169300D2AF851983222518F582E43519F5832203
:1016A3002518F8E43519F9222518FAE43519FB222F
:1016B3002518FCE43519FD22E4732518C582C0E022
:1016C300E51934FFC583C0E0E518C3958224F810FB
:1016D300AF08858319858218800885831985821848
:1016E300D2AFCEF0A3E520F0A37808E608F0A3DE9E
:1016F300FAEFF0A3E58124FAF8E608F0A3E608F090
:10170300A3E608F0A30808E608F0A3E608F0A3158B
:10171300811581D0E0FED0E0F8158115811581E8AF
:10172300C0E0EEC0E0222518C582C0E0E51934FF11
:10173300C583C0E0E518C3958224F910AF088583FB
:10174300198582188008858319858218D2AFCEF057
:10175300A3E520F0A37808E608F0A3DEFAEFF0A3F0
:10176300E58124FBF8E608F0A3E608F0A30808E601
:1017730008F0A3E608F0A315811581D0E0FED0E0C0
:10178300F815811581E8C0E0EEC0E0228519838554
:101793001882E0A3FEE0A3F5207808E0A3F608DFB3
:1017A300FAE0A3FFE0A3C0E0E0A3C0E0E0A3C0E051
:1017B300E0A3C0E0E0A3C0E010AF088582188583F2
:1017C300198008858218858319D2AFD083D082020D
:1017D300011F851983851882E0A3FEE0A3F5207815
:1017E30008E0A3F608DFFAE0A3FFE0A3C0E0E0A36C
:1017F300C0E0E0A3C0E0E0A3C0E010AF088582181A
:101803008583198008858218858319D2AFD083D048
:101813008222C0D02518C582C0E0E51934FFC583F4
:10182300C0E0E518C3958224F310AF0885831985BA
:1018330082188008858319858218D2AFC8F0A3E97E
:10184300F0A3EAF0A3EBF0A37908E709F0A3D8FA31
:10185300ECF0A3EDF0A3EEF0A3EFF0A3D0E0F0A340
:10186300D0E0F0A3D0E0F0A3E520F0A3E5F0F0A3EF
:1018730022851983851882E0C0E0A3E0F9A3E0FA8A
:10188300A3E0FBA37808E0F608A3DFFAE0FCA3E0FB
:10189300FDA3E0FEA3E0FFA3E0C0E0A3E0C0E0A35C
:1018A300E0F5D0A3E0F520A3E0A3F5F010AF0885A1
:1018B30083198582188008858319858218D2AFD051
:1018C30082D083D0E0F8D0E03274048006740280C2
:1018D300027401C0E0F40412167ED0E01215532204
:1018E3007404800474028000CCC0E0EDC0E0E5180D
:1018F300C39CCCAD1950011D10AF068C188D1980F7
:10190300068C188D19D2AF121560D0E0FDD0E0FC23
:1019130022D083D082E9C0E0E493A3C386F0C5F06C
:1019230095F0F908E493A386F0C5F095F0700BE405
:1019330093A3C3994005E9048002A3E475F002A4CC
:101943002582F582E5F03583F583D0E0F9E493A3AE
:10195300C0E0E493C0E022D083D082ECC0E0EDC0CD
:10196300E0E493A3FCE493A3FDED4C600D1219A6F0
:10197300EC24FFFCED34FFFD80EFE493A3FCE49340
:10198300A3FDED4C600D1219E5EC24FFFCED34FFD3
:10199300FD80EFD0E0FDD0E0FCE493A3C0E0E4934E
:1019A300C0E022C0E0C3E493960874019396184004
:1019B3000FE4936670080874019366187000701939
:1019C300A3A3C3E49396087401939618A3A3400DAD
:1019D300D0E0D0E0D0E0021996A3A3A3A3A3A3D0A1
:1019E300E022C0E0C0F088F0E49366700808740158
:1019F3009366187000A8F0A3A3700BD0F0D0E0D0CA
:101A0300E0D0E0021996A3A3D0F0D0E02274F5123F
:101A13001729EAFEEBFFEE2434F8EF3400F98808C7
:101A23008909EE2435F582EF3400F583E0F8EE24DE
:101A330037F582EF3400F583E0F50AEC850AF0A46C
:101A4300FCAAF0850AF0EDA42AFDE82CF8E43DF9A0
:101A53007A257B001215C2EA850882850983F0F88E
:101A6300740758F97401B900028004C333D9FCFA2E
:101A7300E8131313541FF8EE28F8EF3400F9E824A1
:101A83005DF582E93400F583E05A6008EE2434F50D
:101A930082EF802CEE2434F582EF3400F583E0C02E
:101AA300E0EE2436F582EF3400F583E0F5F0D0E084
:101AB30084A8F0EE28F8EF3400F9E82438F582E939
:101AC3003400F583E0F97F040217D574F512172962
:101AD300EAFEEBFFEE2434F582EF3400F583E0C039
:101AE300E0EE2435F582EF3400F583D0E0F08E820A
:101AF3008F83A3A3A3A3A3A3A3C082C0838E828F38
:101B030083A3A3A3A3A3E0F8A3E0F9D083D082E047
:101B1300C398F508A3E099F509EE247FF582EF3425
:101B230000F583E064017069EE2480F582EF3400F0
:101B3300F583E0F8A3E0F98E828F83A3A3A3A3A385
:101B4300A3A3E0FCA3E0FD8E828F83A3A3A3A3A39F
:101B5300E0FAA3E0FBC3EA9CEB9D5010C3EC98EDC5
:101B630099402EC3EA98EB995027800EC3EA98EB6D
:101B7300994007C3EC98ED9940177CE17D04EEFA98
:101B8300EFFB120B8BEE247FF582EF3400F583E439
:101B9300F0EE2434F8EF3400F9E8FCE9FDEE2435E7
:101BA300F582EF3400F583E0F8EE2437F582EF3465
:101BB30000F583E0F50AE508850AF0A4F508AAF024
:101BC300850AF0E509A42AF509E82508F8E43509AA
:101BD300F97A257B001215C2EA8C828D83F0F874A2
:101BE3000758F97401B900028004C333D9FCFAE839
:101BF300131313541FF8EE28F8EF3400F9E8245DAB
:101C0300F582E93400F583E05A6008EE2434F58266
:101C1300EF802CEE2434F582EF3400F583E0C0E04E
:101C2300EE2436F582EF3400F583E0F5F0D0E0845E
:101C3300A8F0EE28F8EF3400F9E82438F582E93407
:101C430000F583E0F9122525021AC9C082C08385F5
:101C53001882851983E0F8A3E0F9C3EA9CEB9D5051
:101C630010C3EC98ED99401BC3EA98EB995014808C
:101C73000EC3EA98EB994007C3EC98ED99400479B9
:101C83000180027900D083D08222EAC39CFAEB9DC3
:101C9300FB2274EF1217299003A7E064086005E0A4
:101CA3006407702A9061C8E060249003D5E0F46073
:101CB3001DE0F875F003A4C8AAF02AF974D728FE2A
:101CC300740339FF8E828F83A3A3A3E07003021DE5
:101CD300C5906060E0C0E0EE2468F582EF3400F563
:101CE30083D0E0F0750C4A750D0575080075090081
:101CF300E5D914F50AE5D95403F50E6017740365A5
:101D03000E605CE50A6010EE2467F582EF3400F59F
:101D130083E07003021DAA900545E06401602AEE8A
:101D23002482F582EF3400F583E0600478048002B6
:101D33007800850A08E508C398FA95E0FB120A477C
:101D43008A088B09EA45097005120D7D8074EE241B
:101D530082F582EF3400F583E070048A0C8B0DE585
:101D63000A6012850C82850D83F50BE5D9F0A31566
:101D73000BE50B70F6EE2482F582EF3400F583E079
:101D8300604474FC250AF50A780C1218D0AC0AA931
:101D93000EEEFAEFFB120C277402121663E970269B
:101DA300AA08AB09121227793D8E828F83A3A3A3BE
:101DB300A3E0FA7B0012091BEEFAEFFB120BA3124E
:101DC3000C39790080747403650E6056850A1075AA
:101DD300110078101218D0AC0CAD0DAA08AB091283
:101DE3000C037402121663EE2468F582EF3400F5D7
:101DF30083E064807004747F8001E0F50C780C123A
:101E030018D4E50EF50C780C1218D4A90AAC08AD59
:101E1300099003D5E0FA7B001208DF7402121663FF
:101E230080139003A7E06408600BAC0CAD0DEEFAD1
:101E3300EFFB120C93120D8979017F0A0217D574F7
:101E4300F512172974FC12164DEAFEEBFF8908A25E
:101E5300AFE433F509C2AF806AEE2463F8EF3400D0
:101E6300F97A007B00A2AFE433F50AC2AF88828916
:101E730083E0FCA3E0FDEC4D603A88828983E0FABD
:101E8300A3E0FB8A828B83E0FCA3E0FD8882898345
:101E9300ECF0A3EDF08A828B83E4F0A3F0888289CF
:101EA30083E0FCA3E0FDEC4D700A88828983A3A341
:101EB300E4F0A3F0E50AA2E092AF1212279004E83F
:101EC300E004F0EE2463F582EF3400F583E0F8A339
:101ED300E0F9E849603DEE2463F582EF3400F583D1
:101EE300E02402FAA3E03400FBEA2402F50AEB340F
:101EF30000F50B780A1218D08A828B83E0FCA3E0EA
:101F0300F9EEFAEFFB120BC77402121663E97003C2
:101F1300021E5C9004E8E060639004E9E0F890043A
:101F2300E8E0C398500C7402650870509004EAE02E
:101F3300604A8E828F83A3A3A3A3E08518828519A9
:101F430083F0A3E4F09004E8E0F87402121699E831
:101F5300F0A3E4F09004E8E0F89004E7E028F074DC
:101F630002121699AC82AD83851882851983AA82E1
:101F7300AB8379011208EB9004E8E4F0E509A2E0F1
:101F830092AF7404121663021AC9000000852187F8
:101F93008522C622C0E0C0D0E8C0E0E9C0E0EAC0C4
:101FA300E0EBC0E0ECC0E0EDC0E0EEC0E0C008C094
:101FB30009C00AC00BC082C083C0F0A2AFE433FEE5
:101FC300C2AF759B00906182E0A2E05012E591A23E
:101FD300E0500C7591FE740165217003121C95E0AD
:101FE300A2E55051E591A2E5504B7591DF9003A70F
:101FF300E064076005E064087023740165217035AF
:1020030079019003D5E0FA75F003A4CAA8F028FB80
:1020130074D72AFA74033BFB121E428018E0640D46
:1020230070139003C9E004F064287002E4F07A00AE
:10203300E0F9120D8F906182E0A2E640030220DEF8
:10204300E591A2E640030220DE7591BF9003A7E06D
:1020530064057008120CBD120CC98003120CC37501
:102063002100120D1DE99003A8F07900120D111241
:102073000AFB7A017B009003A6E0F9120FE1907846
:1020830003E064427055900549E014F0704DC2AF0F
:1020930012209600782AD0E0F618D0E0F6E59F5497
:1020A3000770057509FF800375097FC4C0E07829AF
:1020B300E6F50808E65509F509740B780812162B9E
:1020C300D0E02508F8906270E0A2E740F8E8C33357
:1020D300906272F0906270E0D2E0F0906181E0A2D1
:1020E300E35009E5E9A2E3500375E9F7A3E0A2E7AA
:1020F3005009E591A2E7500375917FEEA2E092AFFC
:10210300D0F0D083D082D00BD00AD009D008D0E051
:10211300FED0E0FDD0E0FCD0E0FBD0E0FAD0E0F967
:10212300D0E0F8D0D0D0E032C0E0C0D0C082C083CD
:10213300906183E0A2E05009E5BFA2E0500375BFC0
:10214300FEE0A2E15009E5BFA2E1500375BFFDE047
:10215300A2E25009E5BFA2E2500375BFFBE0A2E390
:102163005009E5BFA2E3500375BFF7E0A2E45009AD
:10217300E5BFA2E4500375BFEFE0A2E55009E5BF58
:10218300A2E5500375BFDFE0A2E65009E5BFA2E672
:10219300500375BFBFD083D0828088C0E0C0D0E831
:1021A300C0E0E9C0E0EAC0E0EBC0E0ECC0E0EDC0B5
:1021B300E0C0F0E5A7A2E6500FE5A1A2E65009535F
:1021C300A7BF75A1BF122203E5A7A2E5500CE5A1A5
:1021D300A2E5500653A7DF75A1DFE5A7A2E15009E9
:1021E300E5A1A2E1500375A1FDE5A7A2E2500CE52C
:1021F300A1A2E2500653A7FB75A1FBD0F002211464
:1022030074F81217297521019003A7E0640670156D
:10221300120C578A828B83A3A3A3A3A3A3E0FAA3DD
:10222300E0FB120CABA2AFE433FED2AF9003ADE000
:10223300640170187A207B009003A6E0F912106BFA
:102243007A207B009003A6E0F9120FE7906182E009
:10225300D2E6F0900546E0602185C6228016900301
:10226300ACE064017008E5C654F84405F5C653BEF6
:10227300FC121F907401652160E4EEA2E092AF7F2F
:10228300010217D5008E238F248582288583278515
:102293001882851983E0CEA3E0CF85288285278322
:1022A300EBC9EAC8EDCBECCA75F010C3E833C8E953
:1022B30033C9EA33CAEB33CBC3EA9EF526EB9FF56A
:1022C30025B35004AB25AA26EC33CCED33CDD5F0A2
:1022D300DAAE23AF242274ED1217298A088B098CF6
:1022E3000A8D0B7413121699780C12150578087958
:1022F3000C1213747510017511C875120075130053
:1023030050127808790C1214A478107908121374F7
:1023130050168010780C79081214A47810790C12D6
:10232300137440047901800279007F0C0217D5747D
:10233300ED1217298A088B098C0A8D0B7413121658
:1023430099780C121505780C7908121374401178DA
:1023530008790C1214A4AA08AB09AC0AAD0B8022AD
:102363007510007511007512007513017810790C42
:102373001214A47810790812146BAA10AB11AC12C2
:10238300AD1380A68A828B837508FF7509FF750AD2
:10239300FF750B0078081214F27F040217D574F549
:1023A3001217298C828D8378081215058A828B83F4
:1023B30078081214B8EA2404F8EB3400F98C828DFF
:1023C30083A3A3A3A3E0FCA3E0FD88828983C3E0E6
:1023D3009CF0A3E09DF088828983C3E09420A3E06E
:1023E300944E40268A828B837508FF7509FF750A10
:1023F300FF750BFF78081214918A828B83A3A3A322
:10240300A3E02420F0A3E0344EF002238774F512F6
:102413001729E9FE9004FCE0FAA3E0FBEEC333F8CE
:10242300E433F9741228F582748139F583E02AF5CF
:1024330008A3E03BF50978081218D07A407B427C68
:102443000F7D0012228874021216638A088B098C8E
:102453000A8D0B74107808121433AA08AB097F0491
:102463000217D574F11217298A0C8B0D8C0E8D0F60
:10247300740F121699E0FAA3E0FB7411121699E097
:10248300F508A3E0F50978081218D0EA2401F50845
:10249300EB3400F509E4F50AF50B780C790812130F
:1024A300B3750871750902780C79081213B3AA0C75
:1024B300AB0DAC0EAD0F12228874021216638B099A
:1024C300EA450960047A0180027A00EC2AFCED34C3
:1024D30000FD7413121699E0F8A3E0F9E8FEE9FF92
:1024E300ECF8EDF97A717B021215C2880889098E1E
:1024F300828F837808121514ECF8EDF97A717B0258
:102503001215C28A088B097405780812163A8E824E
:102513008F83A3A3A3A3E508F0A3E509F07F080233
:1025230017D5C082C083E9906000F0D083D08222A7
:10253300C2AF02000022C0E074F2121815A2AFE489
:1025430033FED2AFC2C0E5D1A2E4500653D1EF129D
:102553001209EEF8EEA2E092AF7F01021874C0E018
:10256300C0D0E8C0E0E9C0E0A2AFE433F8D2AFC224
:10257300C7E8F9E8A2E092AFD0E0F9D0E0F8D0D014
:10258300D0E032C0E0C0D0E8C0E0E9C0E0C008C09D
:1025930009C082C083A2AFE433F9D2AF9009D1E07E
:1025A300F89009D2E068700B539AFB9009D3740139
:1025B300F08031C2E99009D1E0F508740125089053
:1025C30009D1F075090074512508F582740935099C
:1025D300F583E0F5C19009D1E0C3948040069009EA
:1025E300D17400F0E9F8E9A2E092AFD083D082D0B1
:1025F30009D008D0E0F9D0E0F8D0D0D0E032020121
:102603001FFFFFFFFFFFFFFFFF74F71216BDE990E7
:1026130002E6F07C1E7D037AFF7BFF120825900201
:10262300E774FFF0A3F0A3E4F0A3F079051207AD7C
:102633009002E6E0F91206D57A437B081209F97F86
:102643000102178F74F41216BD8A088B09EB5480AC
:1026530060309002E6E0F9120FC98A0A8B0BAE0ACA
:10266300AF0BEE4F60138E828F83E064B070031262
:1026730007C5EEFAEFFB120FB7AA08E5096480FB62
:1026830080047A007B0002285E74F21216BD74FC8B
:1026930012164DEAFEEBFFEE4F60387402121699E4
:1026A300EEF0A3EF122AC3ECF0A3ED122AC3AA8221
:1026B300AB831206CFE9F5087073741212169912E0
:1026C3003677E50A450B60658E828F8312273AEED3
:1026D3004F700575080280557A067B001210298A0F
:1026E3000C8B0DA80CA90DE8497005750813803DE6
:1026F30088828983E4122744A3A3EEF0A3EF123B5D
:1027030010E50AF0A3E50BF09002EC1227CC90023F
:10271300EC6017E0FCA3E08003EAFCEBFD8C828D08
:10272300831227CC70F38C828D8312359CA9087495
:1027330004121663023D12A3A3A3A3E0FEA3E0FFCA
:1027430022F0A3F0888289832274F21216BD890ACB
:10275300E975F017A4FEAFF09002EBE4F09002E904
:102763001227CC600A12102F9002E9E4F0A3F0EED6
:10277300FAEFFB1210298A088B09EA4509602FEE4C
:10278300FCEFFD7900120FA59002E9E508F0A3E53F
:1027930009F07B0080081227B6E4F0A3F00BEBC32B
:1027A300950A40F2E50A9002EBF079008002791372
:1027B300023D12EB75F017A4F8A9F09002E9E028A6
:1027C300FAA3E0398A82F58322123332EA4B227468
:1027D300F41216BD750800750900740C12169912CF
:1027E3003AE4FEE9FF800CE5082401F508E5093425
:1027F30000F509C3E5089CE5099D503285080A8563
:10280300090B7403780A12163AEA250AF8EB350B1A
:10281300F988828983A3A3A3A3A3A3123677EE65C2
:102823000A7003EF650B70BFE8FAE9FB80047A00D6
:102833007B00802774F41216BD7900EAA2E0501BD6
:1028430075085A75098178081218D07C047D007ABE
:10285300A67B0D1207A774021216637F0402178F5B
:10286300C082C0839002EC122896601C8882898300
:10287300A3A3E06A7003A3E06B8882898370E8A353
:10288300A3A3A312332E80047A007B00D083D082CB
:1028930002011F123DE5E8492274EE1216BD74FCD5
:1028A30012164DEAFEEBFF851882851983E4F0A327
:1028B300F0EE2402123580EE2405122AB1EE240430
:1028C300F50EEF122E96E024FE603924FC604624B8
:1028D300FE605224FE605E24FE70030229B624FECD
:1028E3007003022A2E24FE7003022A3D24FE700385
:1028F300022A4C24FC7003022A5B24FE7003022A82
:102903006A022AA79003057417F0A3E4122ACB12D4
:10291300044D022AA7851882851983AC82AD8312E0
:1029230007CB022A77851882851983AC82AD83127F
:1029330007D1022A77850C08850D097402121699AE
:10294300AC82AD8385088285098312332E1206F388
:102953008A0C8B0DAC0CAD0DEC4D6042E4F50CF51F
:102963000D780C1218D0750C05750D03780C121820
:10297300D0750C06750D03780C1218D07408121656
:10298300991218E7791612332812080D74081216D3
:1029930063E9F50C700B123324120465800F750C78
:1029A30001850882850983122AB912359C850C0892
:1029B300022A7A7402121699AC82AD83850C828541
:1029C3000D8312332E1206F38A108B11AC10AD1146
:1029D300EC4D6043850C82850D83A3A31218E77524
:1029E300100575110378101218D0751006751103B0
:1029F30078101218D074081216991218E779161263
:102A0300332812080D7408121663E9F509700B12C6
:102A1300332412046B800F750901850C82850D83A5
:102A2300122AB912359C850908804C8518828519AC
:102A330083AC82AD831207D7803A851882851983C8
:102A4300AC82AD831207DD802B851882851983AC98
:102A530082AD831207E3801C851882851983AC82BB
:102A6300AD831207E9800D851882851983AC82AD89
:102A7300831207EFE9F508E50860298E828F83A3A7
:102A8300E06414601F850E82850F83E090030512B6
:102A93002AC3123DE190030612359CE508A3122ACE
:102AA300CB120447EEFAEFFB120771023488F50CE0
:102AB300EF3400F50D22123DE58518828519832236
:102AC300F085188285198322F07C057D03850A82AF
:102AD300850B831233322274EE1216BD74FC121668
:102AE3004D8A0A8B0B8C0E8D0FEA2405F508EB3407
:102AF30000F5097C157D0079007A057B03120FA58B
:102B0300E5082402F50CE509122AB4851882851913
:102B13008385821085831178101218D085088285E9
:102B23000983A3A3A3A3122FDE1218D0E50824055B
:102B3300F510E5093400F51178101218D0850C82D0
:102B4300850D831233381206ED74061216638A104C
:102B53008B11AE10AF11E50A2402F50AE50B12350D
:102B630083EE4F7003022CA0801774021216991281
:102B7300332E88828983EAF0A3EBF0900305E00407
:102B8300F0900305E0C394054003022CA0E4F51084
:102B9300F51178101218D07510EE75110278101215
:102BA30018D07510EF75110278101218D074061230
:102BB30016991218E77910EEFCEFFD12332812086C
:102BC3000D7408121663E9705E850882850983A374
:102BD300A3A3A3A3A3A3E0F89002EEE068704812B6
:102BE3002FDE1218D07CEF7D02E5082408FAE509F0
:102BF3003400FB120F9F7402121663E960298E8260
:102C03008F83A3A3A3A312332E900305E0F51074BF
:102C130002781012163A74062510F58274033511E2
:102C2300F583EAF0A3EBF0740212169985821085FE
:102C3300831178101218D074021216991218E785AE
:102C43000C82850D83123DF61206F9740412166385
:102C53008A108B11AE10AF11900305E0F5107511BA
:102C6300007402781012163A74052510F8740335AF
:102C730011F988828983A31227CC7003022B64E89D
:102C83002403F8E93400F9EE4F6003022B6D8882C8
:102C9300898374FFF0A3F0900305E004F09003052B
:102CA300E0600A1233241204597900800B850882EC
:102CB300850983123593790A02348874EA1216BDA2
:102CC30074FE12164D8C128D13EA2405F50CEB12CB
:102CD3003F6012273E750800750900EA2402F510CB
:102CE300EB3400F51185188285198385820A858363
:102CF3000B780A1218D0850C82850D83A3A3A3A396
:102D0300122EA01218D0E50C2405F50AE50D123594
:102D130083780A1218D0850C82850D83123DF41234
:102D230006ED74061216638A0A8B0BEA450B7003D1
:102D3300022E51EA2404F50EEB122E9612273E8A38
:102D4300828B83A3A3A3E0F98510828511831233B9
:102D53002E1206DBE9F5096003022E51E4F514F5A2
:102D63001578141218D07514EE751502781412180C
:102D7300D07514EF75150278141218D07406121654
:102D8300991218E77913AC0AAD0B8510828511836C
:102D930012332E12080D7408121663E9F509600345
:102DA300022E519002EEE0F8E5087009E02402904B
:102DB3000306F08017900306E0FCE82402FAE434EB
:102DC30000FBEA6C7001EB6003022E55850882AAB2
:102DD30082122FD59414122FCD5073850E82850F36
:102DE30083E0C0E074072A122E8DD0E0F005088539
:102DF3000E82850F83A3E0C0E085080A7407250AC5
:102E0300122E8DD0E0F005089002EE122EA01218BB
:102E1300D07CEF7D0285080A7407250AFA7403340F
:102E230000FB120F8D74021216639002EEE0250868
:102E3300F50874FF6E700374FF6F6012EE24010EC9
:102E4300EF3400FFE508C394145003022CE8E508AF
:102E5300601312321985108285118312332E1204E6
:102E63005F79008014E509700375090A851282856C
:102E73001383EEF0A3EFF0A90974021216637F0E19
:102E830002178F85080C7407250CF5827403340030
:102E9300F583223400F50F850E82F58322123B233E
:102EA3002274EE1216BD74FE12164D8C0E8D0FEAAF
:102EB3002405F50CEB122AB4750B00900305E4F01E
:102EC300F50AEA2402F508EB3400F509804990037A
:102ED30005E0FA9002EEE0F8122FD59417122FCDE9
:102EE300400D900305E0F87416C3989002EEF012BB
:102EF3002FDE1218D07CEF7D0274062AFA74033495
:102F030000FB120F8D74021216639002EEE0F8902C
:102F13000305E028F0050AE50C2416F582E50D12F9
:102F23002E91E0F8E50AC3984003022FB6900305FB
:102F3300E0C39416507DE50AC333F8E433F9E50C96
:102F430028FEE50D39FF851882851983AC82AD8390
:102F53008E828F8312332E1206F38A108B11AC10DC
:102F6300AD11EC4D7005750B018043E4F510F511BF
:102F730078101218D07510EE75110278101218D04F
:102F83007510EF75110278101218D0740612169985
:102F93001218E7791685088285098312332E1208E1
:102FA3000D7408121663E9F50B7003022ED1123566
:102FB3008F80107C057D0385088285098312332E5B
:102FC300120471A90B740202348AE99400C365D018
:102FD3003322EA28F8E43400F9E822E0F510751109
:102FE3000078102274EA1216BD74FC12164D8A0C76
:102FF3008B0D8C128D13EA2405F50AEB12358375BC
:103003000800750900E50A2402F510E50B3400F504
:1030130011740212169985820E85830F780E121889
:10302300D0850A82850B83A3A3A3A3123ACF1218D8
:10303300D0E50A2405F50EE50B3400F50F780E12E2
:1030430018D0851082851183123589123328120610
:10305300ED74061216638A0E8B0FAE0EAF0FE50CDE
:103063002402F50EE50D3400F50F80408882898334
:1030730074FFF00508122E8674FFF005089002EE27
:10308300E0F50C750D00780C1218D07CEF7D0285ED
:10309300080C7407250CFA74033400FB120F8D74AB
:1030A300021216639002EEE02508F508EE4F6071F8
:1030B3008E828F83A3A3A3E0F9850E82850F8312EB
:1030C300332E1206DBE9F509EE2404122AB1E97066
:1030D30044E4F514F51578141218D07514EE75152B
:1030E3000278141218D07514EF751502781412189B
:1030F300D074081216991218E77911EEFCEFFD85CA
:103103000E82850F8312332E12080D740812166374
:10311300E9F5096027850C82850D8312320F12357C
:103123009CE50870030231F5123219850E82850F72
:103133008312332E120477790002320A850882AA99
:1031430082EA9002EE7009E02404900306F08022E4
:10315300E0F8900306E0F514E82404FCE43400FDF1
:10316300EC65147001ED70C0122FD59412122FCD9F
:1031730050B6850C82850D83E0C0E074072A122EB9
:103183008DD0E0F00508850C82850D83A3E0C0E0B7
:10319300122E86D0E012322B85820C85830D780C9B
:1031A3001218D074041216991218E785108285112B
:1031B30083123DF61206F974041216638A0C8B0D02
:1031C300AE0CAF0D85080C7407250CF8740334009E
:1031D300F9EE4F700302306F851882851983E088FA
:1031E30082898312322BA3E0C0E0122E86D0E00244
:1031F300307DE509700375090A850A82850B831200
:10320300320F12359CA9097404022E7E123DE58506
:10321300128285138322900306E0F5F0E50884907B
:103223000305F07C057D0322F005088518828519C6
:10323300832274EC1216BD74FE12164D8A088B0994
:103243008C0E8D0FEA2405FEEB3400FF8518828572
:103253001983AC82AD838E828F8312332E1206F3D1
:103263008A0A8B0BEE2418122AB1EA450B7003026B
:1032730032FF123471503285188285198312332E2E
:103283001208018A108B11EA4511606B7912AC0A9E
:10329300AD0B85088285098312332E851082851133
:1032A300831216BBE9F50A7058E4F50AF50B780AA0
:1032B3001218D08E828F83A3A3E0F50A780A12181E
:1032C300D0EE2403123580780A1218D08E828F83B1
:1032D3001233381208137406121663E9F50A7021C3
:1032E300850C82850D83E0701F8508828509831212
:1032F300332E12047D8011750A0E8009750A018030
:1033030004E50A600312358F850C82850D83E06026
:103313000479008002A90A74021216637F0C021753
:103323008F7C057D03850A82850B8312333222E06D
:10333300FAA3E0FB22E0FCA3E0FD85088285098374
:103343001233322274EE1216BD74FE12164D8A0821
:103353008B098C0C8D0DEA2405FEEB3400FF750EF2
:1033630000851882851983AC82AD838E828F831288
:10337300332E1206F38A0A8B0BEA450B70030234D1
:103383005D123471503585188285198312332E12DC
:1033930008018A0E8B0FEA450F605E7912AC0AAD05
:1033A3000B85088285098312332E850E82850F8350
:1033B3001216BBE9F50E60030234608508828509A5
:1033C30083123677AA0AFB1207F58A108B11A8100D
:1033D300A911E849701E7AFF7BFF1207F58A108B4B
:1033E30011A810A911E849606C88828983E50AF065
:1033F300A3E50BF0750A008007750E0E805F050AC2
:103403009002EBE0FAE50AC39A504AE50A75F01711
:10341300A4FAABF088828983A3A3E02AFAA3E03B52
:10342300FB8A828B83123589EC4D70D2750A17752E
:103433000B00780A1218D0EEFCEFFD120F8D740208
:10344300121663EEFCEFFD85088285098312332E85
:103453001204838014750E098003750E01123DDD7D
:10346300850C82850D8312359CA90E022FC8E508B1
:103473002402F508E5093400F5098A828B83A3A3A6
:10348300A3E0A2E52274041216637F0A02178F7465
:10349300EC1216BD8C108D11EA2405F50CEB122AE3
:1034A300B4750F00EA2402F50AEB123583850A820C
:1034B300F58312332E1207F58A088B09EA45097042
:1034C30003023575750E008071850C82850D83E0CE
:1034D3006401704F8E828F83A3A31218E78E828FAD
:1034E30083A3A3A3A3E0F51275130078121218D0D7
:1034F300EE2405F512EF3400F51378121218D012EA
:1035030033281208137406121663E9F50F60148545
:103513000C82850D83E4F0123DDD851082851183D5
:1035230012359C7C177D007900EEFAEFFB120FA594
:103533008E828F83E4F0A3F0050E9002EBE0F8E5B2
:103543000EC398501EE50E75F017A4F8A9F0850870
:1035530082850983A3A3123F6A123589EC4D600368
:103563000234CC85088285098374FFF0A3F0E50F4C
:103573007006123328120489A90F02331FF50AEFCC
:103583003400F50B22A3E0FCA3E0FD228E828F839F
:10359300123DE5850E82850F83E8F0A3E9F022C092
:1035A30082C0839002E7E06A7003A3E06B70067A3F
:1035B300E77B0280047A007B0002288FC082C083ED
:1035C30078008C828D83E06A7003A3E06B7010E84F
:1035D30075F003A4F8A9F0EC28FAED39FB8015087F
:1035E3008C828D83A3A3A3E06A7003A3E06B60DFE7
:1035F3007A007B0002288F74F61216BD1207BF8A69
:10360300828B83E582458370067A007B008007A363
:10361300A3A3A312332E023C8E74F21216BDE9FE4D
:10362300740E1216991236777410121699123AEF15
:103633008C828D83E064027036A3123DEBF50CA3FC
:10364300E0F9A80C74026870037429697021750C81
:1036530002750D00780C1218D078081218D0780A69
:103663001218D0EEF9120837740612166380027925
:1036730001023D12E0F50AA3E0F50B2274E81216ED
:10368300BD74FB12164DE9851882851983F08A16DD
:103693008B17ECFEEDFF751000741D121699123D89
:1036A300E1741D12169912359C8E828F83A3A3A3F6
:1036B300E0A2E4502D741D12169912332E12080144
:1036C3008A828B83E58245837003023AC0790AEECE
:1036D300FCEFFDAA16AB171216BBE9F51060030247
:1036E3003AC3741F121699123AEF742112169912E3
:1036F30036777423121699E0F50EA3E0F50F8E8248
:103703008F83E064026003023A6EA3123DE18508F1
:1037130082850983A3858212858313EE2406122AE8
:10372300B188828983E0FAA3E0F9EA2400F514E47E
:1037330039F515781412195A010000280128633746
:103743000700022828380328953700295F39012903
:103753008A3902292B3903295F390429093A6E3A38
:10376300E50E450F6003023A69850C82850D8312CD
:103773003AE4FAE9FB8A828B83E0850A82850B832C
:10378300123B1A1218D08A828B83A3E0FCA3E002B7
:1037930039F3E50E450F6003023A69850A82850B0A
:1037A300837401F0123AF7850882850983F07C005F
:1037B3007D008E828F83A3A3A3A3E02401FAA3E059
:1037C3003400FB1206F3EA4B60418A828B83E024C8
:1037D30002F8850A82850B83E028F0EA2404F8EBDB
:1037E3003400F988828983E0851282851383123B32
:1037F3002C123B1A1218D08A828B83123588E50863
:103803002403FAE5093400FB0239F8850A82850BA3
:1038130083E02404F07C047D007900AA12AB131228
:103823000FA5023AC3E50E450F6003023A69123A47
:10383300F7FEA3E0FF850A82850B837404F0EE850F
:103843000882850983F0EF851282851383F0740360
:10385300121699AC82AD83EEFAEFFB1206F38A0CD3
:103863008B0DEA450D700302390C8A828B83A3A367
:1038730012273A740112169985820E85830F780EEA
:103883001218D074051216991218E77CFF7DFF12E7
:1038930006F974041216638B0FEA450F7033850C17
:1038A30082850D83123ACF1218D0850C82850D8341
:1038B300A31218E77C027D007AC87B811205257468
:1038C30004121663E9700A740112169974FFF0A3C7
:1038D300F08E828F83E064027039750C02750D00DF
:1038E300780C1218D08E828F83123588E508240451
:1038F300FAE5093400FB120F8D7402121663850A70
:1039030082850B83E0240280097401121699EEF07C
:10391300A3EFF07401121699123AE0F07401121633
:1039230099A3123AD8023A63E50E450F6003023AAF
:1039330069850C82850D83123589AA16AB17120887
:103943002B850A82850B837402F0EA850882850938
:1039530083F0851282851383EB023A66E50E450FE9
:103963006003023A69123AF7F8A3E0F9850A8285FF
:103973000B837402F0E8850882850983F0E98512D8
:1039830082851383023A66850C82850D8312332E5A
:10399300120F87EAFC8C82A882C3950EE4950F4030
:1039A3005FE8650E7002E50F70047C0080228518C5
:1039B30082851983E0FAE50E2AFAE50F3400FBC38A
:1039C300EA98EB94005003E08005E50ECCC39CFC21
:1039D300EC850A82850B83F08C0A750B00780A123A
:1039E30018D0850C82850D83E0250EFCA3E0350FEE
:1039F300FDAA08AB09120F8D7402121663023AC3B3
:103A0300751007023AC3E50E450F705A850C82857F
:103A13000D83123DE1850A82850B837407122746C5
:103A2300123AD8122746A3E0851282851383F0E861
:103A33002402FAE93400FB8A828B83123AD8123BC0
:103A430007123AE0A3123B10123AE9F0E82405F812
:103A5300E93400F988828983123AE9A3123B2CA343
:103A6300A3A3A3F0805A75100B8055741D121699E9
:103A730012332E1207BF8A828B83E5824583603D12
:103A8300123DE1880C890DE8450D6031780E12185E
:103A9300D0780A1218D078081218D0740612169922
:103AA300E0F9EEFCEFFDAA16AB17850C82850D83BA
:103AB3001216BB7406121663E9F510800375100E17
:103AC300A91074051216637F1002178FE0F50E75A7
:103AD3000F00780E22E085088285098322123B3687
:103AE30022123DE5E822123B36A3A322E0F508A308
:103AF300E0F50922850C82850D83E0F8A3E0F583C8
:103B03008882E022A3A3F08A828B83A322F0888297
:103B13008983A3A3A3A322F08A828B83123B23224C
:103B2300E0F50A750B00780A22F088828983A312D4
:103B33003B3622E0850882850983A3A32274EE1213
:103B430016BD74FE12164D8A0A8B0BECFAEDFB744C
:103B530014121699E0F510A3E0F5117416121699D4
:103B6300E0FE7418121699E0F50EA3E0F50F851820
:103B730082851983AC82AD831206F38A0C8B0DEA1E
:103B8300450D604985188285198312332E1207BFAC
:103B93008A828B83E5824583602FA3A3123AEFE5E4
:103BA3000845096024780E1218D078101218D0EE48
:103BB300F9AC0CAD0DAA0AAB0B85088285098312FB
:103BC30016BB74041216638006790E800279010213
:103BD3002FC874F61216BD74FE12164D740C12160D
:103BE30099123AE4851882851983F07401121699A3
:103BF300E9F0E4F508F50978081218D07508027899
:103C0300081218D0740412169985820885830978DE
:103C1300081218D0120813740612166374021216CF
:103C230063806874F71216BDEAFEEBFF89087C1EF9
:103C33007D0312082BEA5402600BA908EEFAEFFB8E
:103C43001206E78002790102264274F61216BD7449
:103C5300FF6A700374FF6B70168C828D83123C9322
:103C6300E4F08C828D83A3A3A3123C93A380181248
:103C730007FB8A088B09A808A909E849600D88820F
:103C8300898374FF122744A3A3E4F07F0202178FF2
:103C930074FFF0A3F08C828D83A3A32274F6121613
:103CA300BD1207FB8A828B83E58245836006A3A34B
:103CB300E0FA80027A007B0080D174F21216BD8A8A
:103CC300088B09ECFEEDFF740E121699E0F50A124B
:103CD30007FB8A0C8B0DA80CA90DE8497026EEFC96
:103CE300EFFD7AFF7BFF1207FB8A0C8B0DA80CA953
:103CF3000DE84970047911801688828983E508F0FC
:103D0300A3E509F088828983A3A3E50AF079007FFC
:103D13000602178F74EE1216BDEAFEEBFF8C088DB8
:103D230009890C7414121699123DE174161216992E
:103D330012332E750D00E8496003023DD574026508
:103D43000C6003023DD07412121699123DEBFCA3D2
:103D5300E0F9EC2400F50EE439F50FEAF4F8EBF49E
:103D6300F9EC58F8E50F59F9E849705CE5082406C1
:103D7300F8ED3400F9880A890B8882F583123DF641
:103D830012082B8A108B11E50E65107004E50F6580
:103D9300116042780E1218D0850A82850B83123D7A
:103DA300F61208317402121663E9F50D7027780EC6
:103DB3001218D0850882850983A3A3123DF4120843
:103DC300497402121663800D750D808008750D0D00
:103DD3008003750D0BA90D02348D8E828F83123DE6
:103DE300E522E0F8A3E0F922123DE588828983E029
:103DF30022A3A3E0FCA3E0FDEEFAEFFB2274E8129A
:103E030016BD74E712164D851882851983EAF0A34F
:103E1300EBF08C168D17890E750800750900743147
:103E2300121699E0F512A3E0F5137433121699E014
:103E3300F514A3E0F5157435121699E0F50FE509AD
:103E430075F003A4F8A9F0851882851983123F6AD7
:103E5300E0F47003A3E0F47003023F4DEE2402F597
:103E63000CEF123F60E07003023F4D85160A851781
:103E73000B780A1218D0AC14AD15AA12AB131207A3
:103E8300B374021216638A0A8B0BEA450B700302A2
:103E93003F4DE4F510F51178101218D07406121680
:103EA3009985821085831178101218D0740912161F
:103EB3009985821085831178101218D08512828516
:103EC3001383A3A3A3A31218E77914AC0AAD0B8E33
:103ED300828F8312332E12080D7408121663E97051
:103EE30069850A82850B83A3A3A3A3123DE1740210
:103EF30012169912359C850C82850D83E0A2E05041
:103F030018A90E7402121699AC82AD838E828F8328
:103F130012332E12070BE94208850C82850D83E0CC
:103F2300A2E15026E50FF50A780A1218D4A90E74F7
:103F330003121699AC82AD838E828F8312332E12B5
:103F430007057401121663E942080509E509C394DC
:103F5300025003023E41A9087419023AC73400F51E
:103F63000D850C82F58322E028FEA3E039FF8E82C3
:103F73008F832274F21216BDEAFEEBFF890B7401E4
:103F8300650B600E7402650B706A7901120A17E9FA
:103F93007062EEFAEFFB1207F58A088B09EA45090E
:103FA3006047750A00800B7C177D007900120FA50E
:103FB300050A9002EBE0F8E50AC3985021E50A757B
:103FC300F017A4F8A9F0850882850983A3A3E02844
:103FD300FAA3E039FB8A828B8312289670C985087D
:103FE3008285098374FFF0A3F07C1E7D03EEFAEF54
:103FF300FB120825023D1274F21216BD8A088B09C2
:10400300ECFEEDFF740E121699123677900DA4E0B4
:10401300F4603D7A097B00120FB1EA4B60328A8269
:104023008B8374B1F0A3E4123B09A3123B07A3E50E
:1040330008F0A3E509124056EEF0A3EF124056A391
:10404300A3E50AF0A3E50BF0900DA4E0F9120FBD70
:10405300023D12F08A828B83A3A3A3A3A32274F04D
:104063001216BD74D712164DE9C0E0851882851962
:1040730083D0E0F07401121699EAF0A3EBF08C0EF2
:104083008D0F90816074031216B374061215607459
:10409300031216B37401121699E0FAA3E0FB851814
:1040A30082851983E0F91210ADE9FEEEC3940A404C
:1040B300030241EEEEF91210E3E9FF900E90E06483
:1040C300027004740180027400F50878081218D491
:1040D300743A121699E0FDEFFCEEF9AA0EAB0F123B
:1040E300115574011216637C147D00790074151246
:1040F30016AB120FA58A088B0985080A85090B746C
:10410300151216B37A1075F006EEA42424F91212D0
:10411300ABE9703B7C1079FF74151216AB121005D6
:10412300E9702C7425121699AC82AD837A0475F06C
:1041330006EEA42425F91212ABE9F508741512163C
:10414300B3EFA2E0E433F9AA0EAB0F1205BBE97497
:10415300091216B37A0C74702EF91212ABE9707946
:1041630074091216AB1210D7750800E508C394043E
:104173005067E508F87900E875F003A4C8AAF0755C
:10418300F000A42AFA75F003E9A42AF974091216B7
:1041930099E58228F50CE58339F50D850C82850DAB
:1041A30083E0F8A3E0F9E849602B850C82850D8351
:1041B300A3A3E0F50A750B00780A1218D0850C82C8
:1041C300850D83E0FCA3E0FDAA0EAB0F1208197462
:1041D30002121663E905088092EFA2E1500D9007E1
:1041E3006AE0F9AA0EAB0F12081FE9743912169987
:1041F300E06404700F900E90E064027007AA0EABA7
:104203000F12114F790074291216637F0802178F5A
:1042130074F21216BD890B8A088B09ECFEEDFF754B
:104223000A0AE50B600B14600814604114605F8098
:104233007CAA08AB091210F5E9F50AE50AC3940A4A
:10424300506BEE4F6067750C06750D00780C1218F5
:10425300D0AC08AD09EEFAEFFB120F8D7402121603
:10426300638A0C8B0D850C82850D838040AA08AB75
:10427300091210EFE9F50AE50AC3940A502FEE4F2D
:10428300602BEEFAEFFBA90A1210E9E9801FAA08D6
:10429300AB091210FBE9F50AE50AC3940A500EEEC6
:1042A3004F600AEEFAEFFBA90A1210E9E9A90A7FA7
:1042B3000602178F74F21216BD8A0C8B0DE9FF7E6E
:1042C3001574FF650C700474FF650D702A75080082
:1042D300E508C3940A5014EFFC7A027B00A9081284
:1042E30010C5E960027E00050880E5EF60627A3D53
:1042F3007B11120A298059AA0CAB0D120A0B8A08EA
:104303008B0985080A85090BE50A450B60407C008B
:104313007D00E50A2405FAE4350BFB850A82850B4B
:1043230083A3A3A3A3E0F91210ADE9F508E508C33D
:10433300940A500EEFFC7A027B00A9081210C5E91B
:104343007E00EF600BAA0AAB0B12113D80027E14B4
:10435300EEF97F0602178F74F01216BD74FE121663
:104363004D851882851983EAF0A3EBF08C0A8D0B37
:104373007412121699E0F50EA3E0F50F7E15851859
:1043830082851983E064FF7004A3E064FF701D7FDE
:1043930000EFC3940A506BAC0EAD0FAA0AAB0BEF40
:1043A300F91210CBE960027E000F80E58518828543
:1043B3001983E0FAA3E0FB120A0B8A0C8B0D850C20
:1043C30008850D09E508450960367C007D00E50890
:1043D3002405FAE43509FB850882850983A3A3A391
:1043E300A3E0F91210ADE9FFEFC3940A5014AC0E29
:1043F300AD0FAA0AAB0BEFF91210CBE97E008002D6
:104403007E14EEF974021216637F0802178F74F29A
:104413001216BD74EC12164D8A0A8B0B850A82851F
:104423000B83A3A3E024FA700302485524FD700311
:104433000246CD14700302450114601024FD70037D
:104443000246751470030247100248C3AE0AAF0B4D
:10445300900784E0F8A3E0F9E8496066900784E0F8
:10446300F8A3E0F5838882E0F8A3E0F9E849605215
:10447300EE240CF582E43FF583E0F5087808121882
:10448300D4EE240BF582E43FF583E0F98E828F832B
:10449300A3A3A3A3A3A3A3A3A3E0FCA3E0FDEE24F0
:1044A30003FAE43FFB900784E0F8A3E0F5838882F6
:1044B300E0F8A3E0F58388821216BB740112166339
:1044C30080398E828F83A3A3A3A3A3A3A3A3A31241
:1044D30018E79007801215231205CD740212166394
:1044E300E9601879018E828F83A3A3A3A3A3A3A357
:1044F300A3A3E0FAA3E0FB1205C7E90248C3AE0A8F
:10450300AF0B8E828F83A3E060030246238E828FDC
:1045130083A3A3A3A3A3E0A2E0400302462390083E
:104523001EE0F8A3E0F9E84960030246237C0E7D10
:10453300007900AA18AB19120FA58A088B09AA08DB
:10454300AB09EE240CF582E43FF583E0F8A3E0F930
:10455300E849603675080675090078081218D0EE28
:10456300240CF582E43FF583E02410FCA3E034003F
:10457300FD74021216AB120F8D74021216638A08B1
:104583008B09850882850983804F8E828F83A3A33D
:10459300A3E0FAA3E0FB120A0B8A0C8B0D850C082F
:1045A300850D09E5084509602D750C06750D007824
:1045B3000C1218D0E5082405FCE43509FD74021239
:1045C30016AB120F8D74021216638A0C8B0D850CB9
:1045D30082850D8380030248C38E828F83A3A3A3A6
:1045E300A3A3E0A2E25004D2F08002C2F0A2F0E45E
:1045F30033F87900740C121699E048F0A3E049F0FF
:10460300EEFCEFFDAA18AB191210DDE970127A0265
:104613007B0090076AE0F9120FE1E979000248C5CF
:10462300900784E0F8A3E0F9E8496043900784E049
:10463300F8A3E0F5838882A3A3E0F8A3E0F9E849AF
:10464300602D8E828F83A3E0FC79018E828F83A3FA
:10465300A3A3E0FAA3E0FB900784E0F8A3E0F583CB
:104663008882A3A3E0F8A3E0F58388821216BB0235
:1046730048C3AE0AAF0B900784E0F8A3E0F9E8491A
:104683006045900784E0F8A3E0F5838882A3A3E064
:10469300F8A3E0F9E849602F850A82850B83A3E03C
:1046A300FC79028E828F83A3A3A3E0FAA3E0FB909D
:1046B3000784E0F8A3E0F5838882A3A3E0F8A3E0EE
:1046C300F58388821216BB0248C3850A08850B0945
:1046D3007C007D00E5082404FAE43509FB850882A3
:1046E300850983A3A3A3E0F91210ADE9FEEEC394F9
:1046F3000A5017E508240AFCE43509FD7A0475F02D
:1047030006EEA42425F91212A5E90248C3AE0AAFA6
:104713000B90077FE06018900E91E0F98E828F83F3
:10472300A3A3A3E0FAA3E0FB1205C7E90248C390E1
:104733000E90E0701579058E828F83A3A3A3E0FA10
:10474300A3E0FB1205C7E90248C38E828F83A3A3AC
:10475300A3E0FAA3E0FB120A0B8A0C8B0D850C086D
:10476300850D098E828F83A3A3A3A3A3A3A3E0A292
:10477300E05071E50845096068850882850983A3CF
:10478300A3A3A3E0605E8E828F83A3A3A3A3A3A3AB
:10479300A3A3A3E0F8A3E0F9E8C4540FF87900E871
:1047A3005401F8E95400F9E8A2E04038740E1216F7
:1047B300B3E5082405FAE43509FB850882850983F6
:1047C300A3A3A3A3E0F91210ADE9701879038E82B5
:1047D3008F83A3A3A3E0FAA3E0FB1205C7E9024872
:1047E300C30248C3EE2405FCE43FFD850882850926
:1047F30083A3A3A3A3E0F98E828F83A3A3A3E0FAE9
:10480300A3E0FB121149900784E0F8A3E0F9E8491B
:10481300603E900784E0F8A3E0F5838882A3A3E0D9
:10482300F8A3E0F9E84960287C0079008E828F8341
:10483300A3A3A3E0FAA3E0FB900784E0F8A3E0F5C9
:10484300838882A3A3E0F8A3E0F58388821216BBD2
:10485300806E120693E97068900813E06401701A81
:10486300121113E9FE9008137400F07C0A7D00799D
:10487300007A147B08120FA5803C7E00EEC3940AD5
:1048830050348E0875090074142508F582740835B0
:1048930009F583E06401701BEEF9121119E9F88E32
:1048A3000875090074142508F58274083509F58321
:1048B3007400F00E80C679501212B1E9FE12110194
:1048C300790174141216637F0602178F74F312169C
:1048D300BD74F212164D8908EAFEEBFF8C09AC1881
:1048E300AD197A0E75F006E508A42420F91212AB6F
:1048F300E970647C0679FFAA18AB19121005E970F8
:1049030056740C121699E0F8A3E0F9E8F50CE509E2
:104913006005EE420C8004EEF4520C850C0A750B14
:1049230000740C121699E0650A7004A3E0650B602D
:1049330022E50CF87900740C121699E8F0A3E9F05B
:10494300AC18AD197A0E75F006E508A42420F91207
:1049530012A5E9790180027900740E1216637F05AE
:1049630002178F74F01216BD74E612164D89098A68
:104973000E8B0FECFEEDFF740C1216B37A0E75F06E
:1049830006E509A42420F91212ABE96003024A9652
:104993007C0679FF740C1216AB121005E960030252
:1049A3004A96AC18AD197A0C74702509F91212AB3A
:1049B300E96003024A92750800AA18AB191210D7CE
:1049C300E50E450F702E7C0C7900AA18AB19121056
:1049D30005E96003024A787C0C7D007900AA18ABD4
:1049E30019120FA58A0A8B0B850A82850B8375081A
:1049F30001024A78AC18AD19AA0EAB0F1210D18A76
:104A03000C8B0D850C0A850D0BE50A450B7030EEFA
:104A13004F601BAC18AD197A007B001210D18A0CC1
:104A23008B0DA80CA90D880A890BE849700479003D
:104A33008063850A82850B83E50EF0A3E50FF0857D
:104A43000A82850B83A3A3E0F87900EE687002EF76
:104A5300696022EEC0E0850A82850B83A3A3D0E0C0
:104A6300F0EE4F700D850A82850B837400F0A374FA
:104A730000F0750801E5086016AA18AB191210D7E3
:104A8300AC18AD197A0C74702509F91212A5E979DD
:104A93000180027900741A1216637F0802178F745B
:104AA300F71216BDEAFEEBFF7B00EBC39404504EF6
:104AB300EBF87900E875F003A4C8AAF075F000A438
:104AC3002AFA75F003E9A42AF9EC28F582ED39F501
:104AD30083E06E7003A3E06F7021EBF87900E87553
:104AE300F003A4C8AAF075F000A42AFA75F003E94C
:104AF300A42AF9EC28FAED39FB80070B80AC7A0085
:104B03007B007F0102178F74F71216BD7F00EFC37E
:104B130094044003024BB9EFF87900E875F003A45D
:104B2300C8ACF075F000A42CFC75F003E9A42CF9D3
:104B3300EA28F582EB39F583E0F4FCA3E0F4FDEF1A
:104B4300F87900E875F003A4C8AEF075F000A42E60
:104B5300FE75F003E9A42EF9EA28F582EB39F58313
:104B6300ECF0A3EDF0EFF87900E875F003A4C8AC1E
:104B7300F075F000A42CFC75F003E9A42CF9EA28E5
:104B8300F582EB39F583A3A3E0F4C0E0EFF87900F5
:104B9300E875F003A4C8ACF075F000A42CFC75F024
:104BA30003E9A42CF9EA28F582EB39F583A3A3D012
:104BB300E0F00F024B117F0102178F74F01216BD44
:104BC30074F412164DEAFEEBFF8C088D0990081E53
:104BD300E0F8A3E0F9E849702CEE4F6006E50845DC
:104BE3000970057901024E6AEEFAEFFB1210F5E93E
:104BF300900E94F0900E94E0C3940A4008121107AB
:104C0300E9900E94F0900E94E0C3940A4003024E90
:104C13006890081EE0F8A3E0F9E8496003024CB489
:104C2300EEFCEFFD7A0E75F006900E94E0A42420BE
:104C3300F91212A5E9F50B7C0C7D0079FFAA18ABDC
:104C430019120FA58A0C8B0D850C0E850D0FAC1850
:104C5300AD197A0C900E94E02470F91212A5E9F5BF
:104C63000A750C0E750D00780C1218D0EEFCEFFDD2
:104C7300900E94E0F87900E875F00EA4C8AAF075D8
:104C8300F000A42AFA75F00EE9A42AF9748628FA2A
:104C9300740739FB120F8D74021216638A0C8B0D85
:104CA300A80CA90D90081EE508F0A3E509F0024E33
:104CB3006490081EE0F8A3E0C82406F582C8340017
:104CC300F583E0F8A3E0F9E849604390081EE0F8B3
:104CD300A3E0C82406F582C83400F583E0FCA3E012
:104CE300FD7A1B75F006900E94E0A42421F91212AC
:104CF300A5E9F890081EE0F9A3E0C92406F582C9E6
:104D03003400F5837400F0A37400F0024E6490083D
:104D13001EE0F8A3E0C8240AF582C83400F583E056
:104D2300F8A3E0F9E849604390081EE0F8A3E0C85F
:104D3300240AF582C83400F583E0FCA3E0FD7A1B66
:104D430075F006900E94E0A42422F91212A5E9F856
:104D530090081EE0F9A3E0C9240AF582C93400F5DE
:104D6300837400F0A37400F0024E6490081EE0F810
:104D7300A3E0C8240CF582C83400F583E0F8A3E06F
:104D8300F9E849604390081EE0F8A3E0C8240CF555
:104D930082C83400F583E0FCA3E0FD7A1075F006C9
:104DA300900E94E0A42423F91212A5E9F890081EAA
:104DB300E0F9A3E0C9240CF582C93400F58374003B
:104DC300F0A37400F0024E6490081EE0F8A3E0C85C
:104DD3002408F582C83400F583E0F8A3E0F9E84934
:104DE300606F90081EE0F8A3E0C82408F582C83479
:104DF30000F583E0FCA3E0FD7A1075F006900E94B5
:104E0300E0A42424F91212A5E9F50A90081EE0F89B
:104E1300A3E0C82408F582C83400F583E02410FC1D
:104E2300A3E03400FD7A0475F006900E94E0A42408
:104E330025F91212A5E9F890081EE0F9A3E0C924A8
:104E430008F582C93400F5837400F0A37400F08080
:104E530010900812E0600312115B12114379018074
:104E630006790080027901740C1216637F08021719
:104E73008F74F71216BD74F212164DE9FEAC18AD1D
:104E8300197A0E75F006EEA42420F91212ABE9701C
:104E93000E740C121699E0F8A3E0F9E8F980027990
:104EA30000740E1216637F0102178F74F41216BD7D
:104EB30074F212164D8909EAFEEBFFE509C3940A61
:104EC3005004EE4F700479028041AC18AD197A0E8C
:104ED30075F006E509A42420F91212ABE9F508E5FB
:104EE300087026750A06750B00780A1218D074022A
:104EF3001216B3EEFAEFFB120F8D74021216638AC9
:104F03000A8B0B850A82850B83A908740E1216631C
:104F13007F0402178F74F41216BDEAFEEBFF7508C7
:104F230000E508C3940A5044750A06750B00780A15
:104F33001218D0EEFCEFFDE508F87900E875F00EE5
:104F4300A4C8AAF075F000A42AFA75F00EE9A42A01
:104F5300F9748C28FA740739FB120F9F7402121626
:104F630063E96004A9088006050880B5790A7F040F
:104F730002178F74F41216BDEAFEEBFF750800E505
:104F830008C3940A5044750A06750B00780A121870
:104F9300D0EEFCEFFDE508F87900E875F00EA4C843
:104FA300AAF075F000A42AFA75F00EE9A42AF974A0
:104FB3008628FA740739FB120F9F7402121663E9ED
:104FC3006004A9088006050880B5790A7F040217E2
:104FD3008F74F71216BD74F012164DEAFEEBFF75CF
:104FE3000800E508C3940A5039AC18AD197A107556
:104FF300F006E508A42423F91212ABE970207C1013
:1050030079FFAA18AB19121005E97012EEFCEFFD37
:10501300AA18AB1912059DE97004A90880060508B2
:1050230080C0790A74101216637F0102178F74F41B
:105033001216BD750800E508C3940A400302510F18
:10504300E508F87900E875F00EA4C8AAF075F00039
:10505300A42AFA75F00EE9A42AF9748628FC7407C9
:1050630039FD7A0E75F006E508A42420F91212AB77
:10507300E9700302510A7C067D0079FFE508FA7B9B
:1050830000EA75F00EA4CAA8F075F000A428F8751C
:10509300F00EEBA428FB74862AFA74073BFB120F6D
:1050A300A58A0A8B0BAE0AAF0B7C067D0079FFE560
:1050B30008FA7B00EA75F00EA4CAA8F075F000A404
:1050C30028F875F00EEBA428FB748C2AFA74073BBE
:1050D300FB120FA58A0A8B0BAC0AAD0BE508F87916
:1050E30000E875F00EA4C8AAF075F000A42AFA75BA
:1050F300F00EE9A42AF9749228F582740739F5832E
:105103007400F0A37400F00508025039900812E00F
:10511300600312115B1211437F0402178F74F7129D
:1051230016BD7E00EEC3940A50327C0679FFEEFA78
:105133007B00EA75F00EA4CAA8F075F000A428F865
:1051430075F00EEBA428FB74862AFA74073BFB1256
:105153001005E96004EEF980050E80C8790A7F0125
:1051630002178F74F71216BD7E007F00EFC3940AF7
:10517300502F7C0679FFEFFA7B00EA75F00EA4CA84
:10518300A8F075F000A428F875F00EEBA428FB74C2
:10519300862AFA74073BFB121005E970010E0F8093
:1051A300CBEEF97F0102178F74F71216BD7E007FD5
:1051B30000EFC3940A500DEE700AEFF9121119E9CA
:1051C300FE0F80EDEEF97F0102178F74F01216BD0A
:1051D30074C912164DE9FE900E94E06E701D7A01AB
:1051E3007B0090076AE0F9120FE7E97A027B0090EF
:1051F300076AE0F9120FE7E912116774291216B36F
:105203007A0E75F006EEA42420F91212ABE96003BE
:105213000253027C0679FF74291216AB121005E9BA
:1052230060030253027C0E7D0079FF74291216ABD2
:10523300120FA5851882851983EAF0A3EBF07C1B76
:105243007D0079FF740E1216AB120FA58A0A8B0B21
:10525300850A0E850B0F7C0C7D0079FF74021216F4
:10526300AB120FA58A0C8B0D850C0A850D0B7429C7
:105273001216B37A0E75F006EEA42420F91212A5C5
:10528300E9F508740E1216B37A1B75F006EEA42422
:1052930021F91212A5E94208740E1216B37A1B758E
:1052A300F006EEA42422F91212A5E94208740E12A4
:1052B30016B37A1075F006EEA42423F91212A5E9A9
:1052C3004208740E1216B37A1075F006EEA4242465
:1052D300F91212A5E94208740E1216B37A0475F096
:1052E30006EEA42425F91212A5E942087402121647
:1052F300B37A0C74702EF91212A5E9420880037573
:105303000800A90874371216637F0802178F74F711
:105313001216BDE9FEEE90076AF01211017F010239
:10532300178F74F21216BD890AEAFEEBFFEE5400E2
:10533300F8EF5480F9E849603590076AE0F9120FF5
:10534300C98A0C8B0DA80CA90D88088909E8496046
:1053530012AA08AB0912112BE96008AA08AB0912BB
:105363000FB7E9EE6400FAEF6480FB025429EE54B0
:1053730002602D7C007D007A007B001210DDE96065
:10538300187A017B0090076AE0F9120FE1E9EE64F5
:1053930002FAEF6400FB0254297A027B00025429CB
:1053A300EEA2E0507D90081EE0F8A3E0F58388822A
:1053B300A3A3A3E0FAA3E0FB121161E9605E9007E7
:1053C30084E0F8A3E0F9E8496045900784E0F8A396
:1053D300E0F5838882A3A3E0F8A3E0F9E849602F0E
:1053E3007C00790190081EE0F8A3E0F5838882A38E
:1053F300A3A3E0FAA3E0FB900784E0F8A3E0F5831E
:105403008882A3A3E0F8A3E0F58388821216BB1277
:105413001167EE6401FAEF6400FB800A7A017B00F6
:1054230080047A007B007F0602178F74F71216BD83
:10543300EAFEEBFF7508018E828F83E02450601330
:1054430014601924E1701CEEFAEFFB1210BFE9F5AA
:10545300088010EEFAEFFB1211318007EEFAEFFB32
:10546300121137A9087F0102178F74F71216BDEACC
:10547300FEEBFF8E828F83A3A3A3A3E0641E7011B0
:1054830079008E828F83A3A3E0FAA3E0FB1210B30B
:10549300E97F0102178F74F61216BD8A088B0985FE
:1054A3000882850983A3A3A3A3E07034AE08AF09E0
:1054B3008E828F83A3A3A3A3A3A3A31218E78E8231
:1054C3008F83A3A3A3A3A3E0FCA3E0FD8E828F831A
:1054D300A3A3E0FAA3E0FB1210B97402121663E966
:1054E3007F0202178F74F71216BDEAFEEBFF9007D7
:1054F3006AE0F98E828F83A3E0FAA3E0FB12081F10
:10550300E97F0102178FC082C08374FF12164D1208
:10551300110DE9C39402400B851882851983740227
:10552300F08009851882851983740AF0AC18AD19C7
:105533007A0179051206ABE97401121663D083D0A0
:105543008202011F74F21216BD74E812164D8A0806
:105553008B09E9FE8C0A8D0B7C187D007900AA1853
:10556300AB19120FA58A0C8B0DAC0CAD0D851882EF
:10557300851983E508F0A3E509F090076CE0C0E026
:105583007402121699D0E0F090076DE0C0E0740346
:10559300121699D0E0F0900E93E0C0E07417121643
:1055A30099D0E0F07415121699E054FEF8A3E05474
:1055B300FFF9900E92E0A2E0E433FA7B00E84AF8A8
:1055C300E94BF97415121699E8F0A3E9F0900E92DD
:1055D300E0A2E15004D2F08002C2F07415121699D1
:1055E300E054FDFAA3E054FFFBA2F0E433F87900A2
:1055F300E828F8E933F9EA48F8EB49F97415121683
:1056030099E8F0A3E9F0900E92E0A2E35004D2F0FF
:105613008002C2F07415121699E054F7FAA3E0540D
:10562300FFFBA2F0E433F50C750D007403780C1244
:10563300163AEA450CF8EB450DF97415121699E87C
:10564300F0A3E9F0900E92E0A2E45004D2F08002BD
:10565300C2F07415121699E054EFFAA3E054FFFB5D
:10566300A2F0E433F50C750D007404780C12163AAD
:10567300EA450CF8EB450DF97415121699E8F0A3F9
:10568300E9F0900E92E0A2E55004D2F08002C2F05D
:105693007415121699E054DFFAA3E054FFFBA2F04D
:1056A300E433F50C750D007405780C12163AEA45CF
:1056B3000CF8EB450DF97415121699E8F0A3E9F00F
:1056C300900E92E0A2E25004D2F08002C2F0741570
:1056D300121699E054FBFAA3E054FFFBA2F0E43363
:1056E300F50C750D007402780C12163AEA450CF8A5
:1056F300EB450DF97415121699E8F0A3E9F090073C
:105703006DE0602A750C10750D00780C1218D07CB2
:105713006E7D077406121699AA82AB83120F8D74DD
:10572300021216638A0C8B0D850C82850D839007FC
:105733007EE06011EE600E7415121699E04402F0DB
:10574300A3E04400F090077EE060067801790080D2
:1057530004780079007414121699E048F090076BEE
:10576300E0600678047900800478007900741412EC
:105773001699E048F0AC0AAD0BAA18AB191205C193
:10578300E974181216637F0602178F74F71216BD99
:10579300EAFEEBFF75080090077EE060067801796A
:1057A30000800478007900E8420890076BE0600607
:1057B30078047900800478007900E84208A908EEAB
:1057C300FAEFFB12067BE97F0102178F74F21216C0
:1057D300BD74E312164D8A0C8B0DE9FF8C0A8D09FB
:1057E300742B121699E0F50874086509700A75F0B0
:1057F30006EFA42422FE800875F006EFA42421FE00
:105803007C1B7D00790074021216AB120FA585185C
:1058130082851983EAF0A3EBF074021216B37A1BA4
:10582300EEF91212ABE97038741C121699E0C394A6
:1058330007402D741C121699E0C394115022E508F9
:10584300F50B780B1218D474031216B3E50AA2E011
:10585300E433F9AA0CAB0D1205D37401121663E9F4
:10586300741D1216637F0602178F74F71216BD128A
:105873000897E97E00EEC3940A50557C0679FFEE43
:10588300FA7B00EA75F00EA4CAA8F075F000A4280C
:10589300F875F00EEBA428FB74862AFA74073BFB19
:1058A300121005E97027EEF87900E875F00EA4C828
:1058B300AAF075F000A42AFA75F00EE9A42AF97487
:1058C3008628FA740739FB790012089DE90E80A532
:1058D3007F0102178F74F61216BD74FD12164DEA7E
:1058E300FEEBFF900820E0F8A3E0F9E84970397572
:1058F300082275090878081218D07508027509007E
:1059030078081218D07508CE75098178081218D056
:105913007CFF7DFF7A017B001206ED74061216638D
:10592300900820EAF0A3EBF0900820E0F8A3E0F958
:10593300E84970030259F5E4F508F50978081218E7
:10594300D074041216A38808890978081218D07431
:10595300041216A38808890978081218D09008221F
:105963001218E77902900820E0FCA3E0FDEEFAEFBD
:10597300FB12080D7408121663E9704A85188285B4
:105983001983E0FA7B007401121699E0F87900E4B8
:10599300C8F9EA28F508EB39F509E5084509602651
:1059A30078081218D0900820E0F8A3E0F5838882E5
:1059B300A3A3A3A3E0FCA3E0FDEEFAEFFB1210B94F
:1059C3007402121663E9E4F508F50978081218D091
:1059D3009008221218E77CFF7DFF900820E0FAA3CD
:1059E300E0FB1206F97404121663900820EAF0A390
:1059F300EBF0900820E0F8A3E0F9E849700479019E
:105A03008002790074031216637F0202178FC0822B
:105A1300C08390081EE0F8A3E0F9E84960179008F6
:105A23001EE0FAA3E0FB120FB7E9F890081E74001A
:105A3300F0A37400F0900E94740AF0D083D0820225
:105A4300011FC082C0839061907404F0A37448F076
:105A5300A37402F09061807440F09061BC7403F011
:105A63009061877419F0906265741BF0906249E04D
:105A7300C3941390619C400A7409F09060667401AA
:105A83008007740DF0906066E4F090619A7433F0CF
:105A9300A37455F09061A0743AF0900544E064015A
:105AA3007009C2919003AB746780059003AB746176
:105AB300F090260AE493906186F0902604E493F430
:105AC3006027E493540FF8906185E0686012E5C69F
:105AD30054804449F5C6E59E547F644970F8E8F064
:105AE30053C680E59E547F70FA7905120D71025CEE
:105AF30097C082C083E5A8F853A87E906181E4F043
:105B0300A3F0A3F0C2BA539AFEC289759B00C2C226
:105B130075E90075910075BF0075A91175B90590F8
:105B23006181F0A374C0F0A3E4F0D2BA439A017484
:105B3300805842A8025C97C082C08374F812164D45
