:020000040000FA
:060000000201070221339A
:03002B0002256942
:03003B0002258E0D
:0300430002254152
:030053000221A6E1
:10008300021F9FE5C754F84401F5C7790122000018
:100093000080FB120086B900030200F1E4792178A5
:1000A30008B800028004F709D8FCE479297802B87B
:1000B30000028004F709D8FCE49002817835790BBB
:1000C3008002F0A3D8FCD9FA7AB57B0C900137787B
:1000D300E779038015E493A3AD82AE838A828B8391
:1000E300F0A3AA82AB838D828E83D8E9D9E7758288
:1000F300A07583FF740112011975829175830074D1
:100103000012011975D00075813F751881751902A8
:10011300759F00020096C09FF59FE473D09F22D085
:1001230083D082C09FE493C0E0740193C0E0740263
:1001330093F59F22080964422E44657673051208DD
:10014300000800020A0002010664422E4465767329
:1001530000000000000000000000000000002F0469
:1001630000003504FF0000B40000280028002830F8
:1001730075A000A000A000A00000080008E001F0A6
:10018300001000100010001000100010005000506C
:1001930000500010001000D0070000000000000F06
:1001A3000001000500307507001000010081FF0009
:1001B300000000FF4B0669065106FF020202080217
:1001C3005000A0000000E80302D581010000C381B4
:1001D30002D9810100003C0D02DF81010000B80259
:1001E30002D9810100003D0D02E181010000CE0230
:1001F30002D9810100003E0D02E381010000D0021B
:1002030002D9810100003F0D02E581080000D102FF
:1002130002D981010000400D02E781010000410D78
:10022300FF0100FF2002D581010000BD8102D981B9
:10023300010000A50D02E981000000000002DD813C
:100243000300001E03330C330C330C330C330C3319
:100253000C330C330C330C330C330C330C330CB521
:100263000ECD0EAF0EFFFF020202020202020202D5
:10027300010D000000100102D581010000C08102C0
:10028300D981010000E80D02F1810100006207023B
:10029300D981010000E90D02EF81010000508102C4
:1002A300D981010000EA0D02ED81010000348102D1
:1002B300D981010000EB0D02EB81010000F2800205
:1002C300D981010000EC0D02CF81010000AA800258
:1002D300D981010000ED0D02CD81010000E0800213
:1002E300D981010000EE0D02CB81010000BC800228
:1002F300D981010000EF0D02C98101000042810292
:10030300D981010000F00D02F381010000F10D011C
:10031300053F100AFF0001307503020106000000CB
:1003230000000000000000000000000000000000CA
:10033300000000000000000000FFFF0600800CE842
:10034300030202307846463031000243686172612D
:10035300637465726973746963203200084368616A
:100363007261637465726973746963203300104347
:1003730068617261637465726973746963203400C0
:10038300024368617261637465726973746963209F
:10039300350002D5810100005D8102D98101000091
:1003A300C30E02F781010000800C02DB8101000013
:1003B300C40E02D981010000CB0E02F981010000B5
:1003C300940C02DB81010000CC0E02D981010000F4
:1003D300DD0E02FB81020000950C02DB81010000AF
:1003E300DE0E02D981010000EF0E02FD8100000044
:1003F300A90C02DD81030000AA0C02DB81010000CD
:10040300F00E02D981010000010F02FF81040000F8
:10041300B00C02DB81010000020F1201223EEF0249
:100423001201221DF102120122A7F202120122AAD5
:10043300F202120122E2F2021201222EF30212014F
:1004430022C5F40212012240F50212012261B60311
:1004530012012278B603120122A9B603120122E483
:10046300B6031201220EB70312012238B703120199
:10047300224FB70312012266B7031201227DB7038D
:10048300120122A6B703120122B9B703120122CF28
:10049300B703120122E2B70312012209B8031201C2
:1004A3002266BE021201226ABF02120122A2BF0209
:1004B300120122C5BF02120122D0BF02120122F390
:1004C300BF0212012202C102120122D7C10212018C
:1004D3002252C202120122DAC20212012215C302FF
:1004E3001201224CC302120122DAC302120122B307
:1004F300C40212012213C5021201221EC5021201F7
:10050300229DC502120122A0C502120122A3C50227
:1005130012012232C60212012235C60212012265DD
:10052300C6021201228FC6021201227DC7021201E6
:10053300222FC802120122109003120122389003C5
:100543001201226690031201229D9003120122FBE5
:100553009003120122469103120122919103120189
:1005630022D1910312012217920312012245920311
:100573001201220293031201220C93031201221986
:1005830093031201224C93031201221894031201C4
:10059300222494031201223C940312012246940361
:1005A30012012290BE031201229EBE03120122B643
:1005B300BE03120122CEBE03120122E0DB011201AF
:1005C300228CDC0112012207DD0112012228DE0147
:1005D30012012264DE011201220DDF01120122F455
:1005E300DF0112012258E101120122AFE1011201E0
:1005F3002230E20112012220E3011201226DE30104
:10060300120122F3E30112012225E401120122392E
:10061300E6011201227BE60112012299E601120191
:10062300221CE701120122F0E701120122B8E801BE
:100633001201221BE802120122EEE80212012297A4
:10064300E902120122EAE9021201229AEA021201E4
:100653002226EB0212012212EC0212012241EC02C9
:1006630012012254ED021201229CED0212012271A9
:10067300EE02120122ADEE02120122C9EE021201B4
:1006830022617F001201223A990312012250990339
:10069300120122769903120122929A031201229CDB
:1006A3009A03120122D19B03120122C99C03120156
:1006B30022D68503120122068703120122398703FA
:1006C3001201228387031201224A8903120122F1B4
:1006D300CB011201225BCC01120122BACD0112011E
:1006E30022CACD01120122F7CD011201224ECE0101
:1006F300120122F7CE01120122FECF01120122C8FC
:10070300D00112012228D2011201226BD20112015F
:100713002210D3011201225DD30112012283D301DE
:1007230012012291D50112012296D5011201229BB9
:10073300D701120122E8D7011201225BD80112016D
:10074300228ED80112012230D901120122D9D901F6
:1007530012012211DA0112012214DA011201225CC0
:10076300DA011201229CDA01120122F3DA011201E9
:100773002248AC0312012260AC03120122A8AC038D
:10078300120122BEAC0312012205AD03120122198C
:10079300AE03120122A6AE03120122F1AE0312012F
:1007A300221426001201224F260012012294260051
:1007B300120122542700120122DA27001201223FDC
:1007C30028001201226B2800120122A42800120122
:1007D30022E22A00120122C62C00120122AC2E00B2
:1007E300120122EF2F001201223D32001201224F8B
:1007F30033001201229A3400120122AA3500120199
:1008030022C73500120122023600120122243600CB
:10081300120122873600120122483B00120122DD19
:100823003B001201222E3C00120122553C00120112
:1008330022A73C00120122C53C001201221F3D00E9
:10084300120122083E001201227E3F001201220201
:100853004000120122FD8A03120122078B031201B9
:10086300224A8B03120122658B03120122F58B03AB
:100873001201221D8C031201225A8C0312012291B0
:100883008C03120122BA8C031201222F8D03120151
:1008930022448D03120122598D031201228A8D03F2
:1008A3001201229E8D03120122C38D03120122FD28
:1008B3008D03120122298E03120122618E0312017C
:1008C30022148F031201223F8F031201224A8F0346
:1008D300120122938F03120122BD8F03120122E81A
:1008E3008F0312012277BD03120122039C0212011E
:1008F30022319C021201227F9D021201225F9E027D
:100903001201227E9E02120122FB9E021201223E4E
:100913009F0212012294A00212012255A102120188
:1009230022DCA3021201227DA40212012273A5027A
:1009330012012270A602120122CAA7021201225535
:10094300A802120122C0B90312012229BA0312011B
:10095300227DBA03120122A4BA03120122D5BA03DB
:10096300120122CD94031201223A9503120122812E
:1009730095031201229996031201229597031201FE
:1009830022789803120122A0C802120122E2C802AF
:10099300120122B4C9021201228DCA021201228756
:1009A300CB0212012269CC02120122D2CC02120123
:1009B3002288CD02120122FCCD0212012268CE024E
:1009C30012012291CE021201220BCF02120122A4A4
:1009D300CF0212012209D0021201221ED0021201FB
:1009E3002264D0021201227DD002120122E2D0023F
:1009F300120122E5D00212012276A6031201229EE1
:100A0300A603120122DCA6031201229AA7031201F4
:100A13002201A8031201221DA80312012245A803E3
:100A230012012275A80312012284A80312012201D4
:100A3300A90312012227A9031201228CBB0112016F
:100A4300226ABD011201229CBF01120122D8BF01FB
:100A530012012205C001120122EFC0011201223A44
:100A6300C10112012285C10112012297C1011201A4
:100A730022D7C1011201220CC2011201225AC20162
:100A830012012289C201120122ACC201120122F910
:100A9300C2011201227EC30112012298C501120173
:100AA30022D7C70112012218C801120122BAC901B3
:100AB300120122FBC9011201226ECA01120122BFD7
:100AC300CA011201229ACB01120122C5CB011201E4
:100AD300224C72001201224A7300120122E37900B0
:100AE300120122047C00120122CF7D001201223761
:100AF3007F001201224D5A00120122FC5A001201FA
:100B030022425B00120122785C00120122A65C00E3
:100B13001201223C5E00120122B65E00120122D1B4
:100B23005E001201224C5F00120122A66000120136
:100B3300220662001201220C63001201226D64007E
:100B4300120122866400120122E46400120122D2FF
:100B5300650012012205660012012275660012016A
:100B630022EF660012012239670012012203680096
:100B7300120122D86800120122B769001201224231
:100B83006A00120122B06A00120122246B001201D2
:100B9300224F6B001201220E6C00120122736D00B2
:100BA300120122906D00120122AF6D00120122A0EA
:100BB3006E00120122C56E00120122EF6E001201B7
:100BC300226A6F00120122C46F001201222D7100EC
:100BD300120122DB71001201221C72001201222F6A
:100BE3008E021201227D8E02120122898E021201CF
:100BF30022678F02120122988F02120122C98F02EB
:100C0300120122499002120122819002120122D381
:100C130090021201221091021201222D930212015D
:100C2300225395021201223E9702120122289902B1
:100C3300120122F77F0012012213970112012243AE
:100C430097011201221C9E01120122A19F01120190
:100C5300229EA50112012286A601120122C3A6012A
:100C6300120122E6A60112012217A7011201222076
:100C7300A7011201222AA70112012218A8011201B9
:100C8300220EA9011201220482011201220386010C
:100C9300120122098601120122448D011201225DF3
:100CA300920112012228A00312012222A1031201A0
:100CB3002296A103120122D4A10312012248A20306
:100CC300120122C1A203120122CAA203120122D6D7
:100CD300A203120122EBA20312012229A303120190
:100CE300223FA30312012294FB02120122A1FB0261
:100CF300120122BBFB02120122FAFB02120122386B
:100D0300FC021201229DFC02120122B2FC0212011A
:100D130022BDFC02120122CAFC02120122E1FC02E2
:100D2300120122EFFC02120122FAFC021201220636
:100D3300FD0212012215FD0212012220FD02120101
:100D43002243FD02120122EAFD02120122FAFD02F0
:100D530012012214FE0212012231FE021201224D5F
:100D6300FE0212012272FE021201227DFE02120114
:100D73002292FE02120122A6FE0212012207FF02A4
:100D83001201220DFF0212012213FF021201221986
:100D9300FF0212012231FF0212012264FF0212013B
:100DA3002205800212012289800212012238810267
:100DB300120122978202120122B88402120122A494
:100DC3008502120122D98502120122FB850212013A
:100DD30022AA8602120122A28802120122CB8802D1
:100DE3001201225D89021201228F89021201229CC3
:100DF3008902120122F38902120122198A021201C5
:100E030022868C02120122898D02120122E18D02B7
:100E1300120122D1EA01120122DBEB01120122C2EB
:100E2300EC01120122CCEC01120122EEEC011201C1
:100E330022FAEC0112012293EE01120122C2EE0109
:100E4300120122DEEF0112012237F0011201229D6D
:100E5300F1011201227CF201120122D8F2011201E6
:100E63002245F30112012280F301120122BFF30193
:100E730012012278F60112012292F6011201221EBA
:100E8300F7011201222CF70112012285F701120149
:100E93002293F70112012206F8011201226AF801D6
:100EA300120122B4F801120122D6A802120122F87B
:100EB300A8021201221EAB0212012233AE0212015A
:100EC300224BAF02120122FEAF02120122E0B00256
:100ED3001201221BB80312012240B803120122B2ED
:100EE300B803120122A1E002120122AAE0021201B8
:100EF30022B3E0021201228AE1021201223BE30241
:100F030012012271E302120122ABE302120122E178
:100F1300E3021201221BE4021201224FE402120136
:100F2300227BE402120122C4E402120122FEE40243
:100F330012012247E5021201229FE502120122D487
:100F4300E5021201222FE60212012269E6021201D2
:100F530022BAE602120122F0E6021201222AE70275
:100F630012012258E7021201227BE7021201221822
:100F7300C00312012244C0031201229FC0031201C5
:100F830022A9C003120122B9C00312012212D902FD
:100F930012012227D90212012283D902120122EE61
:100FA300D90212012236DA02120122A0DA02120158
:100FB30022CFDA02120122DDDA021201223FDB0222
:100FC3001201227DDB0212012298DB02120122337D
:100FD300DC02120122D8DC021201225BDD021201C3
:100FE3002294DD021201221FDE0212012276DE02AA
:100FF300120122D5DE02120122E7DE021201220DC6
:10100300DF0212012216DF021201226AE00212013C
:1010130022C3C0031201221BBB03120122F9BB032B
:10102300120122E9B1031201222EB203120122742A
:10103300B2031201223DB403120122B4C20312010E
:1010430022CFC203120122DFC20312012209D102FD
:1010530012012229D1021201229FD202120122ED92
:10106300D2021201220DD30212012275D302120100
:1010730022F7D3021201223DD402120122C9D40263
:1010830012012255BC0312012286BC03120122B0B5
:10109300BC031201220EBD031201220080031201C0
:1010A3002225800312012214C20312012269400087
:1010B3001201221B4200120122BF420012012262CE
:1010C3004300120122194400120122D748001201E1
:1010D300226E4900120122AA4A00120122124B0079
:1010E300120122C64B001201227C4E00120122B6CD
:1010F3004E00120122204F001201227E4F001201E6
:1011030022DC4F0012012239500012012228510023
:101113001201226E5100120122B35100120122D694
:1011230051001201221953001201222D5300120102
:1011330022365400120122755400120122A15400D8
:10114300120122F054001201221155001201224F04
:101153005500120122965700120122D7570012019F
:1011630022755800120122E05800120122195A0078
:1011730012012280C3031201226FA9031201223A32
:10118300AC03120122E1FF0212012267BF03120125
:101193002277BF031201228EBF031201220AC0036A
:1011A3001201226FA30312012219A4031201225B6D
:1011B300A603120122092600120122E57F00120173
:1011C300223DF9011201223AFB01120122C0FB0167
:1011D300120122C7FC011201228BFD011201220917
:1011E300FE01120122ECFE01120122EFFE011201A7
:1011F30022FDFE011201221AFF0112012243FF0107
:101203001201226CFF011201227AFF0112012292C4
:10121300FF011201226CC103120122E5C103120175
:101223002204C20312012281B403120122E8B4038F
:1012330012012293B50312012209B603120122D32C
:101243009C03120122069D031201220C9E0312012C
:1012530022619F0312012204B402120122E0B402AC
:1012630012012227B50212012264B502120122D211
:10127300B5021201222CB6021201229CB6021201FF
:101283002274B70212012267B802120122EBB802DC
:101293001201228EBA0212012219BB02120122A9E3
:1012A300BB0212012242BC0212012259BC021201EA
:1012B3002294BD02120122EABD0212012226AB01D1
:1012C300120122CAAF01120122F3AF011201221C43
:1012D300B001120122CEB001120122ACB2011201FF
:1012E30022FEB30112012245B9011201227EB90186
:1012F300120122C2B901120122CEBA011201221B2C
:10130300AF0312012233AF0312012284AF03120190
:1013130022A7AF0312012292B003120122EAB00303
:1013230012012290B103120122B2B10312012273FE
:10133300F502120122C3F502120122E0F5021201A5
:101343002200F702120122BEF70212012243F90220
:1013530012012257FB0212012236C3031201226239
:10136300C303E066701008A3E066700A08A3E06692
:10137300700408A3E06622C3E7960809E796080904
:10138300E7960809E79622C3E09608A3E09608A328
:10139300E09608A3E09622C008C3E096F50808A3E8
:1013A300E096420808A3E096420808A3E0964508A1
:1013B3007001D3D00822080808EAC0E0EBC0E08639
:1013C300F0E7A4FA180986F0E7A42AFA180986F0C8
:1013D300E7A42AFA180986F0E7A42AFA1986F0E79F
:1013E300A4FBE5F02AFA190886F0E7A42BFBE5F045
:1013F3003AFA190886F0E7A42BFBE5F03AFA181835
:101403000986F0E7A4C5F02BFBE43AFA1908E7C50F
:10141300F0C6A426F6E5F03BFBE43AFA1886F0E7BB
:10142300A4F6E5F00826F6E43B08F6E43A08F6D01D
:10143300E0FBD0E0FA226016080808C6C313C618FA
:10144300C613C618C613C618C613C6D5E0EA22705B
:1014530009080808226016181818C6C333C608C638
:1014630033C608C633C608C633C6D5E0EA22E62724
:10147300F60809E637F60809E637F60809E637F607
:1014830022E026F608A3E036F608A3E036F608A322
:10149300E036F622E026F008A3E036F008A3E036B3
:1014A300F008A3E036F022C3E697F60809E697F6BC
:1014B3000809E697F60809E697F622C3E096F008CE
:1014C300A3E096F008A3E096F008A3E096F022E6E6
:1014D30057F60809E657F60809E657F60809E657E6
:1014E300F622E056F608A3E056F608A3E056F608FF
:1014F300A3E056F622E056F008A3E056F008A3E076
:1015030056F008A3E056F022E0F608A3E0F608A39D
:10151300E0F608A3E0F622E6F008A3E6F008A3E667
:10152300F008A3E6F022E0FAA3E0FBA3E0FCA3E0CB
:10153300FD22EAF0A3EBF0A3ECF0A3EDF022E0F838
:10154300A3E0F9A3E0FAA3E0FB22E8F0A3E9F0A308
:10155300EAF0A3EBF022CAC0E0E6F0A308DAFAD07F
:10156300E0FA22CAC0E0E0A3C582CCC582C583CD20
:10157300C583F0A3C582CCC582C583CDC583DAE616
:10158300D0E0CA22C3E498F8E499F91215C880267A
:10159300C3E49AFAE49BFBE920E7E91215C8E4984F
:1015A300F8E499F922C3E498F8E499F91215C8E428
:1015B30098F8E499F9C3E49AFAE49BFB22EB20E759
:1015C300CFE920E7E0B90010BB0008E88AF084F80F
:1015D300AAF022E4FBC8FA22EB70227B10C833C8BE
:1015E300C933C9335007C39AC3DBF280069A50014B
:1015F3002ADBEAC833F4C8C933F4C9FA2275F00800
:10160300E4C833C8C933C933C99AC99B5004C92A2A
:10161300C93BD5F0ECFBC833F4C8E4C9FA22600D2A
:1016230008C6A2E713C618C613C6D5E0F322600C9A
:1016330008C6C313C618C613C6D5E0F42270042225
:10164300600D18C6C333C608C633C6D5E0F41822E6
:10165300251810AF08F518400C15198008F5184027
:10166300021519D2AF2200C0D0251810AF08F51803
:10167300500C05198008F51850020519D2AFD0D0C7
:10168300222518F58210AF08F518400C15198008AB
:10169300F51840021519D2AF851983222518F58252
:1016A300E43519F583222518F8E43519F9222518AC
:1016B300FAE43519FB222518FCE43519FD22E473FD
:1016C3002518C582C0E0E51934FFC583C0E0E518DD
:1016D300C3958224F810AF08858319858218800882
:1016E300858319858218D2AFCEF0A3E520F0A378C5
:1016F30008E608F0A3DEFAEFF0A3E58124FAF8E6A2
:1017030008F0A3E608F0A3E608F0A30808E608F04B
:10171300A3E608F0A315811581D0E0FED0E0F8150B
:101723008115811581E8C0E0EEC0E0222518C5824D
:10173300C0E0E51934FFC583C0E0E518C3958224F2
:10174300F910AF0885831985821880088583198568
:101753008218D2AFCEF0A3E520F0A37808E608F014
:10176300A3DEFAEFF0A3E58124FBF8E608F0A3E695
:1017730008F0A30808E608F0A3E608F0A31581150E
:1017830081D0E0FED0E0F815811581E8C0E0EEC01D
:10179300E022851983851882E0A3FEE0A3F5207873
:1017A30008E0A3F608DFFAE0A3FFE0A3C0E0E0A3AC
:1017B300C0E0E0A3C0E0E0A3C0E0E0A3C0E010AF5E
:1017C300088582188583198008858218858319D234
:1017D300AFD083D08202011F851983851882E0A3CD
:1017E300FEE0A3F5207808E0A3F608DFFAE0A3FF04
:1017F300E0A3C0E0E0A3C0E0E0A3C0E0E0A3C0E05A
:1018030010AF08858218858319800885821885831F
:1018130019D2AFD083D08222C0D02518C582C0E0B0
:10182300E51934FFC583C0E0E518C3958224F3109E
:10183300AF088583198582188008858319858218E6
:10184300D2AFC8F0A3E9F0A3EAF0A3EBF0A37908C1
:10185300E709F0A3D8FAECF0A3EDF0A3EEF0A3EFC1
:10186300F0A3D0E0F0A3D0E0F0A3D0E0F0A3E52014
:10187300F0A3E5F0F0A322851983851882E0C0E088
:10188300A3E0F9A3E0FAA3E0FBA37808E0F608A33A
:10189300DFFAE0FCA3E0FDA3E0FEA3E0FFA3E0C0CA
:1018A300E0A3E0C0E0A3E0F5D0A3E0F520A3E0A32C
:1018B300F5F010AF08858319858218800885831990
:1018C300858218D2AFD082D083D0E0F8D0E03274D2
:1018D300048006740280027401C0E0F404121684CA
:1018E300D0E0121559227404800474028000CCC025
:1018F300E0EDC0E0E518C39CCCAD1950011D10AF5D
:10190300068C188D1980068C188D19D2AF121566A6
:10191300D0E0FDD0E0FC22D083D082E9C0E0E493A4
:10192300A3C386F0C5F095F0F908E493A386F0C548
:10193300F095F0700BE493A3C3994005E90480028A
:10194300A3E475F002A42582F582E5F03583F583DF
:10195300D0E0F9E493A3C0E0E493C0E022D083D0C5
:1019630082ECC0E0EDC0E0E493A3FCE493A3FDEDBF
:101973004C600D1219ACEC24FFFCED34FFFD80EF3D
:10198300E493A3FCE493A3FDED4C600D1219EBEC7F
:1019930024FFFCED34FFFD80EFD0E0FDD0E0FCE45C
:1019A30093A3C0E0E493C0E022C0E0C3E4939608AD
:1019B3007401939618400FE49366700808740193BA
:1019C300661870007019A3A3C3E493960874019377
:1019D3009618A3A3400DD0E0D0E0D0E002199CA359
:1019E300A3A3A3A3A3D0E022C0E0C0F088F0E493B4
:1019F3006670080874019366187000A8F0A3A370BA
:101A03000BD0F0D0E0D0E0D0E002199CA3A3D0F03B
:031A1300D0E022FE
:101A180074F512172FEAFEEBFFEE2434F8EF3400CA
:101A2800F988088909EE2435F582EF3400F583E05A
:101A3800F8EE2437F582EF3400F583E0F50AEC85FB
:101A48000AF0A4FCAAF0850AF0EDA42AFDE82CF817
:101A5800E43DF97A257B001215C8EA8508828509D4
:101A680083F0F8740758F97401B900028004C3338D
:101A7800D9FCFAE8131313541FF8EE28F8EF3400D2
:101A8800F9E8245DF582E93400F583E05A6008EE50
:101A98002434F582EF802CEE2434F582EF3400F5FF
:101AA80083E0C0E0EE2436F582EF3400F583E0F5FC
:101AB800F0D0E084A8F0EE28F8EF3400F9E82438F4
:101AC800F582E93400F583E0F97F040217DB74F549
:101AD80012172FEAFEEBFFEE2434F582EF3400F5FF
:101AE80083E0C0E0EE2435F582EF3400F583D0E0E2
:101AF800F08E828F83A3A3A3A3A3A3A3C082C083D2
:101B08008E828F83A3A3A3A3A3E0F8A3E0F9D083D5
:101B1800D082E0C398F508A3E099F509EE247FF593
:101B280082EF3400F583E064017069EE2480F58269
:101B3800EF3400F583E0F8A3E0F98E828F83A3A346
:101B4800A3A3A3A3A3E0FCA3E0FD8E828F83A3A39A
:101B5800A3A3A3E0FAA3E0FBC3EA9CEB9D5010C348
:101B6800EC98ED99402EC3EA98EB995027800EC364
:101B7800EA98EB994007C3EC98ED9940177CE17D12
:101B880004EEFAEFFB120B91EE247FF582EF34009E
:101B9800F583E4F0EE2434F8EF3400F9E8FCE9FDCD
:101BA800EE2435F582EF3400F583E0F8EE2437F5BE
:101BB80082EF3400F583E0F50AE508850AF0A4F51C
:101BC80008AAF0850AF0E509A42AF509E82508F825
:101BD800E43509F97A257B001215C8EA8C828D83D1
:101BE800F0F8740758F97401B900028004C333D9B6
:101BF800FCFAE8131313541FF8EE28F8EF3400F931
:101C0800E8245DF582E93400F583E05A6008EE24A3
:101C180034F582EF802CEE2434F582EF3400F5831E
:101C2800E0C0E0EE2436F582EF3400F583E0F5F00D
:101C3800D0E084A8F0EE28F8EF3400F9E82438F56D
:101C480082E93400F583E0F912252D021AD1C08209
:101C5800C083851882851983E0F8A3E0F9C3EA9C5C
:101C6800EB9D5010C3EC98ED99401BC3EA98EB9993
:101C78005014800EC3EA98EB994007C3EC98ED998D
:101C88004004790180027900D083D08222EAC39C83
:101C9800FAEB9DFB2274EF12172F9003A7E064085C
:101CA8006005E06407702A9061C8E060249003D55D
:101CB800E0F4601DE0F875F003A4C8AAF02AF974EE
:101CC800D728FE740339FF8E828F83A3A3A3E07005
:101CD80003021DCD906060E0C0E0EE2468F582EF5D
:101CE8003400F583D0E0F0750C4A750D05750800D1
:101CF800750900E5D914F50AE5D95403F50E6017FE
:101D08007403650E605CE50A6010EE2467F582EFE7
:101D18003400F583E07003021DB2900545E06401CC
:101D2800602AEE2482F582EF3400F583E0600478BF
:101D38000480027800850A08E508C398FA95E0FB54
:101D4800120A4D8A088B09EA45097005120D83802D
:101D580074EE2482F582EF3400F583E070048A0C77
:101D68008B0DE50A6012850C82850D83F50BE5D98C
:101D7800F0A3150BE50B70F6EE2482F582EF340024
:101D8800F583E0604474FC250AF50A780C1218D62D
:101D9800AC0AA90EEEFAEFFB120C2D7402121669AA
:101DA800E97026AA08AB0912122D793D8E828F831D
:101DB800A3A3A3A3E0FA7B00120921EEFAEFFB121A
:101DC8000BA9120C3F790080747403650E60568568
:101DD8000A1075110078101218D6AC0CAD0DAA08AF
:101DE800AB09120C097402121669EE2468F582EF29
:101DF8003400F583E064807004747F8001E0F50CA2
:101E0800780C1218DAE50EF50C780C1218DAA90A13
:101E1800AC08AD099003D5E0FA7B001208E574021E
:101E280012166980139003A7E06408600BAC0CAD30
:101E38000DEEFAEFFB120C99120D8F79017F0A0251
:101E480017DB74F512172F74FC121653EAFEEBFF1A
:101E58008908A2AFE433F509C2AF806AEE2463F8BB
:101E6800EF3400F97A007B00A2AFE433F50AC2AF81
:101E780088828983E0FCA3E0FDEC4D603A88828982
:101E880083E0FAA3E0FB8A828B83E0FCA3E0FD8871
:101E9800828983ECF0A3EDF08A828B83E4F0A3F0CF
:101EA80088828983E0FCA3E0FDEC4D700A88828972
:101EB80083A3A3E4F0A3F0E50AA2E092AF12122DE7
:101EC8009004E8E004F0EE2463F582EF3400F58333
:101ED800E0F8A3E0F9E849603DEE2463F582EF34C9
:101EE80000F583E02402FAA3E03400FBEA2402F5BB
:101EF8000AEB3400F50B780A1218D68A828B83E035
:101F0800FCA3E0F9EEFAEFFB120BCD74021216698E
:101F1800E97003021E649004E8E060639004E9E05D
:101F2800F89004E8E0C398500C740265087050906B
:101F380004EAE0604A8E828F83A3A3A3A3E08518F6
:101F480082851983F0A3E4F09004E8E0F8740212A3
:101F5800169FE8F0A3E4F09004E8E0F89004E7E0C6
:101F680028F0740212169FAC82AD838518828519F9
:101F780083AA82AB8379011208F19004E8E4F0E5C2
:101F880009A2E092AF7404121669021AD100000087
:101F98008521878522C622C0E0C0D0E8C0E0E9C01C
:101FA800E0EAC0E0EBC0E0ECC0E0EDC0E0EEC0E08D
:101FB800C008C009C00AC00BC082C083C0F0A2AF6D
:101FC800E433FEC2AF759B00906182E0A2E050123C
:101FD800E591A2E0500C7591FE7401652170031221
:101FE8001C9DE0A2E55051E591A2E5504B7591DFAB
:101FF8009003A7E064076005E06408702374016536
:1020080021703579019003D5E0FA75F003A4CAA8C8
:10201800F028FB74D72AFA74033BFB121E4A801877
:10202800E0640D70139003C9E004F064287002E4C2
:10203800F07A00E0F9120D95906182E0A2E6400383
:102048000220E6E591A2E640030220E67591BF90E2
:1020580003A7E064057008120CC3120CCF800312AA
:102068000CC9752100120D23E99003A8F07900121C
:102078000D17120B017A017B009003A6E0F9120FED
:10208800E7907803E064427055900549E014F070D9
:102098004DC2AF12209E00782AD0E0F618D0E0F6A4
:1020A800E59F540770057509FF800375097FC4C053
:1020B800E07829E6F50808E65509F509740B78086B
:1020C800121631D0E02508F8906270E0A2E740F8D7
:1020D800E8C333906272F0906270E0D2E0F09061F1
:1020E80081E0A2E35009E5E9A2E3500375E9F7A30B
:1020F800E0A2E75009E591A2E7500375917FEEA2AF
:10210800E092AFD0F0D083D082D00BD00AD009D0E3
:1021180008D0E0FED0E0FDD0E0FCD0E0FBD0E0FA53
:10212800D0E0F9D0E0F8D0D0D0E032C0E0C0D0C0E4
:1021380082C083906183E0A2E05009E5BFA2E0502D
:102148000375BFFEE0A2E15009E5BFA2E1500375A7
:10215800BFFDE0A2E25009E5BFA2E2500375BFFB54
:10216800E0A2E35009E5BFA2E3500375BFF7E0A280
:10217800E45009E5BFA2E4500375BFEFE0A2E550C3
:1021880009E5BFA2E5500375BFDFE0A2E65009E507
:10219800BFA2E6500375BFBFD083D0828088C0E05D
:1021A800C0D0E8C0E0E9C0E0EAC0E0EBC0E0ECC0C5
:1021B800E0EDC0E0C0F0E5A7A2E6500FE5A1A2E679
:1021C800500953A7BF75A1BF12220BE5A7A2E5507E
:1021D8000CE5A1A2E5500653A7DF75A1DFE5A7A28C
:1021E800E15009E5A1A2E1500375A1FDE5A7A2E22E
:1021F800500CE5A1A2E2500653A7FB75A1FBD0F055
:1022080002211C74F812172F7521019003A7E064AE
:10221800067015120C5D8A828B83A3A3A3A3A3A3C4
:10222800E0FAA3E0FB120CB1A2AFE433FED2AF9008
:1022380003ADE0640170187A207B009003A6E0F9F2
:102248001210717A207B009003A6E0F9120FED902E
:102258006182E0D2E6F0900546E0602185C62280E2
:10226800169003ACE064017008E5C654F84405F51F
:10227800C653BEFC121F987401652160E4EEA2E00B
:1022880092AF7F010217DB008E238F248582288579
:102298008327851882851983E0CEA3E0CF8528821D
:1022A800852783EBC9EAC8EDCBECCA75F010C3E803
:1022B80033C8E933C9EA33CAEB33CBC3EA9EF52600
:1022C800EB9FF525B35004AB25AA26EC33CCED33B0
:1022D800CDD5F0DAAE23AF242274ED12172F8A0879
:1022E8008B098C0A8D0B741312169F780C12150B20
:1022F8007808790C12137A7510017511C8751200D7
:1023080075130050127808790C1214AA78107908FD
:1023180012137A50168010780C79081214AA7810C3
:10232800790C12137A40047901800279007F0C023B
:1023380017DB74ED12172F8A088B098C0A8D0B7422
:102348001312169F780C12150B780C790812137A51
:1023580040117808790C1214AAAA08AB09AC0AAD86
:102368000B80227510007511007512007513017825
:1023780010790C1214AA78107908121471AA10ABEB
:1023880011AC12AD1380A68A828B837508FF75097C
:10239800FF750AFF750B0078081214F87F040217FE
:1023A800DB74F512172F8C828D83780812150B8A2F
:1023B800828B8378081214BEEA2404F8EB3400F9FF
:1023C8008C828D83A3A3A3A3E0FCA3E0FD8882896C
:1023D80083C3E09CF0A3E09DF088828983C3E094E6
:1023E80020A3E0944E40268A828B837508FF7509E6
:1023F800FF750AFF750BFF78081214978A828B8382
:10240800A3A3A3A3E02420F0A3E0344EF002238F7B
:1024180074F512172FE9FE9004FCE0FAA3E0FBEE36
:10242800C333F8E433F9742428F582748139F583C9
:10243800E02AF508A3E03BF50978081218D67A4097
:102448007B427C0F7D0012229074021216698A0862
:102458008B098C0A8D0B74107808121439AA08ABF2
:10246800097F040217DB74F112172F8A0C8B0D8C6D
:102478000E8D0F740F12169FE0FAA3E0FB74111271
:10248800169FE0F508A3E0F50978081218D6EA24A3
:1024980001F508EB3400F509E4F50AF50B780C7939
:1024A800081213B9750871750902780C79081213A6
:1024B800B9AA0CAB0DAC0EAD0F1222907402121615
:1024C800698B09EA450960047A0180027A00EC2ADE
:1024D800FCED3400FD741312169FE0F8A3E0F9E850
:1024E800FEE9FFECF8EDF97A717B021215C888084D
:1024F80089098E828F83780812151AECF8EDF97A1B
:10250800717B021215C88A088B097405780812169F
:10251800408E828F83A3A3A3A3E508F0A3E509F067
:102528007F080217DBC082C083E9906000F0D08387
:10253800D08222C2AF02000022C0E074F212181B3F
:10254800A2AFE433FED2AFC2C0E5D1A2E450065335
:10255800D1EF12120FEEF8EEA2E092AF7F0102184F
:102568007AC0E0C0D0E8C0E0E9C0E0A2AFE433F848
:10257800D2AFC2C7E8F9E8A2E092AFD0E0F9D0E064
:10258800F8D0D0D0E032C0E0C0D0E8C0E0E9C0E088
:10259800C008C009C082C083A2AFE433F9D2AF90AB
:1025A80009D1E0F89009D2E068700B539AFB9009C2
:1025B800D37401F08031C2E99009D1E0F5087401C3
:1025C80025089009D1F075090074512508F5827421
:1025D800093509F583E0F5C19009D1E0C39480403D
:1025E800069009D17400F0E9F8E9A2E092AFD0832F
:1025F800D082D009D008D0E0F9D0E0F8D0D0D0E02F
:102608003202011FFFFFFFFFFFFFFFFF74F71216E3
:10261800C3E99002E6F07C1E7D037AFF7BFF120877
:102628002B9002E774FFF0A3F0A3E4F0A3F0790580
:102638001207B39002E6E0F91206DB7A497B08122A
:1026480009FF7F0102179574F41216C38A088B09D3
:10265800EB548060309002E6E0F9120FCF8A0A8BC3
:102668000BAE0AAF0BEE4F60138E828F83E064B01F
:1026780070031207CBEEFAEFFB120FBDAA08E509AB
:102688006480FB80047A007B0002286674F21216CC
:10269800C374FC121653EAFEEBFFEE4F6038740267
:1026A80012169FEEF0A3EF122ACBECF0A3ED122A3C
:1026B800CBAA82AB831206D5E9F50870737412129F
:1026C800169F12367FE50A450B60658E828F83124E
:1026D8002742EE4F700575080280557A067B001276
:1026E800102F8A0C8B0DA80CA90DE84970057508E8
:1026F80013803D88828983E412274CA3A3EEF0A3BC
:10270800EF123B18E50AF0A3E50BF09002EC122754
:10271800D49002EC6017E0FCA3E08003EAFCEBFD38
:102728008C828D831227D470F38C828D831235A40A
:10273800A9087404121669023D1AA3A3A3A3E0FE14
:10274800A3E0FF22F0A3F0888289832274F2121694
:10275800C3890AE975F017A4FEAFF09002EBE4F024
:102768009002E91227D4600A1210359002E9E4F0C9
:10277800A3F0EEFAEFFB12102F8A088B09EA45093D
:10278800602FEEFCEFFD7900120FAB9002E9E5082F
:10279800F0A3E509F07B0080081227BEE4F0A3F05F
:1027A8000BEBC3950A40F2E50A9002EBF079008042
:1027B800027913023D1AEB75F017A4F8A9F09002FC
:1027C800E9E028FAA3E0398A82F5832212333AEA4B
:1027D8004B2274F41216C3750800750900740C12A4
:1027E800169F123AECFEE9FF800CE5082401F50873
:1027F800E5093400F509C3E5089CE5099D503285D3
:10280800080A85090B7403780A121640EA250AF8A3
:10281800EB350BF988828983A3A3A3A3A3A312365C
:102828007FEE650A7003EF650B70BFE8FAE9FB807D
:10283800047A007B00802774F41216C37900EAA298
:10284800E0501B75087475098178081218D67C0445
:102858007D007AA67B0D1207AD74021216697F04FB
:10286800021795C082C0839002EC12289E601C88D3
:10287800828983A3A3E06A7003A3E06B88828983BB
:1028880070E8A3A3A3A312333680047A007B00D098
:1028980083D08202011F123DEDE8492274EE121620
:1028A800C374FC121653EAFEEBFF85188285198360
:1028B800E4F0A3F0EE2402123588EE2405122AB9BA
:1028C800EE2404F50EEF122E9EE024FE603924FC5F
:1028D800604624FE605224FE605E24FE70030229D6
:1028E800BE24FE7003022A3624FE7003022A452401
:1028F800FE7003022A5424FC7003022A6324FE702B
:1029080003022A72022AAF9003057417F0A3E41297
:102918002AD3120453022AAF851882851983AC8200
:10292800AD831207D1022A7F851882851983AC826C
:10293800AD831207D7022A7F850C08850D0974021A
:1029480012169FAC82AD83850882850983123336BF
:102958001206F98A0C8B0DAC0CAD0DEC4D6042E4FF
:10296800F50CF50D780C1218D6750C05750D037855
:102978000C1218D6750C06750D03780C1218D6743F
:102988000812169F1218ED791612333012081374B4
:1029980008121669E9F50C700B12332C12046B80BF
:1029A8000F750C01850882850983122AC11235A486
:1029B800850C08022A82740212169FAC82AD8385A8
:1029C8000C82850D831233361206F98A108B11ACEE
:1029D80010AD11EC4D6043850C82850D83A3A312C5
:1029E80018ED75100575110378101218D6751006B4
:1029F80075110378101218D6740812169F1218ED64
:102A080079161233301208137408121669E9F50999
:102A1800700B12332C120471800F750901850C821A
:102A2800850D83122AC11235A4850908804C8518A2
:102A380082851983AC82AD831207DD803A851882BE
:102A4800851983AC82AD831207E3802B85188285B4
:102A58001983AC82AD831207E9801C851882851919
:102A680083AC82AD831207EF800D851882851983A8
:102A7800AC82AD831207F5E9F508E50860298E8276
:102A88008F83A3E06414601F850E82850F83E09016
:102A98000305122ACB123DE99003061235A4E50876
:102AA800A3122AD312044DEEFAEFFB120777023471
:102AB80090F50CEF3400F50D22123DED8518828556
:102AC800198322F085188285198322F07C057D03FD
:102AD800850A82850B8312333A2274EE1216C37468
:102AE800FC1216538A0A8B0B8C0E8D0FEA2405F5FF
:102AF80008EB3400F5097C157D0079007A057B0325
:102B0800120FABE5082402F50CE509122ABC85185A
:102B18008285198385821085831178101218D685CD
:102B28000882850983A3A3A3A3122FE61218D6E56A
:102B3800082405F510E5093400F51178101218D6A7
:102B4800850C82850D831233401206F37406121623
:102B5800698A108B11AE10AF11E50A2402F50AE557
:102B68000B12358BEE4F7003022CA88017740212DB
:102B7800169F12333688828983EAF0A3EBF090031C
:102B880005E004F0900305E0C394054003022CA877
:102B9800E4F510F51178101218D67510EE751102BB
:102BA80078101218D67510EF75110278101218D611
:102BB800740612169F1218ED7910EEFCEFFD123311
:102BC800301208137408121669E9705E8508828548
:102BD8000983A3A3A3A3A3A3A3E0F89002EEE0684C
:102BE8007048122FE61218D67CEF7D02E5082408FB
:102BF800FAE5093400FB120FA57402121669E960A0
:102C0800298E828F83A3A3A3A3123336900305E0F2
:102C1800F5107402781012164074062510F58274A7
:102C2800033511F583EAF0A3EBF0740212169F85C1
:102C3800821085831178101218D6740212169F120A
:102C480018ED850C82850D83123DFE1206FF740473
:102C58001216698A108B11AE10AF11900305E0F5BA
:102C6800107511007402781012164074052510F8BA
:102C780074033511F988828983A31227D47003025B
:102C88002B6CE82403F8E93400F9EE4F6003022BBB
:102C9800758882898374FFF0A3F0900305E004F03F
:102CA800900305E0600A12332C12045F7900800B50
:102CB80085088285098312359B790A02349074EA63
:102CC8001216C374FE1216538C128D13EA2405F5DE
:102CD8000CEB123F68122746750800750900EA24B4
:102CE80002F510EB3400F511851882851983858269
:102CF8000A85830B780A1218D6850C82850D83A362
:102D0800A3A3A3122EA81218D6E50C2405F50AE5EC
:102D18000D12358B780A1218D6850C82850D831210
:102D28003DFC1206F374061216698A0A8B0BEA45F3
:102D38000B7003022E59EA2404F50EEB122E9E1294
:102D480027468A828B83A3A3A3E0F9851082851185
:102D5800831233361206E1E9F5096003022E59E4BD
:102D6800F514F51578141218D67514EE7515027841
:102D7800141218D67514EF75150278141218D67433
:102D88000612169F1218ED7913AC0AAD0B85108246
:102D98008511831233361208137408121669E9F57F
:102DA800096003022E599002EEE0F8E5087009E088
:102DB8002402900306F08017900306E0FCE8240242
:102DC800FAE43400FBEA6C7001EB6003022E5D85C7
:102DD8000882AA82122FDD9414122FD55073850E03
:102DE80082850F83E0C0E074072A122E95D0E0F0A8
:102DF8000508850E82850F83A3E0C0E085080A7464
:102E080007250A122E95D0E0F005089002EE122E42
:102E1800A81218D67CEF7D0285080A7407250AFADD
:102E280074033400FB120F9374021216699002EEB9
:102E3800E02508F50874FF6E700374FF6F6012EEEA
:102E480024010EEF3400FFE508C394145003022C4C
:102E5800F0E5086013123221851082851183123340
:102E68003612046579008014E509700375090A852E
:102E78001282851383EEF0A3EFF0A90974021216EB
:102E8800697F0E02179585080C7407250CF5827466
:102E9800033400F583223400F50F850E82F5832272
:102EA800123B2B2274EE1216C374FE1216538C0EAC
:102EB8008D0FEA2405F50CEB122ABC750B00900364
:102EC80005E4F0F50AEA2402F508EB3400F5098078
:102ED80049900305E0FA9002EEE0F8122FDD94170E
:102EE800122FD5400D900305E0F87416C398900290
:102EF800EEF0122FE61218D67CEF7D0274062AFA3D
:102F080074033400FB120F9374021216699002EED8
:102F1800E0F8900305E028F0050AE50C2416F58290
:102F2800E50D122E99E0F8E50AC3984003022FBE7A
:102F3800900305E0C39416507DE50AC333F8E433E3
:102F4800F9E50C28FEE50D39FF851882851983AC53
:102F580082AD838E828F831233361206F98A108BE4
:102F680011AC10AD11EC4D7005750B018043E4F503
:102F780010F51178101218D67510EE751102781028
:102F88001218D67510EF75110278101218D674063B
:102F980012169F1218ED7916850882850983123357
:102FA800361208137408121669E9F50B7003022E1D
:102FB800D912359780107C057D03850882850983A1
:102FC800123336120477A90B7402023492E9940082
:102FD800C365D03322EA28F8E43400F9E822E0F5A2
:102FE8001075110078102274EA1216C374FC1216B8
:102FF800538A0C8B0D8C128D13EA2405F50AEB12FB
:10300800358B750800750900E50A2402F510E50BF3
:103018003400F511740212169F85820E85830F788D
:103028000E1218D6850A82850B83A3A3A3A3123A8E
:10303800D71218D6E50A2405F50EE50B3400F50F6E
:10304800780E1218D68510828511831235911233A5
:10305800301206F374061216698A0E8B0FAE0EAF85
:103068000FE50C2402F50EE50D3400F50F804088BD
:1030780082898374FFF00508122E8E74FFF005080C
:103088009002EEE0F50C750D00780C1218D67CEF66
:103098007D0285080C7407250CFA74033400FB12B2
:1030A8000F9374021216699002EEE02508F508EEF7
:1030B8004F60718E828F83A3A3A3E0F9850E82856A
:1030C8000F831233361206E1E9F509EE2404122AB9
:1030D800B9E97044E4F514F51578141218D6751486
:1030E800EE75150278141218D67514EF7515027856
:1030F800141218D6740812169F1218ED7911EEFCE6
:10310800EFFD850E82850F8312333612081374087B
:10311800121669E9F5096027850C82850D8312323C
:10312800171235A4E50870030231FD123221850E0D
:1031380082850F8312333612047D7900023212859C
:103148000882AA82EA9002EE7009E024049003063D
:10315800F08022E0F8900306E0F514E82404FCE48B
:103168003400FDEC65147001ED70C0122FDD94126F
:10317800122FD550B6850C82850D83E0C0E0740708
:103188002A122E95D0E0F00508850C82850D83A3C0
:10319800E0C0E0122E8ED0E012323385820C858397
:1031A8000D780C1218D6740412169F1218ED85109B
:1031B80082851183123DFE1206FF74041216698A75
:1031C8000C8B0DAE0CAF0D85080C7407250CF8742C
:1031D800033400F9EE4F70030230778518828519A1
:1031E80083E088828983123233A3E0C0E0122E8EF6
:1031F800D0E0023085E509700375090A850A8285E1
:103208000B831232171235A4A9097404022E8612F0
:103218003DED85128285138322900306E0F5F0E5E3
:103228000884900305F07C057D0322F005088518C5
:10323800828519832274EC1216C374FE1216538AFF
:10324800088B098C0E8D0FEA2405FEEB3400FF85F0
:103258001882851983AC82AD838E828F83123336B0
:103268001206F98A0A8B0BEE2418122AB9EA450BC2
:103278007003023307123479503285188285198316
:103288001233361208078A108B11EA4511606B79E0
:1032980012AC0AAD0B850882850983123336851076
:1032A800828511831216C1E9F50A7058E4F50AF50A
:1032B8000B780A1218D68E828F83A3A3E0F50A78BA
:1032C8000A1218D6EE2403123588780A1218D68EF8
:1032D800828F831233401208197406121669E9F5B1
:1032E8000A7021850C82850D83E0701F8508828510
:1032F80009831233361204838011750A0E8009750A
:103308000A018004E50A6003123597850C82850D51
:1033180083E0600479008002A90A74021216697FAA
:103328000C0217957C057D03850A82850B83123371
:103338003A22E0FAA3E0FB22E0FCA3E0FD85088244
:1033480085098312333A2274EE1216C374FE1216DC
:10335800538A088B098C0C8D0DEA2405FEEB34008A
:10336800FF750E00851882851983AC82AD838E8225
:103378008F831233361206F98A0A8B0BEA450B70D3
:103388000302346512347950358518828519831201
:1033980033361208078A0E8B0FEA450F605E7912E2
:1033A800AC0AAD0B850882850983123336850E82F7
:1033B800850F831216C1E9F50E600302346885088B
:1033C8008285098312367FAA0AFB1207FB8A108BB3
:1033D80011A810A911E849701E7AFF7BFF1207FB9C
:1033E8008A108B11A810A911E849606C888289831A
:1033F800E50AF0A3E50BF0750A008007750E0E804C
:103408005F050A9002EBE0FAE50AC39A504AE50A1A
:1034180075F017A4FAABF088828983A3A3E02AFA8F
:10342800A3E03BFB8A828B83123591EC4D70D275F9
:103438000A17750B00780A1218D6EEFCEFFD120F6A
:10344800937402121669EEFCEFFD850882850983E4
:103458001233361204898014750E098003750E0123
:10346800123DE5850C82850D831235A4A90E022F25
:10347800D0E5082402F508E5093400F5098A828BAD
:1034880083A3A3A3E0A2E52274041216697F0A02AB
:10349800179574EC1216C38C108D11EA2405F50CDF
:1034A800EB122ABC750F00EA2402F50AEB12358BE1
:1034B800850A82F5831233361207FB8A088B09EADC
:1034C8004509700302357D750E008071850C828573
:1034D8000D83E06401704F8E828F83A3A31218EDD1
:1034E8008E828F83A3A3A3A3E0F51275130078122D
:1034F8001218D6EE2405F512EF3400F513781212DF
:1035080018D61233301208197406121669E9F50F25
:103518006014850C82850D83E4F0123DE5851082E8
:103528008511831235A47C177D007900EEFAEFFB34
:10353800120FAB8E828F83E4F0A3F0050E9002EB9E
:10354800E0F8E50EC398501EE50E75F017A4F8A92B
:10355800F0850882850983A3A3123F72123591EC86
:103568004D60030234D485088285098374FFF0A373
:10357800F0E50F700612333012048FA90F023327BB
:10358800F50AEF3400F50B22A3E0FCA3E0FD228E40
:10359800828F83123DED850E82850F83E8F0A3E9C3
:1035A800F022C082C0839002E7E06A7003A3E06B58
:1035B80070067AE77B0280047A007B00022897C0B5
:1035C80082C08378008C828D83E06A7003A3E06BED
:1035D8007010E875F003A4F8A9F0EC28FAED39FBAF
:1035E8008015088C828D83A3A3A3E06A7003A3E0EF
:1035F8006B60DF7A007B0002289774F61216C312FC
:1036080007C58A828B83E582458370067A007B0032
:103618008007A3A3A3A3123336023C9674F21216B2
:10362800C3E9FE740E12169F12367F741012169F8D
:10363800123AF78C828D83E064027036A3123DF350
:10364800F50CA3E0F9A80C7402687003742969707A
:1036580021750C02750D00780C1218D6780812180E
:10366800D6780A1218D6EEF912083D7406121669B1
:1036780080027901023D1AE0F50AA3E0F50B2274F5
:10368800E81216C374FB121653E98518828519834C
:10369800F08A168B17ECFEEDFF751000741D1216DC
:1036A8009F123DE9741D12169F1235A48E828F83D6
:1036B800A3A3A3E0A2E4502D741D12169F12333663
:1036C8001208078A828B83E58245837003023AC811
:1036D800790AEEFCEFFDAA16AB171216C1E9F51030
:1036E8006003023ACB741F12169F123AF774211224
:1036F800169F12367F742312169FE0F50EA3E0F58D
:103708000F8E828F83E064026003023A76A3123D33
:10371800E9850882850983A3858212858313EE24AF
:1037280006122AB988828983E0FAA3E0F9EA24001C
:10373800F514E439F5157814121960010000280110
:10374800286B3707000228303803289D370029677F
:103758003901299239022933390329673904291192
:103768003A763AE50E450F6003023A71850C828578
:103778000D83123AECFAE9FB8A828B83E0850A8290
:10378800850B83123B221218D68A828B83A3E0FC16
:10379800A3E00239FBE50E450F6003023A71850A82
:1037A80082850B837401F0123AFF850882850983AC
:1037B800F07C007D008E828F83A3A3A3A3E0240165
:1037C800FAA3E03400FB1206F9EA4B60418A828BC7
:1037D80083E02402F8850A82850B83E028F0EA2436
:1037E80004F8EB3400F988828983E0851282851316
:1037F80083123B34123B221218D68A828B831235ED
:1038080090E5082403FAE5093400FB023A00850A2A
:1038180082850B83E02404F07C047D007900AA12E1
:10382800AB13120FAB023ACBE50E450F6003023A19
:1038380071123AFFFEA3E0FF850A82850B837404A8
:10384800F0EE850882850983F0EF8512828513835F
:10385800F0740312169FAC82AD83EEFAEFFB1206EA
:10386800F98A0C8B0DEA450D70030239148A828B94
:1038780083A3A3122742740112169F85820E8583A3
:103888000F780E1218D6740512169F1218ED7CFFC9
:103898007DFF1206FF74041216698B0FEA450F703C
:1038A80033850C82850D83123AD71218D6850C827F
:1038B800850D83A31218ED7C027D007AD77B8112D7
:1038C800052B7404121669E9700A740112169F74A4
:1038D800FFF0A3F08E828F83E064027039750C02CA
:1038E800750D00780C1218D68E828F83123590E5EC
:1038F800082404FAE5093400FB120F937402121627
:1039080069850A82850B83E02402800974011216F6
:103918009FEEF0A3EFF0740112169F123AE8F074CC
:103928000112169FA3123AE0023A6BE50E450F60AA
:1039380003023A71850C82850D83123591AA16AB64
:1039480017120831850A82850B837402F0EA85080C
:1039580082850983F0851282851383EB023A6EE52E
:103968000E450F6003023A71123AFFF8A3E0F98599
:103978000A82850B837402F0E8850882850983F042
:10398800E9851282851383023A6E850C82850D8340
:10399800123336120F8DEAFC8C82A882C3950EE48E
:1039A800950F405FE8650E7002E50F70047C00809B
:1039B80022851882851983E0FAE50E2AFAE50F3484
:1039C80000FBC3EA98EB94005003E08005E50ECCB9
:1039D800C39CFCEC850A82850B83F08C0A750B006E
:1039E800780A1218D6850C82850D83E0250EFCA373
:1039F800E0350FFDAA08AB09120F9374021216697D
:103A0800023ACB751007023ACBE50E450F705A857E
:103A18000C82850D83123DE9850A82850B83740724
:103A280012274E123AE012274EA3E0851282851320
:103A380083F0E82402FAE93400FB8A828B83123A85
:103A4800E0123B0F123AE8A3123B18123AF1F0E8E1
:103A58002405F8E93400F988828983123AF1A3121F
:103A68003B34A3A3A3A3F0805A75100B8055741D93
:103A780012169F1233361207C58A828B83E5824558
:103A880083603D123DE9880C890DE8450D60317869
:103A98000E1218D6780A1218D678081218D6740694
:103AA80012169FE0F9EEFCEFFDAA16AB17850C8203
:103AB800850D831216C17406121669E9F510800384
:103AC80075100EA91074051216697F10021795E07B
:103AD800F50E750F00780E22E0850882850983228D
:103AE800123B3E22123DEDE822123B3EA3A322E008
:103AF800F508A3E0F50922850C82850D83E0F8A37B
:103B0800E0F5838882E022A3A3F08A828B83A32234
:103B1800F088828983A3A3A3A322F08A828B8312CD
:103B28003B2B22E0F50A750B00780A22F08882897F
:103B380083A3123B3E22E0850882850983A3A32242
:103B480074EE1216C374FE1216538A0A8B0BECFA23
:103B5800EDFB741412169FE0F510A3E0F51174162E
:103B680012169FE0FE741812169FE0F50EA3E0F5FA
:103B78000F851882851983AC82AD831206F98A0CE9
:103B88008B0DEA450D6049851882851983123336F5
:103B98001207C58A828B83E5824583602FA3A3120F
:103BA8003AF7E50845096024780E1218D6781012FD
:103BB80018D6EEF9AC0CAD0DAA0AAB0B85088285B8
:103BC80009831216C174041216698006790E8002E0
:103BD8007901022FD074F61216C374FE12165374AC
:103BE8000C12169F123AEC851882851983F074011D
:103BF80012169FE9F0E4F508F50978081218D67549
:103C0800080278081218D6740412169F858208854F
:103C1800830978081218D6120819740612166974DE
:103C280002121669806874F71216C3EAFEEBFF8960
:103C3800087C1E7D03120831EA5402600BA908EEC5
:103C4800FAEFFB1206ED8002790102264A74F61299
:103C580016C374FF6A700374FF6B70168C828D83B1
:103C6800123C9BE4F08C828D83A3A3A3123C9BA3FC
:103C780080181208018A088B09A808A909E8496070
:103C88000D8882898374FF12274CA3A3E4F07F0276
:103C980002179574FFF0A3F08C828D83A3A322747E
:103CA800F61216C31208018A828B83E58245836067
:103CB80006A3A3E0FA80027A007B0080D174F21296
:103CC80016C38A088B09ECFEEDFF740E12169FE0EE
:103CD800F50A1208018A0C8B0DA80CA90DE8497089
:103CE80026EEFCEFFD7AFF7BFF1208018A0C8B0D94
:103CF800A80CA90DE8497004791180168882898377
:103D0800E508F0A3E509F088828983A3A3E50AF012
:103D180079007F0602179574EE1216C3EAFEEBFFD0
:103D28008C088D09890C741412169F123DE97416BB
:103D380012169F123336750D00E8496003023DDD07
:103D48007402650C6003023DD8741212169F123D6E
:103D5800F3FCA3E0F9EC2400F50EE439F50FEAF4DE
:103D6800F8EBF4F9EC58F8E50F59F9E849705CE517
:103D7800082406F8ED3400F9880A890B8882F5834F
:103D8800123DFE1208318A108B11E50E6510700481
:103D9800E50F65116042780E1218D6850A82850BE8
:103DA80083123DFE1208377402121669E9F50D7088
:103DB80027780E1218D6850882850983A3A3123D99
:103DC800FC12084F7402121669800D750D80800868
:103DD800750D0D8003750D0BA90D0234958E828F1C
:103DE80083123DED22E0F8A3E0F922123DED88822E
:103DF8008983E022A3A3E0FCA3E0FDEEFAEFFB2217
:103E080074E81216C374E71216538518828519834D
:103E1800EAF0A3EBF08C168D17890E75080075096A
:103E280000743112169FE0F512A3E0F513743312F3
:103E3800169FE0F514A3E0F515743512169FE0F50A
:103E48000FE50975F003A4F8A9F085188285198390
:103E5800123F72E0F47003A3E0F47003023F55EEE2
:103E68002402F50CEF123F68E07003023F558516F7
:103E78000A85170B780A1218D6AC14AD15AA12AB1E
:103E8800131207B974021216698A0A8B0BEA450BDA
:103E98007003023F55E4F510F51178101218D67426
:103EA8000612169F85821085831178101218D67411
:103EB8000912169F85821085831178101218D685ED
:103EC8001282851383A3A3A3A31218ED7914AC0A55
:103ED800AD0B8E828F8312333612081374081216B4
:103EE80069E97069850A82850B83A3A3A3A3123DA0
:103EF800E9740212169F1235A4850C82850D83E0A1
:103F0800A2E05018A90E740212169FAC82AD838EDF
:103F1800828F83123336120711E94208850C828595
:103F28000D83E0A2E15026E50FF50A780A1218DAA7
:103F3800A90E740312169FAC82AD838E828F8312F2
:103F4800333612070B7401121669E942080509E5B0
:103F580009C394025003023E49A9087419023ACFD2
:103F68003400F50D850C82F58322E028FEA3E039A4
:103F7800FF8E828F832274F21216C3EAFEEBFF894A
:103F88000B7401650B600E7402650B706A7901127F
:103F98000A1DE97062EEFAEFFB1207FB8A088B092B
:103FA800EA45096047750A00800B7C177D00790097
:103FB800120FAB050A9002EBE0F8E50AC39850210E
:103FC800E50A75F017A4F8A9F0850882850983A386
:103FD800A3E028FAA3E039FB8A828B8312289E701B
:103FE800C985088285098374FFF0A3F07C1E7D03D0
:103FF800EEFAEFFB12082B023D1A74F21216C38A6E
:10400800088B09ECFEEDFF740E12169F12367F9096
:104018000DA4E0F4603D7A097B00120FB7EA4B600B
:10402800328A828B8374B1F0A3E4123B11A3123B52
:104038000FA3E508F0A3E50912405EEEF0A3EF1226
:10404800405EA3A3E50AF0A3E50BF0900DA4E0F908
:10405800120FC3023D1AF08A828B83A3A3A3A3A3E2
:104068002274F01216C374D7121653E9C0E08518EB
:1040780082851983D0E0F0740112169FEAF0A3EB51
:10408800F08C0E8D0F90817A74031216B974061293
:10409800156674031216B9740112169FE0FAA3E0AC
:1040A800FB851882851983E0F91210B3E9FEEEC387
:1040B800940A40030241F6EEF91210E9E9FF900E66
:1040C80090E064027004740180027400F5087808B6
:1040D8001218DA743A12169FE0FDEFFCEEF9AA0EF8
:1040E800AB0F12115B74011216697C147D00790004
:1040F80074151216B1120FAB8A088B0985080A8548
:10410800090B74151216B97A1075F006EEA424245A
:10411800F91212B1E9703B7C1079FF74151216B1CF
:1041280012100BE9702C742512169FAC82AD837A9D
:104138000475F006EEA42425F91212B1E9F5087405
:10414800151216B9EFA2E0E433F9AA0EAB0F120567
:10415800C1E974091216B97A0C74702EF91212B1E9
:10416800E9707974091216B11210DD750800E508B6
:10417800C394045067E508F87900E875F003A4C80B
:10418800AAF075F000A42AFA75F003E9A42AF974D4
:104198000912169FE58228F50CE58339F50D850C83
:1041A80082850D83E0F8A3E0F9E849602B850C824D
:1041B800850D83A3A3E0F50A750B00780A1218D6BB
:1041C800850C82850D83E0FCA3E0FDAA0EAB0F12DF
:1041D800081F7402121669E905088092EFA2E150DF
:1041E8000D90076AE0F9AA0EAB0F120825E9743999
:1041F80012169FE06404700F900E90E0640270073E
:10420800AA0EAB0F121155790074291216697F088E
:1042180002179574F21216C3890B8A088B09ECFEF3
:10422800EDFF750A0AE50B600B1460081460411471
:10423800605F807CAA08AB091210FBE9F50AE50A61
:10424800C3940A506BEE4F6067750C06750D0078C5
:104258000C1218D6AC08AD09EEFAEFFB120F9374E6
:10426800021216698A0C8B0D850C82850D8380409D
:10427800AA08AB091210F5E9F50AE50AC3940A5031
:104288002FEE4F602BEEFAEFFBA90A1210EFE98030
:104298001FAA08AB09121101E9F50AE50AC3940A35
:1042A800500EEE4F600AEEFAEFFBA90A1210EFE982
:1042B800A90A7F0602179574F21216C38A0C8B0D91
:1042C800E9FF7E1574FF650C700474FF650D702A94
:1042D800750800E508C3940A5014EFFC7A027B00C5
:1042E800A9081210CBE960027E00050880E5EF609E
:1042F800627A437B11120A2F8059AA0CAB0D120A5D
:10430800118A088B0985080A85090BE50A450B609F
:10431800407C007D00E50A2405FAE4350BFB850A9C
:1043280082850B83A3A3A3A3E0F91210B3E9F508D0
:10433800E508C3940A500EEFFC7A027B00A9081224
:1043480010CBE97E00EF600BAA0AAB0B1211438079
:10435800027E14EEF97F0602179574F01216C374E4
:10436800FE121653851882851983EAF0A3EBF08CA8
:104378000A8D0B741212169FE0F50EA3E0F50F7E5E
:1043880015851882851983E064FF7004A3E064FF33
:10439800701D7F00EFC3940A506BAC0EAD0FAA0AD4
:1043A800AB0BEFF91210D1E960027E000F80E585B2
:1043B8001882851983E0FAA3E0FB120A118A0C8B94
:1043C8000D850C08850D09E508450960367C007DDA
:1043D80000E5082405FAE43509FB85088285098388
:1043E800A3A3A3A3E0F91210B3E9FFEFC3940A5003
:1043F80014AC0EAD0FAA0AAB0BEFF91210D1E97E7F
:104408000080027E14EEF974021216697F08021702
:104418009574F21216C374EC1216538A0A8B0B8524
:104428000A82850B83A3A3E024FA700302485D2463
:10443800FD70030246D51470030245091460102468
:10444800FD700302467D1470030247180248CBAE84
:104458000AAF0B900784E0F8A3E0F9E8496066909A
:104468000784E0F8A3E0F5838882E0F8A3E0F9E8A0
:10447800496052EE240CF582E43FF583E0F50878B4
:10448800081218DAEE240BF582E43FF583E0F98E82
:10449800828F83A3A3A3A3A3A3A3A3A3E0FCA3E066
:1044A800FDEE2403FAE43FFB900784E0F8A3E0F56F
:1044B800838882E0F8A3E0F58388821216C174012C
:1044C80012166980398E828F83A3A3A3A3A3A3A303
:1044D800A3A31218ED9007801215291205D37402B0
:1044E800121669E9601879018E828F83A3A3A3A3AA
:1044F800A3A3A3A3A3E0FAA3E0FB1205CDE9024816
:10450800CBAE0AAF0B8E828F83A3E0600302462BEB
:104518008E828F83A3A3A3A3A3E0A2E04003024655
:104528002B90081EE0F8A3E0F9E849600302462B47
:104538007C0E7D007900AA18AB19120FAB8A088B84
:1045480009AA08AB09EE240CF582E43FF583E0F8EC
:10455800A3E0F9E84960367508067509007808127D
:1045680018D6EE240CF582E43FF583E02410FCA372
:10457800E03400FD74021216B1120F937402121681
:10458800698A088B09850882850983804F8E828F06
:1045980083A3A3A3E0FAA3E0FB120A118A0C8B0DF4
:1045A800850C08850D09E5084509602D750C06750B
:1045B8000D00780C1218D6E5082405FCE43509FD31
:1045C80074021216B1120F9374021216698A0C8BB8
:1045D8000D850C82850D8380030248CB8E828F83E4
:1045E800A3A3A3A3A3E0A2E25004D2F08002C2F0E6
:1045F800A2F0E433F87900740C12169FE048F0A397
:10460800E049F0EEFCEFFDAA18AB191210E3E970CF
:10461800127A027B0090076AE0F9120FE7E9790045
:104628000248CD900784E0F8A3E0F9E84960439098
:104638000784E0F8A3E0F5838882A3A3E0F8A3E069
:10464800F9E849602D8E828F83A3E0FC79018E8280
:104658008F83A3A3A3E0FAA3E0FB900784E0F8A369
:10466800E0F5838882A3A3E0F8A3E0F583888212AB
:1046780016C10248CBAE0AAF0B900784E0F8A3E05E
:10468800F9E8496045900784E0F8A3E0F58388825B
:10469800A3A3E0F8A3E0F9E849602F850A82850B17
:1046A80083A3E0FC79028E828F83A3A3A3E0FAA3FD
:1046B800E0FB900784E0F8A3E0F5838882A3A3E0F9
:1046C800F8A3E0F58388821216C10248CB850A0850
:1046D800850B097C007D00E5082404FAE43509FB14
:1046E800850882850983A3A3A3E0F91210B3E9FE24
:1046F800EEC3940A5017E508240AFCE43509FD7A4C
:104708000475F006EEA42425F91212ABE90248CB91
:10471800AE0AAF0B90077FE06018900E91E0F98E1B
:10472800828F83A3A3A3E0FAA3E0FB1205CDE902DD
:1047380048CB900E90E0701579058E828F83A3A3E5
:10474800A3E0FAA3E0FB1205CDE90248CB8E828FE5
:1047580083A3A3A3E0FAA3E0FB120A118A0C8B0D32
:10476800850C08850D098E828F83A3A3A3A3A3A319
:10477800A3E0A2E05071E5084509606885088285D4
:104788000983A3A3A3A3E0605E8E828F83A3A3A360
:10479800A3A3A3A3A3A3E0F8A3E0F9E8C4540FF8E4
:1047A8007900E85401F8E95400F9E8A2E0403874C7
:1047B8000E1216B9E5082405FAE43509FB850882C6
:1047C800850983A3A3A3A3E0F91210B3E9701879AC
:1047D800038E828F83A3A3A3E0FAA3E0FB1205CD87
:1047E800E90248CB0248CBEE2405FCE43FFD8508EE
:1047F80082850983A3A3A3A3E0F98E828F83A3A351
:10480800A3E0FAA3E0FB12114F900784E0F8A3E0BD
:10481800F9E849603E900784E0F8A3E0F5838882D0
:10482800A3A3E0F8A3E0F9E84960287C0079008EAA
:10483800828F83A3A3A3E0FAA3E0FB900784E0F8A8
:10484800A3E0F5838882A3A3E0F8A3E0F583888238
:104858001216C1806E120699E97068900813E06418
:1048680001701A121119E9FE9008137400F07C0AFD
:104878007D0079007A147B08120FAB803C7E00EE35
:10488800C3940A50348E0875090074142508F582FB
:1048980074083509F583E06401701BEEF912111FE5
:1048A800E9F88E0875090074142508F5827408352E
:1048B80009F5837400F00E80C679501212B7E9FE2C
:1048C800121107790174141216697F06021795747C
:1048D800F31216C374F21216538908EAFEEBFF8C22
:1048E80009AC18AD197A0E75F006E508A42420F96C
:1048F8001212B1E970647C0679FFAA18AB1912107C
:104908000BE97056740C12169FE0F8A3E0F9E8F56D
:104918000CE5096005EE420C8004EEF4520C850C9F
:104928000A750B00740C12169FE0650A7004A3E068
:10493800650B6022E50CF87900740C12169FE8F0FC
:10494800A3E9F0AC18AD197A0E75F006E508A424B1
:1049580020F91212ABE9790180027900740E12165F
:10496800697F0502179574F01216C374E612165380
:1049780089098A0E8B0FECFEEDFF740C1216B97ABA
:104988000E75F006E509A42420F91212B1E96003B6
:10499800024A9E7C0679FF740C1216B112100BE9BC
:1049A8006003024A9EAC18AD197A0C74702509F997
:1049B8001212B1E96003024A9A750800AA18AB19E5
:1049C8001210DDE50E450F702E7C0C7900AA18AB8D
:1049D8001912100BE96003024A807C0C7D007900F3
:1049E800AA18AB19120FAB8A0A8B0B850A82850BA2
:1049F80083750801024A80AC18AD19AA0EAB0F12D4
:104A080010D78A0C8B0D850C0A850D0BE50A450B12
:104A18007030EE4F601BAC18AD197A007B00121095
:104A2800D78A0C8B0DA80CA90D880A890BE8497048
:104A38000479008063850A82850B83E50EF0A3E57F
:104A48000FF0850A82850B83A3A3E0F87900EE684E
:104A58007002EF696022EEC0E0850A82850B83A3AD
:104A6800A3D0E0F0EE4F700D850A82850B837400A9
:104A7800F0A37400F0750801E5086016AA18AB19D0
:104A88001210DDAC18AD197A0C74702509F91212E0
:104A9800ABE9790180027900741A1216697F08025D
:104AA800179574F71216C3EAFEEBFF7B00EBC3946D
:104AB80004504EEBF87900E875F003A4C8AAF07525
:104AC800F000A42AFA75F003E9A42AF9EC28F58283
:104AD800ED39F583E06E7003A3E06F7021EBF87990
:104AE80000E875F003A4C8AAF075F000A42AFA75C6
:104AF800F003E9A42AF9EC28FAED39FB80070B80CA
:104B0800AC7A007B007F0102179574F71216C37FF9
:104B180000EFC394044003024BC1EFF87900E87535
:104B2800F003A4C8ACF075F000A42CFC75F003E900
:104B3800A42CF9EA28F582EB39F583E0F4FCA3E02C
:104B4800F4FDEFF87900E875F003A4C8AEF075F04D
:104B580000A42EFE75F003E9A42EF9EA28F582EBED
:104B680039F583ECF0A3EDF0EFF87900E875F00380
:104B7800A4C8ACF075F000A42CFC75F003E9A42CD3
:104B8800F9EA28F582EB39F583A3A3E0F4C0E0EF56
:104B9800F87900E875F003A4C8ACF075F000A42C0F
:104BA800FC75F003E9A42CF9EA28F582EB39F583C2
:104BB800A3A3D0E0F00F024B197F0102179574F000
:104BC8001216C374F4121653EAFEEBFF8C088D0913
:104BD80090081EE0F8A3E0F9E849702CEE4F600653
:104BE800E508450970057901024E72EEFAEFFB12ED
:104BF80010FBE9900E94F0900E94E0C3940A4008DC
:104C080012110DE9900E94F0900E94E0C3940A40AE
:104C180003024E7090081EE0F8A3E0F9E84960032B
:104C2800024CBCEEFCEFFD7A0E75F006900E94E097
:104C3800A42420F91212ABE9F50B7C0C7D0079FF56
:104C4800AA18AB19120FAB8A0C8B0D850C0E850DAB
:104C58000FAC18AD197A0C900E94E02470F912126A
:104C6800ABE9F50A750C0E750D00780C1218D6EE26
:104C7800FCEFFD900E94E0F87900E875F00EA4C8FA
:104C8800AAF075F000A42AFA75F00EE9A42AF974BE
:104C98008628FA740739FB120F9374021216698A70
:104CA8000C8B0DA80CA90D90081EE508F0A3E509CA
:104CB800F0024E6C90081EE0F8A3E0C82406F582C6
:104CC800C83400F583E0F8A3E0F9E84960439008A8
:104CD8001EE0F8A3E0C82406F582C83400F583E096
:104CE800FCA3E0FD7A1B75F006900E94E0A4242145
:104CF800F91212ABE9F890081EE0F9A3E0C92406FE
:104D0800F582C93400F5837400F0A37400F0024EF4
:104D18006C90081EE0F8A3E0C8240AF582C83400A5
:104D2800F583E0F8A3E0F9E849604390081EE0F84D
:104D3800A3E0C8240AF582C83400F583E0FCA3E0A8
:104D4800FD7A1B75F006900E94E0A42422F9121245
:104D5800ABE9F890081EE0F9A3E0C9240AF582C976
:104D68003400F5837400F0A37400F0024E6C9008D0
:104D78001EE0F8A3E0C8240CF582C83400F583E0EF
:104D8800F8A3E0F9E849604390081EE0F8A3E0C8FA
:104D9800240CF582C83400F583E0FCA3E0FD7A100A
:104DA80075F006900E94E0A42423F91212ABE9F8EA
:104DB80090081EE0F9A3E0C9240CF582C93400F577
:104DC800837400F0A37400F0024E6C90081EE0F8A3
:104DD800A3E0C82408F582C83400F583E0F8A3E00E
:104DE800F9E849606F90081EE0F8A3E0C82408F5C8
:104DF80082C83400F583E0FCA3E0FD7A1075F00664
:104E0800900E94E0A42424F91212ABE9F50A900854
:104E18001EE0F8A3E0C82408F582C83400F583E052
:104E28002410FCA3E03400FD7A0475F006900E947B
:104E3800E0A42425F91212ABE9F890081EE0F9A3C2
:104E4800E0C92408F582C93400F5837400F0A3741E
:104E580000F08010900812E06003121161121149ED
:104E680079018006790080027901740C1216697F35
:104E78000802179574F71216C374F2121653E9FE56
:104E8800AC18AD197A0E75F006EEA42420F91212AA
:104E9800B1E9700E740C12169FE0F8A3E0F9E8F976
:104EA80080027900740E1216697F0102179574F456
:104EB8001216C374F21216538909EAFEEBFFE509CC
:104EC800C3940A5004EE4F700479028041AC18ADC7
:104ED800197A0E75F006E509A42420F91212B1E931
:104EE800F508E5087026750A06750B00780A121889
:104EF800D674021216B9EEFAEFFB120F937402126F
:104F080016698A0A8B0B850A82850B83A908740E99
:104F18001216697F0402179574F41216C3EAFEEBA1
:104F2800FF750800E508C3940A5044750A06750B16
:104F380000780A1218D6EEFCEFFDE508F87900E8CB
:104F480075F00EA4C8AAF075F000A42AFA75F00E40
:104F5800E9A42AF9748C28FA740739FB120FA5748E
:104F680002121669E96004A9088006050880B57967
:104F78000A7F0402179574F41216C3EAFEEBFF7554
:104F88000800E508C3940A5044750A06750B0078B2
:104F98000A1218D6EEFCEFFDE508F87900E875F07E
:104FA8000EA4C8AAF075F000A42AFA75F00EE9A4B8
:104FB8002AF9748628FA740739FB120FA5740212AD
:104FC8001669E96004A9088006050880B5790A7F92
:104FD8000402179574F71216C374F0121653EAFEFA
:104FE800EBFF750800E508C3940A5039AC18AD19F1
:104FF8007A1075F006E508A42423F91212B1E970B5
:10500800207C1079FFAA18AB1912100BE97012EE68
:10501800FCEFFDAA18AB191205A3E97004A90880D2
:1050280006050880C0790A74101216697F010217F4
:105038009574F41216C3750800E508C3940A400372
:10504800025117E508F87900E875F00EA4C8AAF02F
:1050580075F000A42AFA75F00EE9A42AF9748628D6
:10506800FC740739FD7A0E75F006E508A42420F9CA
:105078001212B1E970030251127C067D0079FFE536
:1050880008FA7B00EA75F00EA4CAA8F075F000A42F
:1050980028F875F00EEBA428FB74862AFA74073BEF
:1050A800FB120FAB8A0A8B0BAE0AAF0B7C067D0096
:1050B80079FFE508FA7B00EA75F00EA4CAA8F07536
:1050C800F000A428F875F00EEBA428FB748C2AFADB
:1050D80074073BFB120FAB8A0A8B0BAC0AAD0BE5CE
:1050E80008F87900E875F00EA4C8AAF075F000A4D5
:1050F8002AFA75F00EE9A42AF9749228F582740741
:1051080039F5837400F0A37400F00508025041904B
:105118000812E060031211611211497F0402179509
:1051280074F71216C37E00EEC3940A50327C0679D7
:10513800FFEEFA7B00EA75F00EA4CAA8F075F0003D
:10514800A428F875F00EEBA428FB74862AFA7407D5
:105158003BFB12100BE96004EEF980050E80C8795C
:105168000A7F0102179574F71216C37E007F00EFBD
:10517800C3940A502F7C0679FFEFFA7B00EA75F09A
:105188000EA4CAA8F075F000A428F875F00EEBA4D8
:1051980028FB74862AFA74073BFB12100BE970018E
:1051A8000E0F80CBEEF97F0102179574F71216C324
:1051B8007E007F00EFC3940A500DEE700AEFF912DB
:1051C800111FE9FE0F80EDEEF97F0102179574F0CB
:1051D8001216C374C9121653E9FE900E94E06E704D
:1051E8001D7A017B0090076AE0F9120FEDE97A0257
:1051F8007B0090076AE0F9120FEDE912116D74292E
:105208001216B97A0E75F006EEA42420F91212B11E
:10521800E9600302530A7C0679FF74291216B11259
:10522800100BE9600302530A7C0E7D0079FF742994
:105238001216B1120FAB851882851983EAF0A3EB19
:10524800F07C1B7D0079FF740E1216B1120FAB8A29
:105258000A8B0B850A0E850B0F7C0C7D0079FF7479
:10526800021216B1120FAB8A0C8B0D850C0A850D34
:105278000B74291216B97A0E75F006EEA42420F9DB
:105288001212ABE9F508740E1216B97A1B75F006FE
:10529800EEA42421F91212ABE94208740E1216B9D1
:1052A8007A1B75F006EEA42422F91212ABE9420823
:1052B800740E1216B97A1075F006EEA42423F912AA
:1052C80012ABE94208740E1216B97A1075F006EEA0
:1052D800A42424F91212ABE94208740E1216B97A02
:1052E8000475F006EEA42425F91212ABE9420874FD
:1052F800021216B97A0C74702EF91212ABE9420830
:105308008003750800A90874371216697F08021708
:105318009574F71216C3E9FEEE90076AF0121107AA
:105328007F0102179574F21216C3890AEAFEEBFF91
:10533800EE5400F8EF5480F9E849603590076AE0C8
:10534800F9120FCF8A0C8B0DA80CA90D88088909B2
:10535800E8496012AA08AB09121131E96008AA08E5
:10536800AB09120FBDE9EE6400FAEF6480FB02544A
:1053780031EE5402602D7C007D007A007B00121013
:10538800E3E960187A017B0090076AE0F9120FE7F9
:10539800E9EE6402FAEF6400FB0254317A027B0002
:1053A800025431EEA2E0507D90081EE0F8A3E0F52B
:1053B800838882A3A3A3E0FAA3E0FB121167E96044
:1053C8005E900784E0F8A3E0F9E849604590078417
:1053D800E0F8A3E0F5838882A3A3E0F8A3E0F9E866
:1053E80049602F7C00790190081EE0F8A3E0F5835E
:1053F8008882A3A3A3E0FAA3E0FB900784E0F8A3C4
:10540800E0F5838882A3A3E0F8A3E0F583888212FD
:1054180016C112116DEE6401FAEF6400FB800A7A7E
:10542800017B0080047A007B007F0602179574F7E1
:105438001216C3EAFEEBFF7508018E828F83E02403
:1054480050601314601924E1701CEEFAEFFB12107F
:10545800C5E9F5088010EEFAEFFB1211378007EE68
:10546800FAEFFB12113DA9087F0102179574F71294
:1054780016C3EAFEEBFF8E828F83A3A3A3A3E06487
:105488001E701179008E828F83A3A3E0FAA3E0FB3C
:105498001210B9E97F0102179574F61216C38A082B
:1054A8008B09850882850983A3A3A3A3E07034AE82
:1054B80008AF098E828F83A3A3A3A3A3A3A3121863
:1054C800ED8E828F83A3A3A3A3A3E0FCA3E0FD8EAC
:1054D800828F83A3A3E0FAA3E0FB1210BF74021229
:1054E8001669E97F0202179574F71216C3EAFEEBF4
:1054F800FF90076AE0F98E828F83A3E0FAA3E0FBAE
:10550800120825E97F01021795C082C08374FF1233
:105518001653121113E9C39402400B85188285199A
:10552800837402F08009851882851983740AF0ACA7
:1055380018AD197A0179051206B1E97401121669D4
:10554800D083D08202011F74F21216C374E81216B7
:10555800538A088B09E9FE8C0A8D0B7C187D00792B
:1055680000AA18AB19120FAB8A0C8B0DAC0CAD0D41
:10557800851882851983E508F0A3E509F090076C82
:10558800E0C0E0740212169FD0E0F090076DE0C012
:10559800E0740312169FD0E0F0900E93E0C0E07420
:1055A8001712169FD0E0F0741512169FE054FEF8FB
:1055B800A3E054FFF9900E92E0A2E0E433FA7B00F6
:1055C800E84AF8E94BF9741512169FE8F0A3E9F0D8
:1055D800900E92E0A2E15004D2F08002C2F074155D
:1055E80012169FE054FDFAA3E054FFFBA2F0E43347
:1055F800F87900E828F8E933F9EA48F8EB49F9744A
:105608001512169FE8F0A3E9F0900E92E0A2E3507D
:1056180004D2F08002C2F0741512169FE054F7FA13
:10562800A3E054FFFBA2F0E433F50C750D007403FE
:10563800780C121640EA450CF8EB450DF974151272
:10564800169FE8F0A3E9F0900E92E0A2E45004D28D
:10565800F08002C2F0741512169FE054EFFAA3E02E
:1056680054FFFBA2F0E433F50C750D007404780CBC
:10567800121640EA450CF8EB450DF9741512169F01
:10568800E8F0A3E9F0900E92E0A2E55004D2F08091
:1056980002C2F0741512169FE054DFFAA3E054FF1B
:1056A800FBA2F0E433F50C750D007405780C1216A6
:1056B80040EA450CF8EB450DF9741512169FE8F011
:1056C800A3E9F0900E92E0A2E25004D2F08002C268
:1056D800F0741512169FE054FBFAA3E054FFFBA2E6
:1056E800F0E433F50C750D007402780C121640EADC
:1056F800450CF8EB450DF9741512169FE8F0A3E96F
:10570800F090076DE0602A750C10750D00780C128A
:1057180018D67C6E7D07740612169FAA82AB831278
:105728000F9374021216698A0C8B0D850C82850DF5
:105738008390077EE06011EE600E741512169FE0EC
:105748004402F0A3E04400F090077EE06006780190
:105758007900800478007900741412169FE048F0EC
:1057680090076BE06006780479008004780079007F
:10577800741412169FE048F0AC0AAD0BAA18AB19C6
:105788001205C7E974181216697F0602179574F78F
:105798001216C3EAFEEBFF75080090077EE060066C
:1057A80078017900800478007900E8420890076B56
:1057B800E0600678047900800478007900E84208FF
:1057C800A908EEFAEFFB120681E97F01021795742A
:1057D800F21216C374E31216538A0C8B0DE9FF8C70
:1057E8000A8D09742B12169FE0F508740865097074
:1057F8000A75F006EFA42422FE800875F006EFA4CF
:105808002421FE7C1B7D00790074021216B1120F50
:10581800AB851882851983EAF0A3EBF0740212169F
:10582800B97A1BEEF91212B1E97038741C12169F7E
:10583800E0C39407402D741C12169FE0C3941150C6
:1058480022E508F50B780B1218DA74031216B9E57D
:105858000AA2E0E433F9AA0CAB0D1205D9740112BF
:105868001669E9741D1216697F0602179574F712F6
:1058780016C312089DE97E00EEC3940A50557C06B3
:1058880079FFEEFA7B00EA75F00EA4CAA8F075F06D
:1058980000A428F875F00EEBA428FB74862AFA7485
:1058A800073BFB12100BE97027EEF87900E875F05A
:1058B8000EA4C8AAF075F000A42AFA75F00EE9A49F
:1058C8002AF9748628FA740739FB79001208A3E9C3
:1058D8000E80A57F0102179574F61216C374FD1287
:1058E8001653EAFEEBFF900820E0F8A3E0F9E84938
:1058F800703975082275090878081218D6750802D3
:1059080075090078081218D67508DD7509817808B8
:105918001218D67CFF7DFF7A017B001206F374060D
:10592800121669900820EAF0A3EBF0900820E0F83E
:10593800A3E0F9E84970030259FDE4F508F5097890
:10594800081218D674041216A9880889097808124A
:1059580018D674041216A98808890978081218D666
:105968009008221218ED7902900820E0FCA3E0FDCF
:10597800EEFAEFFB1208137408121669E9704A85EB
:105988001882851983E0FA7B00740112169FE0F8EB
:105998007900E4C8F9EA28F508EB39F509E508457E
:1059A80009602678081218D6900820E0F8A3E0F5D8
:1059B800838882A3A3A3A3E0FCA3E0FDEEFAEFFB98
:1059C8001210BF7402121669E9E4F508F50978089F
:1059D8001218D69008221218ED7CFF7DFF9008203F
:1059E800E0FAA3E0FB1206FF74041216699008207F
:1059F800EAF0A3EBF0900820E0F8A3E0F9E849709A
:105A08000479018002790074031216697F02021773
:105A180095C082C08390081EE0F8A3E0F9E84960C9
:105A28001790081EE0FAA3E0FB120FBDE9F89008F2
:105A38001E7400F0A37400F0900E94740AF0D083E2
:105A4800D08202011FC082C0839061907404F0A3C9
:105A58007448F0A37402F09061807440F09061BCC7
:105A68007403F09061877419F0906265741BF0906C
:105A78006249E0C3941390619C400A7409F09060F5
:105A88006674018007740DF0906066E4F090619A86
:105A98007433F0A37455F09061A0743AF090054403
:105AA800E064017009C2919003AB746780059003AC
:105AB800AB7461F0902612E493906186F090260C06
:105AC800E493F46027E493540FF8906185E06860EC
:105AD80012E5C654804449F5C6E59E547F64497072
:105AE800F8E8F053C680E59E547F70FA7905120DE8
:105AF80077025C9FC082C083E5A8F853A87E9061B6
:105B080081E4F0A3F0A3F0C2BA539AFEC289759B50
:105B180000C2C275E90075910075BF0075A91175BD
:105B2800B905906181F0A374C0F0A3E4F0D2BA4340
